:020000040800F2
:100000001011002081A00008919900089399000820
:100010009599000897990008999900080000000038
:100020000000000000000000000000009B99000894
:100030009D990008000000009F990008A199000800
:10004000A599000899A000089DA00008A1A000089B
:10005000A5A00008A9A00008ADA00008B1A0000854
:10006000B5A00008B9A00008BDA00008AB99000821
:10007000C1A00008C5A00008C9A00008CDA00008C4
:10008000D1A00008D5A00008D9A00008DDA0000874
:10009000E1A00008E5A00008E9A00008EDA0000824
:1000A000E7990008E9990008F1990008F1A0000813
:1000B000F5A00008F9A00008FDA0000801A10008B3
:1000C00005A1000809A100080DA1000811A1000860
:1000D00015A10008F399000819A100081DA1000846
:1000E00021A1000825A1000829A1000878B5A1A434
:1000F0008DB0DFF8543A25681D60521A002404E0E0
:100100006618865D0DF80460641C9442F8DB0024D8
:100110000DF802406946184603F0CCFB0EB070BDE6
:1001200080B5B2B000F01BF801F0ABF8684603F000
:10013000E1FB00F00DF825E000B5CBB000F00FF8C2
:1001400003F0D8FB00F004F803F01AFC4BB000BD3C
:1001500082B24FF0FF336946DFF8F009704701467D
:10016000684603F01BBF80B5B2B0FFF7F8FF01F09F
:1001700088F8684603F0BEFB82B24FF0FF33694651
:10018000DFF8CC0903F0FCFB33B000BD10B5DFF89D
:10019000C449606840B9A068401CA0604FF4005199
:1001A000DFF8B40903F0D9FFDFF8B009C16D491CCD
:1001B000C165A06B401CA063A069012802D1E06961
:1001C000401CE061A06A012802D1606A401C6062A4
:1001D000A06E012802D1E06E401CE066206F01286D
:1001E00002D1606F401C6067A06F012802D1E06FF0
:1001F000401CE067D4F88000012804D1DFF86009D2
:100200000168491C0160606E401C606610BD2DE9EC
:10021000F841DFF84849DFF84C8904F254558DB0B5
:1002200002F03CF873A674A768B93946684603F033
:1002300041FB2946684603F0B3FF314603F0B0FFA7
:100240006846FFF790FF42F2107003F0F7FF01F0ED
:10025000D7F86AA0FFF787FF01F0CEF804F5AD6488
:1002600001F04DFE68B93946684603F023FB21468C
:10027000684603F095FF314603F092FF6846FFF7AA
:1002800072FF0EB0BDE8F0814FF4FA51484300E030
:10029000C0000146481E0029FBD1704781B08DF88F
:1002A00000008DF801108DF802208DF803300098C1
:1002B00001B0704718B5DFF8B008DFF8B04885B076
:1002C000026842F004020260016801F0040100913A
:1002D0000099026842F0040202601121006800F0F7
:1002E000040000908020009A019000F007F840225E
:1002F0000192112100F002F806B010BD0291022215
:10030000049201A9204603F055BE10B54FF47A704F
:10031000FFF7BEFFDFF85848206840F0800000F08B
:100320002EF800F029F8206820F0800000F027F86F
:10033000206820F040002060642016E010B500F036
:1003400063F8DFF82C48206820F0400000F017F830
:10035000206820F0800000F012F800F00DF820680E
:1003600040F0800020604FF47A70BDE810408FE7C5
:100370000000000000000000206840F04000206005
:10038000642085E72DE9F843DFF8B85C80466868AB
:1003900020F040008946002768608026082406EA8D
:1003A000080000286868CCBF40F0800020F0800082
:1003B00000F029F800F024F8686820F04000686038
:1003C0002968080648BF37437608641EE7D1686885
:1003D00020F08000B9F1010F686006D100F010F83C
:1003E000686820F0400000F00EF800F00DF8384684
:1003F000BDE8F2833B0000004154440041544800F2
:10040000686840F040006860642041E738B5044601
:100410000D46FFF77AFF200A400040F0A00000F0F0
:1004200046F80121E0B2FFF7ADFF01212846FFF7B2
:10043000A9FFFFF783FF0F20FFF726FF002032BD43
:100440007FB50546000A0024460000200DF8040090
:100450000DF80460FFF759FF46F0A00000F027F800
:100460000121E8B2FFF78EFFFFF74FFF46F0A10032
:1004700000F01DF80021FF20FFF784FF0DF80400B5
:10048000FFF75CFF0120FFF7FFFE3CB10DEB04011D
:100490001DF8040011F8012C824203D0641C092CC1
:1004A000D3DB01E004B070BD9DF80000FAE7012144
:1004B000C0B267E738B500F007F86D1C210AA8B292
:1004C000FFF7A4FF002032BD04460D46E1B22846E6
:1004D0009CE77CB504460D460026009470191DF873
:1004E000061000F02BF8761C042EF6DB002076BDFB
:1004F00038B50446601C00F05AF805462046FFF760
:100500009FFF00EB052032BDF8B50446FFF798FFCA
:1005100000F010F8064600F049F80746E41CA0B2C7
:10052000FFF78EFF03463A463146284601B0BDE844
:10053000F040B3E60546601C80B281E780B265E713
:1005400010B50024FF21A0B2FFF760FF641CA2B227
:10055000B2F5007FF6DB10BDF8B504460D46164631
:10056000002702E0FFF7EAFF7F1C3819711E8F4257
:1005700002DAE95D0029F5D1BDE8F440002180B23E
:1005800044E7F8B504460D461646002700E07F1CF8
:10059000701E874205DA381900F009F8E85500287E
:1005A000F5D1AA19002102F8011CF1BDA01C80B2EE
:1005B00046E7014609220120CEE700011022103053
:1005C000CAE7602185E7642183E7682172E76A2131
:1005D00070E710B50C4601465020FFF717FF214683
:1005E000BDE81040512011E7014652200EE70146B8
:1005F00009220120C5E7502022E7512020E75220A0
:100600001EE76C201CE76D201AE76E2018E76020BB
:100610007AE7642078E768206AE76A2068E70000E4
:1006200003280FD8DFE800F00205080B1022102085
:1006300007E01022202004E01022302001E01022E8
:1006400040209EE700200870704770B50020FFF73B
:10065000F7FE5A286DD0DFF804450FF2B4150FF2FB
:10066000BC1600F093FBFFF76BFF5A210020FFF749
:10067000CDFE2846FFF79DFF314600F0D8F800F088
:1006800059F8314600F0E7FF314600F0E1FF002164
:100690000020FFF79EFF0020FFF7A6FF4FF07F50DE
:1006A000FFF78FFFDFF8400DFFF78DFF0A20FFF700
:1006B0008CFF3C20FFF78BFF00216C20FFF7A6FE8C
:1006C00000216D20FFF7A2FE01216E20FFF79EFEA4
:1006D0000922294604F2A45003F0C4FD0E2231463B
:1006E00004F2545003F0BEFD0E22314604F5AD6015
:1006F00003F0B8FD0E22314604F27C5003F0B2FD47
:100700000E22314604F5B26003F0ACFD00202066F5
:100710006066A0663C22DFF8D40CDFF8D41C2067AA
:10072000E1660020A067E0670A2101202180628045
:10073000606770BD314601203FE7F8B55A210020BF
:10074000FFF764FE0FF2C8040FF2D005DFF8A06CCB
:10075000DFF808742046FFF72CFF00F067F8294601
:10076000FFF7E9FF294600F076FF294600F070FF09
:1007700000210020FFF72DFF0020FFF735FF304656
:10078000FFF71FFFDFF86C0CFFF71DFF0A20FFF7D4
:100790001CFF3C20FFF71BFF00216C20FFF736FEFB
:1007A00000216D20FFF732FE01216E20FFF72EFEA3
:1007B0000922214607F2A45003F054FD0E222946D7
:1007C00007F2545003F04EFD0E22294607F5AD60A6
:1007D00003F048FD0E22294607F27C5003F042FD4B
:1007E0000E22294607F5B26003F03CFDDFF8FC1B42
:1007F0003967002038667866B8660021B967F967FE
:100800000A20FE6638803C2201217A807967F1BD9A
:100810003132333435363738000000002B3938395F
:100820003131313131313131310000002946002080
:10083000C3E610B504460FF21000FFF771FC204626
:10084000BDE81040FFF76CBC3F20454550524F4D6E
:10085000205741524E494E473A0000000178FF2987
:1008600018BF00290BD00022815C31B120395F29EB
:1008700005D2521C142AF7DB01E00120704700204A
:1008800070472DE9F0419EB00FF2E820B34CFFF71E
:1008900047FC6846FFF7ABFE694604F2A45003F03C
:1008A0007DFB6846FFF7DAFF28B90FF2E820FFF773
:1008B000C0FF00F06BFA6A460FF2EC2100F060FA1C
:1008C00000F061FA69460020FFF7AAFE04F25455D1
:1008D0006946284603F062FB69460120FFF7A0FE47
:1008E00004F5AD666946304603F058FB69460220C0
:1008F000FFF796FE04F27C576946384603F04EFB3C
:1009000069460320FFF78CFE04F5B268694640464D
:1009100003F044FB0FF29820FFF702FC00F0D9FE31
:100920000FF29820FFF7FCFB01F026FF0FF2982052
:10093000FFF7F6FB01F086FC0FF29820FFF7F0FBC3
:100940004046FFF7EDFBFFF756FE2066002818BF74
:10095000012805D00FF28820FFF76BFF00F016FA90
:1009600005A8226E0FF2902102F0A4FF00F00BFA0E
:10097000FFF743FE6066002818BF012805D00FF27C
:100980008420FFF756FF00F001FA05A8626E0FF20F
:100990008C2102F08FFF00F0F6F9FFF730FEA06621
:1009A00000281EBF01280FF28020FFF742FFA26E31
:1009B0000FF28C21DFF83C5DDFF83C6D00F0E0F9D0
:1009C00000F0E1F9FFF723FE41000A1612F1010FD2
:1009D000E06601D1090207D1314603F04FFC03D391
:1009E000294603F05FFC03D80FF26420FFF721FFD4
:1009F000E06E03F06BFC02460B460FF2682105A87F
:100A000002F058FF00F0BFF9FFF703FE014648006F
:100A1000021612F1010F216701D1000208D1084628
:100A2000314603F02BFC03D3294603F03BFC03D8EB
:100A30000FF24420FFF7FDFE206F03F047FC024653
:100A40000B460FF24C2105A802F034FF00F09BF991
:100A5000FFF7E1FD208042F2117508B1A84205DBE5
:100A60000FF24020FFF7E5FE00F090F905A822887C
:100A70000FF2442102F01EFF00F085F9FFF7CDFDD3
:100A8000608008B1A84203DB0FF24020FFF7D1FEDF
:100A900062880FF24C2100F073F900F074F9FFF74F
:100AA000B0FDA06700281EBF01280FF24820FFF705
:100AB000C0FEA26F0FF2502100F062F900F063F95E
:100AC000FFF7A1FDE06700281EBF01280FF24820B4
:100AD000FFF7AFFEE26F0FF2542100F051F900F082
:100AE00052F9FFF792FD60670428A4BF0FF24C2073
:100AF000FFF79FFE626F0FF25821DFF80C5D00F0E8
:100B00003FF900F040F9206E012803D10122202195
:100B100001F02CFC206E18B90022202101F026FCE7
:100B2000606E012803D10122402101F01FFC606E9C
:100B300018B90022402101F019FC0FF22420FFF720
:100B4000EFFA1EB0BDE8F081A0030020EC09002000
:100B5000040000205809002000100140000000207F
:100B6000000B00203838000818100240000C01402B
:100B70000C0C01403D3D3D3D3D20454550524F4D03
:100B800020434F4E4649472044554D50203D3D3D62
:100B90003D3D0000496E76616C696420446576696C
:100BA000636520494400000049443A202573000051
:100BB0004E756D626572313A000000004E756D62CF
:100BC0006572323A000000004E756D626572333A0C
:100BD000000000004E756D626572343A000000003E
:100BE00052656C61793120737461746520696E7629
:100BF000616C69640000000052656C6179313A20D3
:100C00002564000052656C617932207374617465EB
:100C100020696E76616C69640000000052656C6149
:100C200079323A20256400005365637572697479DE
:100C300020737461746520696E76616C696400006C
:100C400053656375726974793A2025640000000069
:100C50004C6F772063757272656E7420696E766171
:100C60006C6964004C6F7743757272656E743A20DC
:100C7000252E32662041000048696768206375723E
:100C800072656E7420696E76616C696400000000A4
:100C90004869676843757272656E743A20252E3212
:100CA0006620410043757272656E7454696D6520EB
:100CB000696E76616C69640043757272656E745416
:100CC000696D653A202564207365630052656C6523
:100CD00061736554696D6520696E76616C69640045
:100CE00052656C6561736554696D653A20256420B1
:100CF0007365630052656D6F74655374617465202C
:100D0000696E76616C69640052656D6F74655374C9
:100D10006174653A20256400416C61726D4D6F64A9
:100D20006520696E76616C6964000000416C6172D7
:100D30006D4D6F64653A2025640000004465766956
:100D400063654D6F646520696E76616C696400004F
:100D50004465766963654D6F64653A2025640000DB
:100D60003D3D3D3D3D20454550524F4D204348457A
:100D7000434B20444F4E45203D3D3D3D3D0000004E
:100D800005A802F097BD05A8FFF7CAB90120C4F86D
:100D900080007047F8B5044696B00021217006A87F
:100DA000FFF725FC00F09FF806AA0FF2D8010FF21A
:100DB000DC06204402F07EFD002502A9E8B2FFF720
:100DC0002FFC00F090F8EAB202AB521C31462044EE
:100DD00002F070FD6D1CE8B20428EEDBFFF70DFC9D
:100DE00005465020FFF72CFB00F07CF82B463246DE
:100DF0000FF2A001204402F05DFDFFF700FC054664
:100E000000F071F82A460FF29C01204402F052FDD6
:100E1000FFF7FFFB0746FFF7FAFB00F063F8054614
:100E2000384603F053FACDE90001304603F04EFA9C
:100E300002460B460FF27401601902F03BFDFFF70A
:100E4000ECFB0546FFF7E7FB00F04CF82B4632467B
:100E50000FF26C01204402F02DFDFFF7D6FB054692
:100E6000FFF7D1FB0646FFF7CCFB074600F03BF847
:100E7000009533463A460FF25801204402F01AFD1D
:100E800017B0F0BD49443D25733B00004E25643D3D
:100E900025733B0052313D25643B52323D25643B76
:100EA00000000000533D25643B0000004C433D25FD
:100EB0002E32663B48433D252E32663B0000000043
:100EC00043543D25643B52543D25643B00000000E3
:100ED00052533D25643B414D3D25643B444D3D25EA
:100EE000643B00000646204602F004BD2DE9F84FA1
:100EF000A2A48AB0214603F00DFA0FF2842B0FF260
:100F0000842A0FF28429A1A7A1A5A2A60FF238185E
:100F100017E0A1A100F0A1F878B900F09BF8C1B2E8
:100F20006E2008E09DA100F098F80028F1D100F0B3
:100F300091F8C1B26D20FFF769FA2146002003F055
:100F4000E9F900287BD002AB6A46414603F008FA73
:100F5000314600F082F818B902A8FFF72AFBECE747
:100F6000294600F07AF818B902A9FFF726FBE4E752
:100F7000394600F072F810B902A90120F5E7494698
:100F800000F06BF810B902A90220EEE7514600F01C
:100F900064F810B902A90320E7E7594600F05DF8AC
:100FA00020B900F057F8C1B25020C4E7B6A100F054
:100FB00054F820B900F04EF8C1B25120BBE7B3A1FC
:100FC00000F04BF820B900F045F8C1B25220B2E76A
:100FD000AFA100F042F838B902A803F055FB03F0C6
:100FE00065FBFFF7EEFAA8E7AAA100F036F838B9DA
:100FF00002A803F049FB03F059FBFFF7E4FA9CE772
:10100000A5A100F02AF828B900F024F880B2FFF773
:10101000DCFA92E7A1A100F020F828B900F01AF854
:1010200080B2FFF7D4FA88E79DA100F016F80028F7
:101030007FF478AF00F00EF8C1B26C207BE70BB004
:10104000BDE8F08F080C0140255B5E3D5D3D2573DA
:101050000000000002A803F0F6BB684603F006BCDF
:101060002DE9F84FD0A2DFF8684B10680FF2880620
:101070000FF28C0B0FF290080FF294090FF2980AFE
:1010800004F5A36531462860284603F089F803215A
:101090004F1C3A4604F2FC40FFF728F800F0D9FC58
:1010A00003F0D1FB092821D8DFE800F01C05080B6C
:1010B0000E111416181A0FF2680114E00FF26801ED
:1010C00011E00FF26C010EE00FF26C010BE00FF279
:1010D000700108E0594606E0414604E0494602E056
:1010E000514600E03146284603F05AF839460D29AA
:1010F000CEDBBDE8F18F000030303330000000005F
:10110000303033360000000030303337000000004C
:101110003030333800000000303033390000000038
:101120003030333100000000303033320000000036
:101130003030333300000000303033340000000022
:10114000303033350000000038B5DFF8841ADFF89E
:10115000844ADFF8BC5C052088650020A061E0615E
:10116000206201F0F1F800F07CFC01F0EDF800F0F5
:1011700078FC0120A0620021616131BD3B000000CC
:10118000523100004E3400004E3300004E32000059
:101190004E31000049440000444D0000414D000024
:1011A0007FB500F01BF9DFF8284AA06D04F2FC457A
:1011B00010B904F59A610FE0062808BFDFF86C1C2F
:1011C0000AD0012808BF04F2545105D002280CBFF0
:1011D00004F5AD6104F2E44100F0ADFB0D22002105
:1011E00000F040FA04F5687100F0A5FB04F5D6762E
:1011F0000FF2DC11304602F05DFB01A9304602F02F
:10120000CFFF294602F0CCFF01A9304602F0C8FF0B
:1012100000F037F801F0B0FA00F0F2F8304602F0D2
:1012200069FB82B24FF0FF333146201D02F0A8FB6C
:1012300000F0E2F800F020F800F0E6F81A208DF84F
:10124000000000F00EFC00F0E6F801F079F800F084
:10125000E2F801F075F800F0DEF801F071F800F046
:10126000DAF801F06DF800F0D6F84FF47A6002F089
:10127000E5FFFFF769FF7FBD04F57575284602F0AD
:1012800039BBD3A102F08CBF5232000053000000E2
:101290004C430000484300004354000052540000F7
:1012A000525300003EB50FF20410DFF82449FEF758
:1012B0005AFF4FF4967002F0C1FF0FF20010FEF7D4
:1012C00052FF00F0CEFB00F09BF800F087F8A16D14
:1012D00004F2FC4011B904F59A6117E0062908BF31
:1012E000DFF8481B12D0012908BF04F254510DD079
:1012F000022908BF04F5AD6108D0032908BF04F234
:101300007C5103D0042903D104F5B26102F046FEFA
:10131000FFF7A6FE04F5D6750FF2B401284602F0D9
:10132000C9FA01A9284602F03BFF04F5A36102F0C7
:1013300037FF01A9284602F033FFFFF7A2FF00F0B4
:10134000C8F9FFF79BFF00F05FF800F055F8FFF7D2
:1013500093FF00F059F800F084FB1A208DF800008C
:1013600000F059F800F0ECFF00F055F800F0E8FF4D
:1013700000F051F800F0E4FF00F04DF800F0E0FF5D
:1013800041F2707002F05AFF00F03AF800F069FB89
:1013900000F064FE00F065FB00F054FE00F061FB1D
:1013A000FFF7D2FE37BD00000000000041542B4380
:1013B0005343533D225543533222000041542B43A3
:1013C000534D503D34392C3136372C302C380000F9
:1013D00041542B434D47533D000000002222E4A11D
:1013E00001A802F067BA0000000058410000B040B8
:1013F000666606403333A3404FF47A7002F01EBF96
:1014000004F14C0003F066BA82B24FF0FF33294674
:10141000201D02F0B5BA4FF0FF3301226946201DAE
:1014200002F0AEBA2DE9F84FDFF8A44704F18405C5
:101430000622022100F016F904F5D67604F5687745
:1014400001F09DF9162200F00CF904F536783946C2
:10145000404602F0A3FDFEF763FE04F5A969494684
:10146000304603F03DFA00280FD0C7A101F01EFF5F
:1014700000280AD014220C2100F0F4F801F07FF9C2
:1014800004F2A45103F02CFA002800F09F802222DD
:1014900000F0E7F8394604F5B76002F07FFDFEF78B
:1014A0003FFE0B22072100F0DDF801F068F901464C
:1014B000484602F073FD04F2545504F2E44100F092
:1014C0003AFA04F5AD660FF20C1A5146304602F0B6
:1014D000F1F904F27C575146384602F0EBF904F575
:1014E000B2695146484602F0E5F90120A06504F5CD
:1014F000757ADFF808BB5946504602F0DBF9FFF772
:10150000D1FEFFF77DFF0BF14001504602F0D2F90A
:10151000FFF7C8FEFFF78AF900F0A0F8FFF70AF915
:1015200000F09CF8394600F096F800F097F849462C
:1015300000F08EF800F092F8FFF762FF4046FFF7E8
:1015400029FC0FF2D030DFF88C56FEF7E9FD40465B
:10155000FEF7E6FD4146504602F020FD0020A06562
:10156000FFF71EFEDFF8A808FEF7FDFD00F079FA90
:101570000020E065E86801280DD10FF26800FEF751
:10158000F2FD00F0D9FEFFF73BFF0FF27400FEF70B
:10159000EAFD00F0D1FEE86802280FD10FF27800D2
:1015A000FEF7E1FD40F6B83002F048FEFFF728FFF5
:1015B0000FF27C00FEF7D7FD00F0BEFEFFF720FF24
:1015C000BDE8F24F0FF27800FEF7AABDBDE8F18F3B
:1015D0000D0A00002B39383131313131313131319F
:1015E0003100000041542B435553443D312C222AF5
:1015F0003535352A342A332A322A32232200000094
:1016000041542B435553443D312C222A3535352A3C
:10161000332A342A3123220041542B435553443D6D
:10162000312C222A3130302A31313423220000007B
:1016300041542B435553443D312C223122000000AC
:10164000726567697374657220646F6E650000006F
:101650000320FEF7B2BF0220FEF7AFBF0A2002F060
:10166000EDBD15212846FEF741BD10B5DFF86045F8
:101670000FF21C010022A26500F098FAFFF790FD1E
:10168000FFF75BF804F14C00BDE8104003F022B90D
:1016900050554D5020434F4E464947204F4B000078
:1016A0007CB5DFF83005DFF82845466D026C009602
:1016B0002521019104F536752523DFF8941C284671
:1016C00002F0F8F800F005F800F0A0F8BDE873406B
:1016D00066E52846FEF724BD38B500F04FF8012036
:1016E0002066C9B2FEF775FF012200F043F8DFF86B
:1016F000641C10E001004842CDCCCC3D38B500F070
:101700003DF800202066C9B2FEF763FF002200F01A
:1017100031F8DFF8B01B00F049FA294601F0D0FBA0
:1017200018B90120A065FFF7BDFD294604F5AD609D
:1017300003F0D6F818B90220A065FFF7B3FD2946DB
:1017400004F27C5003F0CCF818B90320A065FFF731
:10175000A9FD294601F0AFFB18B90420A065FFF7E9
:10176000A1FDBDE832404FF4FA7002F067BD000001
:10177000256300002021244802F0EBBCDFF8504430
:10178000DFF8D45B616E70472B00000038B5DFF8DE
:101790004044DFF8C45B012060660121206E00F048
:1017A0001FF8012200F014F8DFF8B01BB3E738B5DA
:1017B000DFF81C44DFF8A05B002060660021206E8B
:1017C00000F00EF8002200F003F8DFF8941BA2E707
:1017D00040210D4802F0BDBC002070660021306E33
:1017E000C0B2FEF7F6BE38B5DFF8E44304F536754F
:1017F0002846FFF7CFFA0FF21C10FEF791FCFFF717
:1018000068FF00F003F8B0E100080140294604F544
:10181000757002F0C3BB2DE9FF41DFF8B44304F15A
:1018200084070622022100F082F804F5D67604F53A
:10183000687800F077F80A2200F078F804F5367539
:10184000414600F078F804F5A961304603F048F805
:1018500000285DD0ACA100F01EFD002858D0162253
:1018600000F064F800F05EF8014604F2FC4600F077
:101870005AF80822072100F05AF84146684602F05B
:101880008DFBA2A103F02CF838B1314604F5AD6010
:1018900002F084FB0146FEF74EFFB6A1684603F056
:1018A0001FF838B1314604F27C5002F077FB014654
:1018B000FFF7D1FEB0A1684603F012F838B1314607
:1018C00004F5B26002F06AFB0146FFF7C1FE04F5C1
:1018D0007576DFF8901A304601F0ECFFFFF7E2FC76
:1018E00000F0BFF82846FFF755FA0FF22800FEF780
:1018F00017FCFFF7EEFE0120A065294600F013F863
:10190000FFF74EFCDFF80805FEF72DFC00F0A9F804
:10191000BDE8FF8153656E64696E6720636F6E6614
:1019200069673A004146304602F038BB0921384623
:10193000FEF7DCBB3146284602F030BB10B5DFF8BD
:10194000B84C04F18400FFF7D1FA11220FF2140110
:1019500004F5757002F086FCFFF722FC4FF47A6004
:101960009AE00000454550524F4D20434F4E4649A6
:1019700047204F4B0000000038B5954D0F2208213D
:1019800005F18400FEF7B2FB00F042F802F07CFEA5
:1019900002F08CFEE86605F57574FEF712FEDFF8BE
:1019A0005C1C204601F086FFFFF77CFC00F059F834
:1019B000E86E02F08BFC00F0ABF8204601F07AFFF5
:1019C000D3E038B5824D14220D2105F18400FEF7D5
:1019D0008DFB00F01DF802F057FE02F067FE28674D
:1019E00005F57574FEF7EFFDDFF8141C204601F0D5
:1019F00061FFFFF757FC00F034F8286F02F066FC37
:101A000002460B46DFF8FC1B204601F053FFACE01A
:101A100005F5687105F5D67002F0C0BA38B56C4CA2
:101A20000A22052100F0B0F800F013F802F00BFFD5
:101A3000208004F575752088FEF7C7FDDFF8C81B08
:101A4000284601F037FFFFF72DFC00F00AF8228846
:101A500086E004F5687104F5D67002F09FBA0120A3
:101A6000A0654FF4FA7002F0E9BB10B50FF2340133
:101A7000DFF8980BDFF8984B01F01CFFFFF790FBA5
:101A800000F05AFC012200F013F800F055FC00228F
:101A900000F00EF84FF4FA6002F0D0FB4D4901203F
:101AA000086110BD52657365742050756D7000003B
:101AB0004FF48071204602F04CBB80B5DFF8581B14
:101AC000DFF8480B01F0F6FEFFF7ECFBFFF7C9FF6C
:101AD0004048012100228166C2660122BDE808401B
:101AE0002021DFF82C0B02F034BB10B5394CE06D2F
:101AF00002F0ECFB00F00CF8DFF8100B01F0DAFE5E
:101B0000BDE81040FFF74CBB2B0000003200000086
:101B100002460B460FF204017047000043757272D3
:101B2000656E743A20252E326620410038B5284C67
:101B30001422082100F028F8FFF78BFF02F083FE43
:101B4000608004F575756088FEF741FDDFF8CC1AFA
:101B5000284601F0AFFEFFF7A5FBFFF782FF628882
:101B60000FF21801284601F0A5FEBDE83140FFF74D
:101B700017BB0000330000003400000054696D659D
:101B80003A2025642053000004F18400FEF7AEBA29
:101B900010B50F4CDFF8881A00F008F8FFF782FB49
:101BA0000120FEF721FD0120A06610BD04F575702F
:101BB00001F080BE10B5064CDFF8681AFFF7F6FF9B
:101BC000FFF770FB0020FEF70FFD0020A06610BDA0
:101BD00000000020580900202DE9F041DFF8186AC4
:101BE0000FF2642106F1840400F0CFFD08B1FFF785
:101BF0003CFD86A100F0C9FD08B1FFF79FFE0FF282
:101C0000502100F0C2FD08B1FFF7EDFD012200F008
:101C100072F906F5D67506F56876FFF78BFE7DA19D
:101C200002F05EFE08B1FFF7FDFB012200F063F950
:101C3000FFF780FE78A102F053FE08B1FFF7EBFD3D
:101C400076A100F0A2FD18B975A100F09EFD08B1C3
:101C5000FFF726FD00F04EF9FFF76CFE71A102F0D0
:101C60003FFEDFF8E48C58B96FA100F014FB38B9DF
:101C70000FF2E41100F089FD10B900F040F908B14D
:101C8000FFF72AFD00F036F9FFF754FE68A102F0D5
:101C900027FE68B967A100F0FEFA48B90FF2CC112F
:101CA00000F073FD20B908F1280100F06EFD08B1C5
:101CB000FFF724FD022200F01EF9FFF73BFE5EA7AE
:101CC000394600F062FD48B95CA100F0E4FA18B9A9
:101CD0005BA100F0E0FA08B1FFF710FD00F00AF98F
:101CE000FFF728FE57A102F0FBFD40B9BAA100F0B2
:101CF000D2FA20B908F1540100F047FD08B1FFF70E
:101D000045FD00F0F7F8FFF715FE394602F0E8FD53
:101D100040B9B2A100F0BFFA20B908F17C0100F08F
:101D200034FD08B1FFF743FD072200F0E4F8FFF7A8
:101D300001FE0FF2501102F0D3FD20B90FF24C1149
:101D400000F0A9FA08B1FFF717FE072200F0D3F858
:101D5000FFF7F0FDA2A102F0C3FD38B9A1A100F088
:101D60009AFA18B9A0A100F096FA08B1FFF7BDFEE3
:101D70000FF2201100F009FD20B90FF2281100F038
:101D800004FD08B1FFF71DFE0FF2281100F0FDFC65
:101D900048B90FF2281100F0F8FC20B90FF2241115
:101DA00000F0F3FC08B1FFF739FE0FF2201100F04C
:101DB000ECFC08B1FFF7BAFE0FF2181100F0E5FCD9
:101DC00008B1FFF77AFE0FF21C1100F0DEFC20B91B
:101DD0000FF2181100F0D9FC08B1FFF746FE83A1FD
:101DE00000F0D3FC18B982A100F0CFFC08B1FFF7D6
:101DF000CFFE80A100F0C9FC18B97FA100F0C5FC9E
:101E000010B1BDE8F041D5E6BDE8F08149443D00A0
:101E1000D42C000852000000410000004254000091
:101E2000427400004F4E31004F6E3100E421000833
:101E30004F4631004F6631004F4632004F4600009A
:101E40004F6600004F4E3200434F4E464947000058
:101E5000696E666F0000000030363331303634383A
:101E600030363334303634360000000030363245F8
:101E70003036323730363435303634383036333425
:101E80000000000043757272656E740063757272B3
:101E9000656E74006F7665722063757272656E741C
:101EA000000000004F7665722063757272656E7473
:101EB0000000000054696D650000000054494D4564
:101EC0000000000074696D65000000005265616CDF
:101ED000697A65004175746F2063757272656E74FE
:101EE0000000000072657365740000005265736540
:101EF00074000000032200212046FEF7F7B8414697
:101F0000204602F0EDBC70B5DFF8185D0FF6440412
:101F1000E96901290BDD0FF2E800FEF701F9286AF3
:101F2000401C00212862E9612046FEF71CF9286A5E
:101F3000DFF8F46C012825DDFFF793FD00F08EF843
:101F400000F09AF800F07EF840F2DC5002F076F9EA
:101F5000DFF8D80CFEF707F900F08EF800F058FD16
:101F600000F08AF8DFF8C80CFEF7FDF800F084F8FE
:101F700000F04EFD0020E8612862A8610FF2900099
:101F8000FEF7CEF8A869002804BF686901280BD1C4
:101F90000FF29000FEF7C4F80020E86168610120AC
:101FA000A8612046FEF7DFF8A86A012812D1686A06
:101FB00004280FDB0FF28000FEF7B2F800F028FDD6
:101FC0000020A8626862A8614FF4FA70BDE8704012
:101FD00002F034B970BD00004F6E32004F6632001F
:101FE0005563000055430000756300005331000045
:101FF0007331000053320000733200004098000833
:102000002A2A436865636B20534D532A2A00000037
:102010002A2A44454C4C45544520416C6C20534D74
:10202000532A2A002A2A534D532046524F4D204509
:102030005854492A2A000000534D5320446F6E65BE
:10204000000000000FF20400FEF78DB841542B434E
:102050005343533D2247534D220000000FF204002A
:10206000FEF781B841542B43534D503D31372C314D
:1020700036372C302C300000C82002F0DFB82DE9B4
:10208000F84FDFF8744512220A21FFF77DFD04F5B1
:10209000D67504F56871FFF74EFC0FF224110FF2AC
:1020A0002C160FF230170FF23C180FF24C1902F0F9
:1020B00017FC002837D00FF25010FEF731F822221B
:1020C0001521FFF761FD04F56871FFF734FCFEF799
:1020D00027F800F0DEF808B100F0D1F800F0DEF8E3
:1020E00008B100F0ADF804F2545100F0D4F808B192
:1020F00000F0C0F804F5AD6100F0CDF808B100F0D3
:10210000AFF804F27C5100F0C6F808B100F09DF879
:1021100004F5B26100F0BFF808B100F087F800F0F4
:10212000B3F8FDF7FDFFDFF850AC14220A2150464A
:10213000FDF7DCFFDFF890BD5946FFF7FCFB0FF21F
:10214000D40102F0CDFB002837D00FF2D400FDF708
:10215000E7FF242217215046FDF7C8FF5946FFF735
:10216000EAFBFDF7DDFF00F094F808B100F087F816
:1021700000F094F808B100F063F804F2545100F054
:102180008AF808B100F076F804F5AD6100F083F844
:1021900008B100F065F804F27C5100F07CF808B159
:1021A00000F053F804F5B26100F075F808B100F0E2
:1021B0003DF800F069F801F07CB8BDE8F18F00004F
:1021C0005245432052454144000000004E554D42C7
:1021D00045523100534552564552204E554D4245C9
:1021E000523200002B3938393131343736343830F7
:1021F0003600000000000000534552564552204E64
:10220000554D4245523100007265616420534D5373
:102210000000000052454320554E52454144000005
:10222000534D5320756E7265616400000420A065F3
:102230000FF20400FDF774BF4E554D424552340075
:102240000620A0653846FDF76BBF0320A0650FF29E
:102250000800FDF765BF00004E554D424552330062
:102260000220A0650FF20400FDF75ABF4E554D4203
:10227000455232000120A0653046FDF751BF0020D5
:10228000A0654846FDF74CBF294604F2E44001F042
:1022900085BE04F59A61284602F022BB41462846D5
:1022A00002F01EBB80B50FF22000FDF739FFDFF80A
:1022B00074090121016141F28830BDE8024001F05A
:1022C000BDBF0000589E00085245534554204D495B
:1022D00043524F0038B50FF25000DFF84849CC4D5B
:1022E000FDF71EFF0020606000F026F8012200F0DC
:1022F0003BF800F021F8002200F036F800F01CF85E
:1023000000F021F800F023FD00F01EF800F018F8AE
:1023100000202060A060A06D401C0628A06502DBA4
:10232000BDE83140BEE731BD23235245534554201B
:102330004D433630232300004FF4FA6001F07EBF96
:10234000642001F07BBFAAA52846FDF70CBF000062
:10235000849F0008D89D000838380008009F0008B6
:10236000909E0008989C00084FF48071284601F068
:10237000F0BE2DE9F84FDFF8AC58DFF87CA26A68B0
:102380000FF2A4280FF2AC290FF2B42B002A0AF1A5
:10239000840498A656D12F68314600F0F6F920B192
:1023A000012F02D1022028601FE1032F27D15946B7
:1023B00000F0EBF948B9494600F0E7F928B9FFF712
:1023C0009EFD10B900F0DFF928B10FF28020FDF773
:1023D000A7FE0420286020460FF2103102F080FA98
:1023E00048B90FF2143100F0D0F920B90FF21431CE
:1023F00000F0CBF930B30FF26420FDF791FE2868AE
:1024000005281FD10FF2A02100F0BFF938B10FF25B
:102410006020FDF785FE062028600121E960204646
:102420000FF2A02102F05CFA20B90FF2AC2100F00B
:10243000ACF938B10FF24820FDF772FE0620286093
:102440000221E96068680128AED1314600F09DF9AB
:1024500020B1686B012804BF022169630FF22C21AF
:1024600000F093F90AF5D6760AF5687768B1082284
:102470000621FFF741FD00F082F902F0E4F96864FB
:10248000686B032804BF042169630FF2082100F080
:102490007CF958B30A220821FFF72EFD05F1840AC2
:1024A0003946504601F07AFD02F0CDF928645046D5
:1024B00002F0C9F9296C0A2904BF64222A640A2897
:1024C00008BF6420286530460FF2D01101F0F2F900
:1024D0005146304601F064FE4EA101F061FE00F06D
:1024E0004BF9686B052804BF062169630FF2B81128
:1024F00000F04BF940B10120E860A864E864696B22
:10250000072904BF082068630FF2B81100F03DF9F5
:1025100020B90FF2C41100F038F948B10220E86088
:102520000121A964E964696B072904BF0820686375
:10253000594600F02AF948B9494600F026F928B969
:10254000FFF7DDFC10B900F01EF940B10120A864CE
:102550000021E963686B092804BF0A2169630FF24F
:102560008C1100F012F948B90FF28C1100F00DF93E
:1025700020B90FF2901100F008F928B10FF2901075
:10258000FDF7CEFD0020A86420460FF29C1102F05A
:10259000A7F918B10FF29810FDF7C2FD0FF29C11C8
:1025A00000F0F3F878B100206863E8610FF294104E
:1025B000FDF7B6FD0120E86200212962A8610FF253
:1025C0009410FDF7D0FD0FF29C1100F0DEF840B141
:1025D0000FF29810FDF7A4FD00206863E862FFF792
:1025E0004EFDBDE8F14FFFF7F7BABDE8F18F0000EF
:1025F000415400004F4B0000000000207C9B00086D
:10260000289A000848380008449C0008D403002099
:1026100000080140250000004C970008109B0008AE
:10262000E89C0008E49B00082B435245473A2032BF
:102630002C3100002B435245473A20302C3100000A
:102640002B43475245473A20302C31004E65747772
:102650006F726B2072656164790000004E6574775B
:102660006F726B206E6F7420726561647900000078
:1026700053494D3A204972616E43656C6C0000000D
:1026800053494D3A204D4349000000002B4353511C
:10269000000000002B4342430000000042617474BC
:1026A0006572793A000000002B434F50533A2030B6
:1026B0002C302C224D544E204972616E63656C6C37
:1026C000220000002B434F50533A20302C302C2254
:1026D00054434922000000002B434F50533A20300E
:1026E0002C302C2234333233352200002B43475216
:1026F00045473A20302C32002B435245473A203090
:102700002C3200002B435245473A20322C32000035
:102710002D2D2D4E6574776F726B206E6F74207245
:10272000656164792D2D2D002B434D47530000002A
:10273000534D532053454E44000000002B434D544D
:1027400049000000534D532046524F4D20554152F1
:102750005400000041542B434D474C3D22414C4C0A
:10276000220000002B434D474C000000496E70755D
:102770007420534D530000003046FDF7D1BC39465C
:10278000304601F00BBC0FF20801204602F0A8B859
:102790002B435245473A20302C35000078B5DFF8FE
:1027A0000C5CDFF88044E96DB1F5C87F9BB007DBB6
:1027B000DFF8FC0BFDF7B4FC01212161FFF751F9B3
:1027C000E06B782807DB0021E1630FF28410FDF74E
:1027D000A7FCFFF77FFDA16B606B3C295BA607DBC5
:1027E00040B900F015F9012000216063A163A2E067
:1027F00003290ADB012808D10FF26810FDF790FCCD
:1028000000F0FEF8012100F006F9616B0FF268108C
:10281000022907D1FDF7A7FC00202063A063032055
:1028200060638FE0032909D1A16B032917DB216BBA
:10283000491C00222163A263FDF795FC606B0FF237
:102840004016042806D10FF24010FDF769FC052060
:1028500000F0DAF8606B052808D1A06B03286ADB6A
:1028600000F0CEF80021A16300F0D2F8606B0FF207
:102870003046062806D100200721A063206361634B
:1028800000F0C6F8606B07280BD1A06B032852DB61
:102890000FF20410FDF744FC00F0B2F8072100F03D
:1028A000BAF8606B0FF2AC36082806D10FF2FC00C4
:1028B000FDF736FC092000F0A7F8606B09280BD162
:1028C000A06B032837DB0FF2F800FDF729FC00F0BE
:1028D00097F8092100F09FF8606B0A282BD100219E
:1028E0006163A1632163E1630121A16405F5D676EB
:1028F0000FF2DC00FDF714FC636C226C0FF2E801B0
:10290000304600F0D7FFFFF737FF0020E86564206E
:10291000616C41431F2291FBF2F26265E06D01F0B0
:10292000D5FCCDE90001206E01F0D0FC00F036FBB3
:1029300002A8FDF7F5FB206B032803DB00212163D0
:10294000FFF7C8FC1CB070BDE898000841540000B7
:102950002153696D2063617264204572726F722128
:10296000000000004D43363020436865636B20450E
:1029700072726F720000000041542B4353510000EB
:1029800041542B43424300002A2A2A414E54454ECB
:10299000204F4B2A2A2A00002D53494D20434152F3
:1029A00044204552524F522D000000002A2A2A533B
:1029B000696D2043617264204F4B2A2A2A0000006F
:1029C0002D4E4554574F524B204552524F522D00D9
:1029D0002A2A2A4D43363020434845434B20444F52
:1029E0004E452A2A2A0000004D4336305F424154AA
:1029F0003D256420414E54454E3A256400000000B8
:102A0000206B401C2063704760630021A163216339
:102A10003046FDF7A8BB0020A06361633046FDF798
:102A2000A2BBF8B57F4CDFF8906920684FF4917530
:102A3000B8B90FF20020FDF773FB0021716006F1B9
:102A40000C00294601F062FF00203080FFF77BFC7C
:102A5000FFF776FCFFF778FC0020A06001212160E1
:102A6000F1BD012808D1A0680328F9DB0FF2D810C6
:102A7000FDF756FBFFF72EFC20680FF2D81702284F
:102A800018D10021A1650FF2D810FDF749FB0020F5
:102A9000B0600321A06021600FF2CC10FDF763FB52
:102AA00000F055F90FF2CC10FDF75DFB00F04FF987
:102AB00000F04AF92068032815D1A068032822DB1A
:102AC0000FF2BC10FDF72CFB00F03EF9B068401C83
:102AD0000F28B06005DB0FF2B810FDF721FBFFF700
:102AE000F9FB0020A06020680FF2B41704280BD176
:102AF0000FF2B810FDF714FB00F026F900200521B5
:102B0000A0602160B060F1BD052811D1A068012846
:102B1000F9DD0FF2A410FDF703FB00F015F900201A
:102B2000A060B068401CB0600428C8BFFFF7D2FBAB
:102B30002068062874D10FF290100FF29817FDF755
:102B4000EFFA0FF29C10FDF70EFBFFF7F9FBFFF712
:102B500079FAFFF7F5FBFFF781FAFFF7F1FB0FF2C8
:102B60008C10FDF700FBFFF7EBFB00F0EDF8FFF733
:102B7000E7FB0FF29010FDF7F6FAFFF7E1FB00F02C
:102B8000E3F8FFF7DDFB0FF29410DFF82078FDF794
:102B9000EAFAFFF7D5FB0FF28C10FDF7E4FAFFF726
:102BA000CFFB0020E0620FF28410FDF7B9FA00209D
:102BB000B0602060A060FFF7C3FB0020F865012132
:102BC000616070602946DFF8280B01F09FFE40F23B
:102BD000271107F1840001F0A1FE0020308036218A
:102BE000A163FDF732FDFDF74CFED7F88000012808
:102BF0000DD10021C7F88010B96507F575700FF287
:102C00003C1100F057FEFEF7CBFAFDF796FDBDE84C
:102C1000F84001224FF40051DFF88C0B01F099BA13
:102C2000F1BD000058090020D42C0008EC2C00084D
:102C3000042D00084D4336302046697273742053CA
:102C400074617274000000004E6F20526573706FE3
:102C50006E73650041542B435245473F000000000E
:102C60004D433630204F4B0041542B434F50533D82
:102C70003000000041542B4346554E3D31000000CA
:102C80004E6574776F726B204572726F7200000030
:102C90002D2D5265736574204D6336302D2D000047
:102CA00041542B434F50533F0000000053696D20A7
:102CB000636172643F00000053696D204361726478
:102CC000204572726F720000436F6E666967204D17
:102CD0004336300041542B434D47443D312C3400A2
:102CE00041542B434D47463D3100000041542B4396
:102CF000504D533D224D45222C224D45222C224D34
:102D00004522000041542B43504D533D22534D2248
:102D10002C22534D222C22534D2200004154453089
:102D20000000000041542657000000002A4D4336A1
:102D3000302072656164792A00000000434F4E46DE
:102D400049472050554D50003846FDF70CBAFA203F
:102D500001F074BA10B5DFF8544A606808B9FFF79B
:102D600060FE6068012805D1FFF718FDBDE810403E
:102D7000FFF7C9B810BD0000840000202DE9F84F0E
:102D8000DFF8287ADFF8281A386EDFF82046DFF8F7
:102D9000245ADFF8249A0FF6A02ADFF8208ADFF8F9
:102DA000206A01F06BFA39D23268012A36D1DFF895
:102DB00014BA00F05EFA00F05CFA002030600FF206
:102DC000D400FDF7ADF94146FEF7F0FEA06E0128F4
:102DD00019D100F074F808B900F068F85146484677
:102DE00001F07EFD10B9022000F061F85146FFF7B6
:102DF00052FA10B9032000F05AF800F05BF810B94D
:102E0000042000F054F8FEF72CFE00207060012131
:102E1000B160A06E012808BFFDF7F9F9386EDFF840
:102E2000A81901F03FFA32D8306800282FD10121CB
:102E300031600FF26C00FDF773F908F14801FEF7FD
:102E4000B5FEB068012820D1A06E012819D100F08C
:102E500036F808B900F02AF85146484601F040FD1E
:102E600010B9022000F023F85146FFF714FA10B908
:102E7000032000F01CF800F01DF810B9042000F049
:102E800016F8FEF7B9FA0120386100217160BDE83B
:102E9000F18F0000506F776572204F66660000006A
:102EA000506F776572204F6E000000000120A06512
:102EB000FEF7F8B9514604F5B26001F011BD514674
:102EC00004F2545001F00CBDA003002010B5DFF84F
:102ED00000496088DFF8D44801F024FDDFF8F418D9
:102EE00001F02EFDDFF8F01801F096FDDFF8EC1888
:102EF00001F092FD01F0EAF94FF06632DFF8E038B8
:102F000001F016FE01F0D2FBE06510BD10B5DFF850
:102F1000C048208801F006FDDFF8B81801F010FD68
:102F2000DFF8B41801F078FDDFF8B81801F074FD8F
:102F3000DFF87818086610BD30B5DFF89448E06B0C
:102F400001288FB028D16069DFF8605844F620610D
:102F500090FBF1F1218044F62061A069002290FBF2
:102F6000F1F162616180A261FFF7D0FFFFF7AEFF70
:102F7000686E05280EDB00226A66E86D01F0A6F98E
:102F8000CDE90001286E01F0A1F900F007F802A8D0
:102F9000FDF7C6F80020E0630FB030BD02460B46D7
:102FA00001A102A800F086BC566F6C746167653A97
:102FB00020252E3266207C2043757272656E743A2D
:102FC00020252E32660000002DE9F843DFF8DC777B
:102FD000DFF8D843F86EDFF8EC87DFF80C58DFF83D
:102FE0000C68142804F575793DDBF86D314601F065
:102FF00059F93BD84FF03F4101F070FEE066FDF714
:10300000E0FAF86D4FF0804101F068FE2067FDF7AF
:10301000DAFA0120A0652946484600F04BFCFEF78D
:1030200041F9FEF71CFDE06E01F050F9FEF770FD6E
:10303000484600F03FFCFEF7B3F8FEF710FD206FA6
:1030400001F044F902460B460FF2FC71484600F0CD
:1030500031FCFEF7A5F80020F866B86600222021B2
:10306000404601F076F8F86E142816DBF86D31460C
:1030700001F004F911D20120A06505F1B401484620
:1030800000F018FCFEF70EF9FEF7EBFC4046BDE839
:10309000F8430022202101F05CB8BDE8F1832DE95E
:1030A000F84FDFF80847DFF84417E26DDFF84057C4
:1030B000BE4E104601F0F6F800F2C180F06E1146E7
:1030C00001F0F0F80AD8206FD4F88010084305D139
:1030D000012020670FF28870FDF722F8E16DF06E95
:1030E00001F0CCF80CD20846316F01F0C7F807D2D6
:1030F000206F012804D100212167616700F0BEF82C
:10310000606F3188DFF8B076DFF8E8860FF2287953
:10311000DFF8E4A6DFF8ACB6884237DBD4F88000ED
:10312000002833D10021616720670121C4F8801095
:1031300000F09FF800F098F8FFF709FE00F0A5F8FE
:10314000FEF74AFB514606F5757000F0B3FB00F040
:10315000ACF808B900F084F84946384601F0C0FBE5
:1031600010B9022000F07DF800F09AF810B90320A1
:1031700000F077F800F08FF810B9042000F071F833
:10318000FFF7DAF8FDF743F800202860E06D316FB3
:10319000D4F8802001F086F804D8A06F104304BF53
:1031A0000121A167E06F042837DD002A35D1002016
:1031B000A067E0672021FDF7E9FD584600F0C9FF50
:1031C00000F052F8FFF7C3FD00F05FF8FEF704FBD4
:1031D0000AF1780106F5757000F06CFB00F065F8F7
:1031E00008B900F03DF84946384601F079FB10B9BE
:1031F000022000F036F800F053F810B9032000F078
:1032000030F800F048F810B9042000F02AF8FFF771
:1032100093F8FCF7FCFF00202860E16DF06E01F0F0
:103220002DF80CD20846316F01F028F807D2A06FB4
:10323000012804D10021A167E16700F01FF8D4F84C
:10324000800001280AD129687088814206DB0021AC
:10325000C4F8801029600FF22C602AE0BDE8F18FDD
:103260000120B065FEF71EB800224021584600F04C
:1032700070BF00222021584600F06BBFC4F88010B8
:1032800029600FF2E850FCF74BBF0020716E3066EA
:10329000C9B2FDF79EB9494606F5B26001F020BB00
:1032A000494606F27C5001F01BBB4946404601F0FE
:1032B00017BBBDE8F24FFCF733BF10B5FFF73CFE7C
:1032C000DFF8E844A06E012808BFFFF77DFEA06E7E
:1032D00050B9DFF82805016E01291CBF406E012896
:1032E00002D1BDE81040DAE610BD0068DFF8101525
:1032F000884200D0704710B5DFF808154A8840F2C0
:1033000021108242A4BF00234B804A8882420ADAFD
:103310004888DFF8DC33441C4C8001240A781A54B6
:1033200000204865CC640122BDE81040DFF8D804D5
:1033300000F078BBF8B501F083FDDFF8C8140A6D22
:10334000821A642A03D30865486D401C4865486D9D
:10335000022829DDC86C012826D10022E44CDFF8C0
:10336000AC540FF230564A65009412A70BE00346A6
:10337000324640F22711284601F068FD2846FCF746
:10338000DBFEFEF7F6FF00986A46394601F080FD45
:103390000028ECD1DFF86C54E8644FF491712046BA
:1033A00001F0B4FA00206880F1BD000000000020A8
:1033B000A89F00080D0A0000600600202DE9F841D2
:1033C00089B001F083FD00F0A2F9684600F0DEF953
:1033D000DFF83C54DFF8D0436868DFF8E863DFF8D3
:1033E000347440F010006860686800F010000490C9
:1033F0000498696841F020016960686800F0200065
:1034000004900498696841F004016960686800F0FC
:10341000040004900498696841F0080169604FF461
:103420000051686800F0080004900498FEF742FB21
:1034300000224FF4B071304600F08BFE0022E021F4
:10344000384600F086FE012101914FF4005000F053
:1034500051F9204600F0AEFD012101914FF4B0700A
:1034600000F048F9304600F0A5FD0021019101224D
:103470004FF480540292009400F045F94FF46040FC
:10348000002100900191022200F03CF94FF4C0505D
:10349000002100900191022202926946304600F01C
:1034A00089FD01210191202003210090002200F0DC
:1034B00028F911210191C02003210090012200F080
:1034C00020F9286840F0010028602968BF4D01F00C
:1034D000010100910022009800210B2001F01FFD46
:1034E0000B2001F039FD684600210022002380E80E
:1034F0000E00C94929604FF480704FF46021E961E2
:10350000A860012202212A732B756B60296128466D
:1035100001F04AFD08B100F08DF900200121009072
:103520000191072202926946284601F03CFE08B14B
:1035300000F080F90120022100900191284669469F
:1035400001F031FE08B100F075F902A80021002257
:103550000023002680E84E00CDE9001241F61F400E
:10356000AE4EAF497060316042F21070F060B260F0
:1035700032617261B261304601F034FF08B100F08F
:1035800059F9029402A9304602F093F808B100F00C
:1035900051F90020009001906946304602F0F8F998
:1035A00008B100F047F9954C954860600C21002067
:1035B000E06020616061E06120624FF41658A16113
:1035C000C4F80880201D00F09FF908B100F032F91E
:1035D0008C4F9448786000210C20B861F960396103
:1035E0007961F9613962C7F80880381D00F08CF9FB
:1035F00008B100F01FF90021CDE9001102A81C213B
:1036000001F084F98848B0646421F16400203065D9
:10361000C821B0653066716506F1480001F02EFFE3
:1036200008B100F007F9002000900190694606F10A
:10363000480002F0ADF908B100F0FCF8602000216C
:103640000290039100220691049202A906F148001B
:1036500001F0CDFF08B100F0EDF806F1480002F0EE
:1036600055FA7248E064052140F6FF7060652165F7
:1036700004F14C0001F003F908B100F0DBF806F1A9
:1036800090006B490160002242605F237F214FF46C
:1036900000728360C160026102F0F4FA08B100F0C8
:1036A000C9F8012000F0CAFD022204F2CC512846DC
:1036B00001F0F4FC304601F0A2FE01223946201D43
:1036C00000F0B0F90FF2D410384DFCF729FDFCF7EB
:1036D000F1FDFFF72FFEFFF73DFB6868012803D1DE
:1036E000FFF74CFBFFF7E9FDFDF78AFEF1E700006D
:1036F0009007002002210090002203910292694667
:103700007047039102926946384600F053BC18B5E1
:1037100093B0282109A801F0F9F81421684601F0B6
:10372000F5F805A800F032F80921099101234FF4BA
:1037300080310A910D930F93119102234FF4E01100
:103740000B921093129109A802F0C2FA08B100F08E
:1037500071F8022101910F204FF4806100900391D4
:10376000029404940221684602F031FC08B100F092
:1037700061F8022005904FF40041079105A802F07E
:10378000F9FC08B100F056F814B010BD0021002279
:103790000023002480E81E007047044A11690029B4
:1037A00008BF02F083BA704700100140580900209A
:1037B0000000E0407C050020680500209C9A00087D
:1037C000F40A0020000801400100E040C40A002083
:1037D000840A00203333534000F07F457B14AE3D14
:1037E000666606408195C33DFC9400089A99993E0F
:1037F000000B00205405002048960008000000201F
:1038000000380140E8090020040000208400002066
:1038100014100240000C014000240140B4080020B4
:10382000002C0140004400400004004000300040F3
:10383000002C004072B6FEE72B393831313131317E
:1038400031313131000000004F76657220437572CE
:1038500072656E743A20252E326620410000000009
:1038600048617661204B6573686900004375727228
:10387000656E74206F6B20616E64205265616C69A7
:103880007A65000054696D65205265616C697A65DE
:103890000000000025730D0A000000002A2A2A2AD1
:1038A00053746172742050726F6772616D2A2A2A94
:1038B0002A0000000CB430B583B00A4606A9029174
:1038C000044600250194009502AB01A908487844FC
:1038D0001E3002F0C6FC019A157000284EBF044647
:1038E0000198041B204603B030BC5DF80CFB00BF00
:1038F0002310000000F1010310F8011B11B110F8B2
:10390000011BFBE7C01A704738B5040001D1012044
:1039100032BD04F14005687808B900F011F800F0F4
:1039200014F800F023F8FFE7416100F018F8686030
:10393000202169702020A87000216163002032BD21
:1039400000212970204602F00DB9242068702068FB
:10395000C16821F40051C160204600F0DEBA206841
:10396000C16841F40051C1600020704720680169BE
:1039700021F4904101612068416921F02A017047DA
:103980002DE9FC4106460D4696F8410020281446D4
:103990001F4640D10DB1200001D101203CE00020A4
:1039A0007064212186F8411001F04AFAB4848046FF
:1039B000F48400F033F804BF306900281ABF2C46A5
:1039C0000025002412E000228021304600F0C2F9D8
:1039D000E0B93068002C12BF14F8011B35F8021B47
:1039E000C1F308014160F08C411EF1844346F08C24
:1039F00000970028E7D100224021304600F0AAF9C4
:103A000020B9202086F84100002005E0202086F81B
:103A10004100032000E00220BDE8F681B068B0F567
:103A2000805F704710B500F130039C7C202C0AD1D8
:103A300009B1140001D1012010BD00241C60BDE8B3
:103A4000104000F0C4B9022010BD216801F1140338
:103A500053E8001F206800F1140221F0400142E801
:103A600000100028704721F0100142E800100028E3
:103A70007047F8B504462268136811460846CD68B9
:103A8000466913F00F0F03F0200105F0200007D165
:103A9000002918BF00285DD02046BDE8F240D5E1DE
:103AA000F70702D415F4907F54D0DA0705D5ED0559
:103AB00003D5626C42F0010262645A0705D5F5072E
:103AC00003D5626C42F0020262649A0705D5F507DD
:103AD00003D5626C42F0040262641A0706D508B985
:103AE000F20703D5636C43F008036364626C002A39
:103AF0002FD000291EBF0028204600F0A7F920681B
:103B00004069616C0A0701D440061DD5204600F0CB
:103B100079F920684169480611D5FFF796FFFCD175
:103B2000E06B60B10FF215314163E06B03F099FB7C
:103B300000280ED0E06B416BBDE8F44008472046FA
:103B4000BDE8F24003F09BBC204603F098FC002047
:103B50006064F1BD206B012804F1410140F09680C2
:103B6000D80600D5EE0640F191800023009312683C
:103B7000009223685A680092009822685369580698
:103B800046D5E26B1068406880B20028E1D0A38D72
:103B90009842DEDAE0859069202831D0226802F16F
:103BA0000C0555E8002F206800F10C0322F4807208
:103BB00043E800200028F1D100F0A8F8520800F1F5
:103BC0001403520043E800200028F5D100F09EF8CD
:103BD00000F1140322F0400243E800200028F5D150
:103BE0002020487000212163226802F10C0151E875
:103BF000001F0C32FFF737FFF6D1E06B03F00CFB30
:103C000002206063A18DE08D091A89B2204639E057
:103C1000A38DE28DE08D9B1A00281CBF98B200286E
:103C200073D02246146804F10C0656E8004F106861
:103C300000F10C0524F4907445E800400028F1D10F
:103C4000146804F1140656E8004F1068640800F187
:103C50001405640045E800400028F1D12020487098
:103C600000211163146804F10C0151E8001F0C34A9
:103C700021F0100144E800100028F3D10220506325
:103C800099B21046BDE8F44003F0FABB18062BD5F4
:103C90002A0629D50878212837D1A068B0F5805F99
:103CA00004BF2069002809D1226A21681088C0F366
:103CB00008004860206A811C216205E0206A411CDE
:103CC0002162226800785060E08C401EE08480B25F
:103CD000D8B92068C16821F08001C1602068C1683E
:103CE00041F04001C160F1BD58060ED56A060CD501
:103CF0002368D8681A4620F04000D0602020087061
:103D00002046BDE8F24003F0BCBBF1BD226802F1E1
:103D1000140555E8002F20687047026802F10C0472
:103D200054E8002F016801F10C03704742F00102D2
:103D300043E8002100297047026802F1140454E8A6
:103D4000002F0168520801F11403520043E80021DA
:103D5000002970472DE9FC41089C05460E46904617
:103D60001F46286801683140B1420CBF0120002085
:103D700040452AD114F1010FF3D001F061F8C01BC6
:103D8000844200D314B90320BDE8F6812968C868CD
:103D90004207E6D5802E18BF402EE2D008460268C2
:103DA0001307DED5002000902B681A68009249683E
:103DB00000910098284600F025F805F14000082100
:103DC0004160002202700120DEE70020DCE7816212
:103DD0008285C28500214164222280F84220016947
:103DE00021B10168CA6842F48072CA6001684A69F8
:103DF00042F001024A610068C16841F02001C160DF
:103E00000020704710B5FFF788FF22F49072FFF78B
:103E10008FFFF8D1FFF790FFFCD1016B012906D18C
:103E2000FFF77BFF22F01002FFF782FFF8D120217D
:103E300080F842100022026310BD0000406A002199
:103E4000C1850022C28403F01ABB00001CB590F8A3
:103E50004210222952D18168826AB1F5805F0AD16D
:103E6000016969B903685968C1F308011180826A60
:103E7000911C81620FE0002904BF0169002902D171
:103E80000368596803E00168496801F07F01117017
:103E9000816A4A1C8262C18D491EC18589B259BBA3
:103EA0000168CA6822F02002CA600168CA6822F468
:103EB0008072CA6001684A69520852004A61202132
:103EC00080F8421000224263016B012912D1026383
:103ED00000F016F801680A68D30607D500220092A0
:103EE0000B680093046862680092009B818D03F068
:103EF000C7FA01E0FFF7F9F9002016BD022016BD50
:103F0000036803F10C0252E8002F0C3322F0100278
:103F100043E800210029F3D1704710B50446226818
:103F20001169E06821F4405101431161D3681948D7
:103F3000A168034020690B43616903430B43D360CD
:103F400015495369A06923F4407303438A425361BE
:103F500002D102F0E3F801E002F0D8F8626819211A
:103F600048439200B0FBF2F16423B1FBF3F26FF02F
:103F7000630000FB021109013231B1FBF3F000F0E4
:103F8000F00101EB0211226800F00F004018906070
:103F900010BD0000F3E9FFFF003801405FEA000CAC
:103FA00011F8012B00F8012B12B111F8012BF9E7E0
:103FB000604670472DE9F84F00239E466B4CDFF8B2
:103FC000B0816C4EDFF8B0B14FF00F0902460CE043
:103FD00025682840206007E0C4F804C04F68FF034C
:103FE000F6D52068054325605B1C0D6835FA03F0A3
:103FF00000F0AD80012000FA03FC0CEA05056545E0
:10400000F2D1486858B301281AD002281FD00328DB
:1040100033D0112817D012281DD0584FB8421CBFDA
:10402000574FB8421BD0574FB8421CBF564FB842EB
:1040300015D0564FB8421CBF554FB8420FD01EE0A6
:10404000D1F80CE01BE0C86800F1040E17E0C86866
:1040500000F1080E13E0C86800F10C0E0FE088684C
:1040600010B94FF0040E0AE001284FF0080E14BFFB
:10407000C2F814C0C2F810C001E04FF0000EB5F550
:10408000807F03D210464FEA830C04E0A3F10807B7
:10409000101D4FEA870CD0F800A009FA0CF72AEAA5
:1040A00007070EFA0CFC4CEA070CC0F800C0486881
:1040B000C00099D5376847F0010737609F00306826
:1040C00000F00100009007F00C0C0098980858F8D8
:1040D00020A009FA0CF72AEA070A5A4508BF002768
:1040E0000ED02C4FBA4208BF012709D02A4FBA423E
:1040F00008BF022704D0294FBA420CBF0327042768
:1041000007FA0CF747EA0A0C48F820C0E8434F6862
:10411000D4F808C0FF024CBF45EA0C0C00EA0C0CB6
:10412000C4F808C04F68D4F80CC0BF024CBF45EAC1
:104130000C0C00EA0C0CC4F80CC04F68D4F804C096
:10414000BF034CBF45EA0C0C00EA0C0C44E7BDE889
:10415000F18F02B9090401617047C26801EA0203E4
:10416000914341EA034101617047000000040140AE
:104170000800014018100240000801400000111022
:104180000000121000002110000022100000311069
:1041900000003210000C01400010014000140140EA
:1041A000034600E05B1C1A78002AFBD111F801CB12
:1041B00083F800C013F8012B002AF7D17047F0B440
:1041C0000246106895681318506803EB5004C00746
:1041D00048BF4D44A3422DD013F8016B16F00300E5
:1041E00004BF13F8010BC01C31090F2907D113F8C4
:1041F000011B0F3103E013F8017B05F8017B401E22
:10420000F9D10029E6D013F8010BC6F38106032E7D
:1042100008BF13F8016B00EB06204042284400263B
:10422000B71E8F421EBF10F8017B05F8017B761C7C
:10423000F6D1CFE7F0BC02F10C00704738B5044668
:1042400000F0FEFD14F1010F054602D00449087884
:10425000041900F0F5FD401BA042FAD331BD00BFA8
:10426000D00500204AB1000011F8013B521E00F8B1
:10427000013B1CBF11F8013BF8E7704740EA010C15
:104280001CEB0C0F4FF0807C07D305D01CEB400FCC
:104290009CBF1CEB410F814270471CEB410F98BF44
:1042A0008842704740EA010C1CEB0C0F4FF0807CF9
:1042B00007D305D01CEB400F9CBF1CEB410F88427D
:1042C00070471CEB400F98BF81427047C0F3C75145
:1042D00081B1FF2906D0C110400721F0E04101F172
:1042E0006051704741020CBF40F4E0016FF00041A3
:1042F0000020704700F0004100020AD0B0FA80FCB4
:1043000000FA0CF001F16051A1EB0C5101EBD0214E
:104310004005704738B504000D460BD029462046AD
:1043200003F0B0F80444207848B90C48002101603B
:10433000002032BD09490C68002CEFD132BD29465E
:10434000204603F0B0F82118087810B1002201F8D7
:10435000012B02480160204632BD00BF080B00203F
:104360000DB41EB506A801900A460024009401ABC6
:1043700005A9044878440C3003F0CEF803B010BC13
:104380005DF810FB0B0300002DE9FC4D1600824682
:104390008B461F4600F0D5803BF0004108BF002847
:1043A00000F0CF804FEA4B02521512F1010F08BF07
:1043B0005FEA0B3000F0C5800020002EA94954D5DB
:1043C0007642624D7D4405F5C275082408E0F20787
:1043D00044BFD5E9002300F0ABFB76080835641E26
:1043E000002E18BF002CF2D104460D466A465046F6
:1043F000594603F027FFDDF8008022462B4603F0E4
:1044000059FF424604F07AF882468B462AF00002B1
:104410003BF0004308BF002A7CD04FEA4B0149150E
:1044200011F1010F0CBF5FEA0B30002E72D0504625
:1044300059466A4603F006FF009C8B4A8B4B00F0FE
:1044400077FB224604F05AF820F0000431F00045D2
:1044500008BF002C5CD04B005B1513F1010F01D19C
:104460000A0355D0761EE4D152E053DD374D7D442A
:1044700005F1DA050824F20744BFD5E9002300F06E
:1044800057FB76100835641E002E01DD002CF2D19A
:1044900004460D466A465046594603F0D3FEDDF801
:1044A000008022462B4600F043FB424604F026F8EB
:1044B0008B4682463BF0004108BF00282AD04FEAD5
:1044C0004B02521512F1010F08BF5FEA0B3021D0E9
:1044D000002E1FDD504659466A4603F0B3FE009C8D
:1044E000634A644B00F024FB224604F007F820F0F6
:1044F000000431F0004508BF002C09D04B005B15CB
:1045000013F1010F01D10A0302D0761E002EE3DC65
:1045100082468B462AF000003BF0004108BF00288D
:1045200008D04FEA4B02521512F1010F08BF5FEAA3
:104530000B3006D1AFF300801FB1386840F00100A6
:10454000386050465946BDE8FC8D00BFC458000095
:104550002DE9F84909B486B00C4615460BB1002187
:1045600019602146069E06A804F065F8C71020F0E1
:104570000800012807F0010704952FD102200090C0
:1045800001AB06992246304604F0E6F8040002D159
:10459000002000211DE0029804F0BAF9022C18DB7B
:1045A0000DF10C08661EDFF8D0B002460B46002065
:1045B000594600F0BDFA044658F8040B0D4604F0C5
:1045C000A7F922462B4604F0B5F9761E02460B46A3
:1045D000EDD1049A019C079BA2182CE002282DD152
:1045E000009001AB06992246304604F0D3FA04004D
:1045F00002D10020002119E0029804F089F9022C70
:1046000014DB0DF10C08661EDFF870B000225B466B
:1046100000F08EFA044658F8040B0D4604F078F9C1
:1046200022462B4604F086F9761EEFD1019A03F05C
:1046300065FF079B049AFFF7A7FE0CE0032802D151
:1046400000200F4907E0042807BF4FF0FF306FF04C
:104650000041002000210FB181F0004109B0BDE808
:10466000F08900000000F03F436FAC642806C80AE0
:104670003CBF737FDD4F157565CDCD410000B04166
:104680000000F07F002363E700220021FAE70368BF
:104690001AB95A1E026008467047197811B94FF0CE
:1046A000FF307047591C01601878704701F00042D4
:1046B0008B1AA3F16051B1F5801F0ADBB1F17F6F56
:1046C0001FD242EAC102C10071F1004142EB5070B9
:1046D00070470B15C3F10903212B10D2890241EA5F
:1046E000905180020128494141F0004121FA03F034
:1046F000C3F12003994071F100415041704710000F
:1047000070476FF0000013EB103F5CBF000E42EAF1
:10471000C05070472DE9F84F84B0894615460BB15B
:1047200000221A600446274600E07F1C387804F017
:1047300037FB0028F9D138782D2816BF2B2817F819
:10474000018B4FF02B08002DCDF8049003D4012DE0
:1047500001D0252D05DBB9F1000F4DD0C9F800407F
:104760004AE0002D0ADD102D04BF3878302802BF42
:10477000787840F0200078280ED10AE03878302888
:1047800018BF0A2508D1787840F02000782802D197
:104790001025BF1C00E00825039700E07F1C387837
:1047A0003028FBD0DFF818B0FB440BF1140B4FF0AE
:1047B00000090BF128000297CA468DF800000AE0B4
:1047C0007855000006469DF80000361ACA46F6B233
:1047D00005FB09697F1C387804F0ECFA01462A468B
:1047E0000BF1280004F0F0FA0028EBD10399B9424C
:1047F00004D1019800B10460002020E002991BF868
:104800000500791A091A002910D406DCB9EB06064E
:1048100003D3B6FBF5F0504508D0AFF30080049801
:1048200008B1012101604FF0FF3904E0B8F12D0F0C
:1048300008BFC9F10009019800B10760484605B0FA
:10484000BDE8F08F03E0FFE70A220021FAE700232A
:1048500060E78268521C8260426832B10268531C71
:10486000036011704168491E4160704710F8012BC8
:1048700011F8013B0AB19A42F8D0D01A704738B506
:10488000040001D1012032BD20684CF6CC4101600A
:1048900045F25552026063684360A168816000F090
:1048A000CFFA05462068C16811F0030F0DD000F063
:1048B000C7FA401B41F23D318842F3D32068C168FA
:1048C00011F0030FEED0032032BD4AF6AA21016099
:1048D000002032BD00684AF6AA210160002070471E
:1048E00070B50D462C7834B970BD11F8013F1678BB
:1048F000B34206D0401C214604F092FA28B101468A
:104900002A4612F8013F002BEFD170BD002204F0BF
:1049100093BA0268531C036011707047002204F0C0
:10492000A5BA2E0050B1B0FA80F18840C1F19D01C6
:10493000C905020672F1004241EB102070474300A6
:10494000FF2212EAD05C1DBF12EAD1539445934274
:104950002BE09C44D30780EA010243EA002043EAAB
:1049600001211A40A1FB0030C04238BF00187CF181
:104970007F010BDBFE294ADA5B0842EAC15153EAA8
:10498000006373F1004C51EB10207047D1F1080C1B
:10499000DCF120012FDB5B0810FA01F10B4320FA58
:1049A0000CF073F100415041704794451CBF02EA7E
:1049B000D153934280EA010202F000421DD0400030
:1049C00019D0490017D05BB9634514D00902B1FA78
:1049D00081F39940BCEB030CC00140F00040C1E7FB
:1049E0000002B0FA80FC10FA0CF0B3EB0C0CC90119
:1049F00041F00041B6E71000704740000AD049007E
:104A000008D010F1807F94BF11F1807F02E042F066
:104A1000FF407047D04370474FF0FF0C1CEAD05363
:104A20001DBF1CEAD1526345624543E09B1A5FEA11
:104A3000CC7280EA010C42EA01211CEA020C42EA33
:104A40000020421A38BF01EB420253F17E034FEAC5
:104A50001121B2FBF1F001FB102260F3D63C4FEACA
:104A60000222B2FBF1F001FB102260F3CE1C4FEAF0
:104A70000222B2FBF1F006DDFF2B29DA5CEA5000DE
:104A800040EBC3507047C3F1020301FB1022192B06
:104A900040EA4C010CF0004C41F0807121DC21FA1D
:104AA00003F0C3F120039940114371F1004250EB30
:104AB0000C00704763451ABF0CEAD152624512E000
:104AC00080EA010C00180CF0004C06D049181AD1ED
:104AD0000CF0004C4CF0FF407047C94208BF6FEA31
:104AE000020C60467047634506D1B2EB0C02F5D06C
:104AF00001F00041484070474A0212BF0846484052
:104B000000F0004070474AB90902B1FA81F29140C1
:104B100043B19B18C00140F0004092E7C90141F049
:104B2000004152420002B0FA80F39840D31A88E75D
:104B300030B540F2FF7C1CEA11541DBF1CEA13552E
:104B4000644565453FE0641981EA030C6FF35F53E8
:104B50000CF0004C43F48013C90241F0004141EADB
:104B6000505EC5021100A5FB020200284FF00000B4
:104B7000EEFB01204FF00001E3FB052118BF42F0DE
:104B80000102401800214941E3FB0E01A4F58064B5
:104B90000D0302D292184041494154F1010470DDE5
:104BA000450872F1004250F1000051EB0451A1F5AB
:104BB000801102D441EA0C0130BD40F2FF7E4CEA84
:104BC0000E51002030BD0CEA1355644518BF6545F1
:104BD00081EA030C0CF0004C41D050EA410E1CBF9E
:104BE00052EA430E02E06146002030BD24422C44CC
:104BF0001BD15FEA050EF6D0090302BF0146002073
:104C0000AEF1140EB1FA81F5AEEB050401FA05FE22
:104C10000C35C5F1200100FA05F5C8404EEA000E3A
:104C20006FF35F5343F480139CE733F00043B3FA10
:104C300083F504BFB2FA82FE75440B3D641BB5F1E7
:104C4000200E2FBF02FA0EF3AB40C5F1200E22FA60
:104C50000EFE38BF43EA0E03AA40641C7CE750EA0C
:104C6000410E14BF52EA430E6FF000014FF40015DD
:104C700015EB430F8EBF194615EB410F9DE7B4D8D6
:104C800030BDD4F10104B4F120050FDAC4F12005E0
:104C9000520828BF42F0010210FA05FE01FA05F59C
:104CA0007244E2BFE0402843E1400FE0352C9ADC3B
:104CB000C5F1200452EA400220FA05F218BF42F082
:104CC000010231FA05F0A1400A43002172F10042CD
:104CD00050F1000051EB0C0130BD000090EA010FD3
:104CE00040F16C8081F00041431A4FF000423EBF1A
:104CF0005340C01AC918D3095FEAD05C13EB400FC8
:104D000034BFB3EB410F40E07CEBD1530CD342EA0C
:104D1000012122D8D1EB402009D3400A28BF5FEA05
:104D2000500140EBCC507047401A15D04002B0FA09
:104D300080F2521C9040400A4FEA3C23B3EB0263DE
:104D400084BF00EB730007E040F400001A16DB0795
:104D5000C2F10102D04018437047182BFCDC31FA35
:104D600003F202FA03F3591A38BF42F00102D2EB00
:104D700040203CBF0018ACF1010C5FEACC5CC205DE
:104D800072F100414CEB5020704713EB400F0FD2F3
:104D9000C94209D0ACEBD153022B03DB4902172BDC
:104DA000DDDD70479143401AC042D5D100207047E5
:104DB00013EB410FD0D36FF000007047421A3CBF95
:104DC000801A8918C0F3C752FF2A4FF0004C22D036
:104DD000C1F3C7534BB3D21AD2F119032EDD4CEAFB
:104DE00001214CFA03F321EA0303D1404CEA0022EB
:104DF0006FF3160052180FD353EAC2534CEA520213
:104E000073EB0C0C50EB1220420012F1807F38BF84
:104E100070476FF31600704753EA026322EA0C02F0
:104E200073EB0C0C50EB12207047490212BF9A42F0
:104E300000EB5120EFE7D2F11703D2D57047000005
:104E400001484068704700BFD005002008B410B585
:104E500085B007AB00240493039400290EBF01948E
:104E60000190491E0291009404AB01A907487844BF
:104E70001A3001F0F6F9019901B10C70002858BF01
:104E8000039805B010BC5DF808FB00BFC7F9FFFF31
:104E900070B504000E46154608BF2C68204602F087
:104EA000F1FA0444207810B907A1296070BD314699
:104EB000204602F0F8FA2118087810B1002201F813
:104EC000012B2960204670BD0000000080B5074816
:104ED000016841F010010160032000F016F80F2076
:104EE00003F0CEFF00F086FD002002BD002002404E
:104EF0000901020002D4264881547047254B02F074
:104F00000F021A4402F8041C704723490A6860F330
:104F10000A2240F2FA5060F31F420A60704770B5EF
:104F20001D4B1C68C4F302230124C3F10705052DA2
:104F30002EBF0F2504FA05F56D1E1E1D072E34BF6A
:104F40000023DB1E2940994004FA03F3BDE87040BA
:104F50005B1E1A401143CBE7010007D4012200F089
:104F60001F010E4B8A40400943F820207047401E25
:104F7000B0F1807F01D3012070470949094A486098
:104F80000023F02010708B6007200860002070471D
:104F900000E400E018ED00E00CED00E000E100E0CE
:104FA00010E000E023ED00E0F8B5044600270026FD
:104FB000002C71D004F12405686828B90021A9608B
:104FC0002870204600F032FD204600F0AFF96968F5
:104FD000CA065DD401005BD1696821F4885141F0B3
:104FE000020169606368E269217B1A43A36842EAAF
:104FF0004102B3F5807F14BF012B4FF48077237DEE
:10500000012B0FD131B9A169491E47EA413747F455
:10501000006707E0696841F020016960A96841F014
:105020000101A96021684B6823F469431F434F6065
:105030002368DFF8D4129F680F4017439F60A16870
:10504000B1F5807F18BF012902D12669761E360589
:105050002168CB6A23F470031E43CE622468DFF814
:10506000AC12A3680B40934207D10022AA60012131
:105070006A6861F301026A60F2BD686820F00200AC
:1050800040F010006860A86840F00100A86003E0EC
:10509000686840F0100068600120F2BD2DE9F0471B
:1050A00006460C463068DFF87812DFF87052DFF8F9
:1050B00068A29146884218BF504503D1286810F471
:1050C000702F65D106F124073878012808BF022027
:1050D00061D001203870304600F0DDF800288046AD
:1050E00053D17968DFF82C02014041F48071796076
:1050F00001213068504516D12A6812F4702F12D061
:10510000786840F4801078602A68500503D5786884
:1051100061F30D3078607868C10446BFB86820F04C
:105120000600002006E07A6822F480127A60406867
:105130004205EBE7B8600021224639704B46346ADD
:105140000FF23920A062316A0FF27920C862316A09
:105150000FF2792008636FF0020034682060306835
:10516000816841F480718160306800F14C01306ADF
:1051700002F00EF8306800F010F881680CBF41F4BE
:10518000A00141F48011816004E00020387001E04A
:105190004FF001084046BDE8F087816801F46021C6
:1051A000B1F5602F7047F8B500230093002200F19D
:1051B00024031C78012C01D10220F2BD01241C70B3
:1051C0001F264F680C680568072F08D27F1E07EB63
:1051D0008707D5F834C000F058F86C6312E00D2F43
:1051E00008D2FF1F07EB8707D5F830C000F04DF855
:1051F0002C6307E00D3F07EB8707D5F82CC000F0C4
:1052000044F8EC6207260F688C6805680A2F08D3FB
:105210000A3F07EB4707D5F80CC000F036F8EC6002
:1052200006E007EB4707D5F810C000F02EF82C6118
:105230000C68102C18BF112C23D10068384CA042E8
:105240001AD1384805682C021BD4056845F40005BE
:1052500005600868102814D12D4D33492C68B4FB23
:10526000F1F10A2041430091009800281EBF0098E8
:10527000401E0090F8D104E00122586840F0200060
:105280005860002018701046F2BDBE402CEA060699
:10529000BC403443704738B5044600200090206875
:1052A0008168CA072CD48168194A41F001018160E4
:1052B00010681D49B0FBF1F1009102E00098401E1A
:1052C000009000980028F9D1FFF7BAFD054600F0DC
:1052D00051F815D4FFF7B4FD401B0328F7D300F0B5
:1052E00049F8F4D404F124000022416841F010018F
:1052F0004160816841F0010181600270012032BD8E
:10530000002032BD00000000FDF7E1FFFE0E1FFF90
:10531000DC050020FEF1FFFF0028014004240140CD
:10532000002401400824014040420F0038B50446E3
:1053300020688168CA071BD58168490849008160D7
:10534000FFF77EFD054600F015F811D5FFF778FD53
:10535000401B0328F7D300F00DF8F4D5A16A41F003
:105360001001A162E06A40F00100E062012032BD5C
:10537000002032BD20688168C8077047416A8A6A88
:1053800012F0500F1BD1886A40F4007088620A68DE
:10539000906800F46020B0F5602F04BF087B0028FF
:1053A0000AD1886A20F480708862886AC20403D4B3
:1053B000886A40F001008862084603F081BD0A6AED
:1053C000116B0847406A03F07CBD0000406A816AA7
:1053D00041F040018162C16A41F00401C16203F001
:1053E00071BD000038B5040001D1012032BD00F0CC
:1053F00056F818B900F04FF800F056FB2AE090F884
:105400003D10012901D001207047022180F83D1094
:105410000168CA6842F00102CA600168DFF88820AA
:10542000914218BFB1F1804F07D0DFF88020914240
:105430001CBFDFF87C30994205D1896801F0070173
:10544000062905D001680A68084642F00102026098
:105450000020704702206870211D206800F088F944
:105460000120A8720121A970E87029716871A971E1
:10547000E871297268726970002032BD38B5040085
:1054800001D1012032BD00F00AF818B900F003F88C
:1054900000F02BFBDEE7002129702046704704F165
:1054A0003C05687870470000002C01400004004073
:1054B0000008004070B504462068C5680669B10759
:1054C00014D5AA0712D56FF00201016101222277DB
:1054D000806910F0030F204602D003F0F4FC03E0D3
:1054E00003F0F2FC00F07BF800202077700715D560
:1054F0006A0713D520686FF0040101610222227748
:10550000806910F4407F204602D003F0DCFC03E009
:1055100003F0DAFC00F063F800202077300715D59F
:105520002A0713D520686FF0080101610422227751
:10553000C06910F0030F204602D003F0C4FC03E062
:1055400003F0C2FC00F04BF800202077F00615D5E0
:10555000EA0613D520686FF0100101610822227756
:10556000C06910F4407F204602D003F0ACFC03E099
:1055700003F0AAFC00F033F80020207706F00102C7
:1055800005F001010A4206D021686FF001020A61AC
:105590002046FAF7FBFD300608D52A0606D5216815
:1055A0006FF080000861204603F08FFC700608D57C
:1055B0006A0606D521686FF040000861204603F0B6
:1055C00085FCB0060AD5AA0608D521686FF0200030
:1055D00008612046BDE8704003F079BC70BD2046EC
:1055E00003F076BC002084F83C002846704770B574
:1055F00000F058F801D1022070BD012084F83C0071
:1056000032B1042A15D0082A25D00C2A34D045E01E
:10561000206800F0E3F82168886940F0080088619C
:10562000886920F0040088618A69306902438A61D0
:1056300035E0206800F0F4F82068816941F40061E9
:105640008161816921F4806181618169326941EA06
:105650000221816123E0206800F00BF92168C8690C
:1056600040F00800C861C86920F00400C861CA6938
:1056700030690243CA6112E0206800F022F9206814
:10568000C16941F40061C161C16921F48061C161F6
:10569000C169326941EA0221C16100E00125FFF7D9
:1056A000A1FF70BD0446002594F83C0001280E4679
:1056B000704770B5044604F13C0600253078012897
:1056C00001D1022070BD0120307002227270DFF81B
:1056D000400222689368034093600868020018BF84
:1056E000102830D0202818BF30282CD0402826D0B1
:1056F000502819D060281BD0702806D0B0F5805FE4
:1057000027D0B0F5005F07D022E000F02CF8206829
:10571000816841F0770105E000F025F82068816894
:1057200041F48041816014E000F019F850210BE051
:10573000CA684968206800F004F9602104E000F0BC
:105740000EF8402100E00146206800F00CF900E06E
:1057500001250120707000213170284670BDCA6893
:1057600049682068DEE0CB684A688968206802E101
:1057700070B50368674C684A684DA04218BFB0F125
:10578000804F03D0A84218BF904209D123F0700681
:105790004B683343A0421CBFB0F1804FA84201D0F8
:1057A000904203D123F44072CB6813434A6923F03B
:1057B000800313430360A0428B68C3620A6882625D
:1057C00002D10969564A1160012343610169CA0780
:1057D00003D5016949084900016170BD30B500F089
:1057E00090F822F00202436885690C6825F0730581
:1057F0002C438D681543474A90420BD123F44073E4
:10580000CA6825F0080515434A691A438B6925F0D3
:10581000040513434360846149684163056230BDF8
:1058200070B5056A026A3B4E22F01002026225F052
:105830002005436884690A6824F4E64444EA0224A3
:105840008A68B04245EA02150DD1CA684E6925F052
:10585000800545EA02158A6923F44063164325F062
:10586000400543EA860343608461496881630562B9
:1058700070BD70B5056A026A264E22F4807202621B
:1058800025F400754368C2690C6822F07302144362
:105890008A68B04245EA02250DD1CA684E6925F4EE
:1058A000006545EA02258A6923F44053164325F42E
:1058B000806543EA06134360C4614968C1630562B9
:1058C00070BD70B5046A026A124E22F48052026200
:1058D00024F400544268C3690D6823F4E64343EAA4
:1058E00005238D68B04244EA053404D14D6922F4A1
:1058F000804242EA85124260C361496801640462E1
:1059000070BD026A036A5B085B00036270470000B7
:105910008800FFFF002C0140000800400004004008
:10592000302C014010B5036A046A64086400046204
:1059300023F00A03846924F0F00444EA0214846129
:1059400023E010B5036A046A24F01004046223F013
:10595000A003846924F4704444EA0234846143EA75
:105960000113036210BD826822F07002114341F0FE
:1059700007018160704710B5846824F47F44214397
:10598000114341EA0321816010BD1943016210BD3A
:1059900070B500F13C031A78012A01D1022070BDD4
:1059A00001221A7002245C7005686E68AC680A688F
:1059B00026F0700616436E6002680B48824218BFDC
:1059C000B2F1804F05D0094882421CBF084DAA425F
:1059D00004D1486824F08004044394600121597084
:1059E0000020187070BD0000002C01400004004031
:1059F00000080040904881B0026842F00102026055
:105A0000016801F0010100910099426842F0805262
:105A100042600222406800F0805000900098874861
:105A2000016862F31A61016001B0704730B585B05A
:105A300000F092F82168824A914233D17E48814D2C
:105A4000036843F400730360016801F4007100917E
:105A50000099026842F00402026001A9006800F0A7
:105A6000040000900320009A019002907648FEF70F
:105A7000A1FA76482860002169608020E8604FF430
:105A8000807129614FF48060002268612021AA6042
:105A9000A961EA61284601F049FB08B1FDF7CAFE99
:105AA00025626C6205B030BD00686949884200D04B
:105AB000704780B5604800F0D9F81820FFF72FFA3A
:105AC0001820FFF749FA002200211920FFF727FAD2
:105AD0001920FFF741FA002200211A20FFF71FFAD0
