:020000040800F2
:100000007011002029A90008919F0008939F000803
:10001000959F0008979F0008999F00080000000026
:100020000000000000000000000000009B9F00088E
:100030009D9F0008000000009F9F0008A19F0008EE
:10004000A59F000841A9000845A9000849A9000882
:100050004DA9000851A9000855A9000859A9000890
:100060005DA9000861A9000865A90008AB9F000808
:1000700069A900086DA9000871A9000875A9000800
:1000800079A900087DA9000881A9000885A90008B0
:1000900089A900088DA9000891A9000895A9000860
:1000A000E79F0008E99F0008F19F000899A9000850
:1000B0009DA90008A1A90008F39F0008A5A90008B0
:1000C000A9A90008ADA90008B1A90008B5A90008B0
:1000D000B9A90008F99F0008BDA90008C1A9000836
:1000E000C5A90008C9A90008CDA9000878B59AA437
:1000F0008DB0DFF8243C25681D60521A002404E00E
:100100006618865D0DF80460641C9442F8DB0024D8
:100110000DF802406946184603F056FF0EB070BD58
:1001200080B5B2B000F00FF801F09BF9684603F01B
:100130006BFF00F001F819E082B24FF0FF3369461F
:10014000DFF8D80B70470146684603F067BF80B5FB
:10015000B2B0FFF7F8FF01F084F9684603F054FFEE
:1001600082B24FF0FF336946DFF8B40B03F09EFF15
:1001700033B000BD2DE9F0410746DFF8A81B386811
:10018000DFF8A44BDFF8A45BDFF8A46B884279D1D9
:10019000706840B9B068401CB0604FF40051DFF89F
:1001A000940B04F06AFBE86D401CE865B06A401CE3
:1001B000B0623069012802D17069401C7061306AF8
:1001C000012802D1F069401CF061706B012802D156
:1001D000B06B401CB063F06B012802D1306C401C46
:1001E0003064706C012802D1B06C401CB064F06CBB
:1001F000012802D1306D401C3065306B401C3063EB
:10020000F06D012802D1306E401C3066706D0128FF
:1002100002D1B06D401CB065E068012802D12069B0
:10022000401C20616068012802D1A068401CA060C9
:10023000706E002806DDB06E401C0028C4BF002090
:100240007066B066F06E002806DD306F401C002836
:10025000C4BF0020F0663067706F002806DDB06F05
:10026000401C0028C4BF00207067B067F06F0028F2
:1002700008DDD6F88000401C0028C4BF0020F067CD
:10028000C6F880003868DFF8B01A884260D1DFF81D
:10029000AC8A4FF48051404604F0E5FADFF8A07ACA
:1002A000012804BFA86E00280CD1706E401C3228B3
:1002B00007DB706600F052F80020B066012262622F
:1002C000A26170664FF40061404604F0CCFA012848
:1002D00004BFA86E01280CD1F06E401C322807DB49
:1002E000F06600F03BF80020306701226262A061F6
:1002F000F0664FF40041384604F0B5FA012804BF17
:10030000286E00280CD1706F401C322807DB706704
:1003100000F024F80020B06701222262E2617067D9
:100320004FF48041384604F09EFA012804BF286E3D
:1003300001280DD1F06F401C322808DBF06700F077
:100340000DF80020C6F8800001222262E061F0670B
:10035000BDE8F08100000000000000000022102134
:10036000384604F086BA2DE9F841DFF8C049DFF8D5
:10037000D48904F254558DB002F0C2F972A673A765
:1003800068B93946684603F01FFE2946684604F0FE
:1003900097FA314604F094FA6846FFF7D8FE42F225
:1003A000107004F0DBFA01F053F869A0FFF7CFFEFC
:1003B00001F012F904F5AD64414601F0C3FF68B9DC
:1003C0003946684603F000FE2146684604F078FA94
:1003D000314604F075FA6846FFF7B9FE0EB0BDE885
:1003E000F0814FF4FA51484300E0C0000146481E36
:1003F0000029FBD1704781B08DF800008DF8011005
:100400008DF802208DF80330009801B0704718B5C0
:10041000DFF83409DFF8284985B0026842F00402A9
:100420000260016801F0040100910099026842F045
:10043000040202601121006800F004000090802096
:10044000009A019000F007F840220192112100F07B
:1004500002F806B010BD02910222049201A92046C2
:1004600004F032B910B54FF47A70FFF7BEFFDFF831
:10047000DC48206840F0800000F02AF800F025F801
:10048000206820F0800000F023F8206820F0400071
:100490002060642016E010B500F060F8DFF8AC488A
:1004A000206820F0400000F013F8206820F0800061
:1004B00000F00EF800F009F8206840F0800020609D
:1004C0004FF47A70BDE810408FE7206840F040009C
:1004D0002060642089E72DE9F843DFF8445D804619
:1004E000686820F04000894600276860802608245C
:1004F00006EA080000286868CCBF40F0800020F0C1
:10050000800000F02AF800F025F8686820F040002C
:1005100068602968080648BF37437608641EE7D13B
:10052000686820F08000B9F1010F686006D100F022
:1005300011F8686820F0400000F00FF800F00EF8A5
:100540003846BDE8F28300003B00000041544400FF
:1005500041544800686840F040006860642044E707
:1005600038B504460D46FFF77DFF200A400040F0F5
:10057000A00000F046F80121E0B2FFF7ACFF012136
:100580002846FFF7A8FFFFF786FF0F20FFF729FF98
:10059000002032BD7FB50546000A00244600002039
:1005A0000DF804000DF80460FFF75CFF46F0A000B2
:1005B00000F027F80121E8B2FFF78DFFFFF752FFA7
:1005C00046F0A10000F01DF80021FF20FFF783FF97
:1005D0000DF80400FFF75FFF0120FFF702FF3CB1B9
:1005E0000DEB04011DF8040011F8012C824203D028
:1005F000641C092CD3DB01E004B070BD9DF8000041
:10060000FAE70121C0B266E738B500F007F86D1CC3
:10061000210AA8B2FFF7A4FF002032BD04460D4610
:10062000E1B228469CE77CB504460D4600260094BE
:1006300070191DF8061000F02BF8761C042EF6DB5E
:10064000002076BD38B50446601C00F05EF8054613
:100650002046FFF79FFF00EB052032BDF8B50446AA
:10066000FFF798FF00F010F8064600F04DF8074637
:10067000E41CA0B2FFF78EFF03463A4631462846F7
:1006800001B0BDE8F040B6E60546601C80B281E7E7
:1006900080B265E738B50024DFF8905600F0A4F981
:1006A000FF21A0B2FFF75CFF641CA0B2B0F5007F91
:1006B000F4DB31BDF8B504460D461646002702E0CE
:1006C000FFF7E6FF7F1C3819711E8F4202DAE95DE1
:1006D0000029F5D1BDE8F440002180B240E7F8B52B
:1006E00004460D461646002700E07F1C701E874218
:1006F00005DA381900F009F8E8550028F5D1AA19EB
:10070000002102F8011CF1BDA01C80B242E70146A5
:1007100009220120CEE7000110221030CAE7602133
:1007200081E764217FE768216EE76A216CE710B5F5
:100730000C4601465020FFF713FF2146BDE810404C
:1007400051200DE7014652200AE701460922012007
:10075000C5E750201EE751201CE752201AE76C2005
:1007600018E76D2016E76E2014E7602076E7642016
:1007700074E7682066E76A2064E7000003280FD862
:10078000DFE800F00205080B1022102007E010221D
:10079000202004E01022302001E0102240209EE7BB
:1007A00000200870704770B50FF20010FFF7B8FC1A
:1007B0000020FFF7EFFE5A2876D00FF20010DFF886
:1007C0006C450FF2FC150FF20426FFF7A9FC00F0B0
:1007D000CBFBFFF75FFF5A210020FFF7C1FE284641
:1007E000FFF795FF00F034FE00F070F800F030FEE7
:1007F00000F0FEF800F02CFE00F06EF800F028FE8D
:1008000000F067F800210020FFF791FF0020FFF7BC
:1008100099FF00F01DFE4FF07F50FFF780FFDFF8DB
:100820006C0DFFF77EFF00F013FE0A20FFF77BFF41
:100830003C20FFF77AFF00216C20FFF791FE00F0CB
:10084000CDF800F0CEF80922294604F2A45004F0B5
:1008500099F80E22314604F2545004F093F80E2217
:10086000314604F5AD6004F08DF80E22314604F2F5
:100870007C5004F087F80E22314604F5B26004F093
:1008800081F8002020666066A0663C22DFF83C0DFF
:10089000DFF83C1D2067E1660020A067E0670A21C1
:1008A000012021806280606770BD0000496E69741C
:1008B00020454550524F4D2E2E2E00004669727332
:1008C0007420496E69742E2E2E00000031460020DF
:1008D00021E7314603201EE7314602201BE7F8B529
:1008E0005A210020FFF73CFE0FF2D404DFF83C54FD
:1008F0000FF2D806DFF8D87C2046FFF708FF00F09B
:1009000073F8FFF7E3FF00F06FF800F071F800F004
:100910006BF8FFF7E1FF00F067F8FFF7DAFF00215F
:100920000020FFF704FF0020FFF70CFF00F05CF849
:100930003846FFF7F4FEDFF89C0CFFF7F2FE00F0FC
:1009400053F80A20FFF7EFFE3C20FFF7EEFE0021F0
:100950006C20FFF705FE00F041F800F042F8092294
:10096000214605F2A45004F00DF80E22314605F29E
:10097000545004F007F80E22314605F5AD6004F03E
:1009800001F80E22314605F27C5003F0FBFF0E22E7
:10099000314605F5B26003F0F5FFDFF8301C29673A
:1009A000002028666866A8660021A967E9670A2012
:1009B000EF6628803C2201216A806967F1BD000052
:1009C0003132333435363738000000002B393839AE
:1009D00031313131313131313100000000216D20B0
:1009E000BEE501216E20BBE505F14C0004F001B825
:1009F000314601208FE610B504460FF21000FFF7D4
:100A00008FFB2046BDE81040FFF78ABB3F204545DD
:100A100050524F4D205741524E494E473A00000028
:100A20000178FF2918BF00290BD00022815C31B169
:100A300020395F2905D2521C142AF7DB01E001207E
:100A40007047002070472DE9F0419EB00FF2003052
:100A5000B64CFFF765FB6846FFF777FE694604F280
:100A6000A45003F0DBFA6846FFF7DAFF28B90FF26B
:100A70000030FFF7C0FF00F077FA6A460FF204314A
:100A800000F06CFA00F06DFA00F0E2FC694600201C
:100A9000FFF774FE04F254556946284603F0BEFA87
:100AA00069460120FFF76AFE00F0D2FC04F5AD664E
:100AB0006946304603F0B2FA69460220FFF75EFE4F
:100AC00000F0C6FC04F27C576946384603F0A6FAEB
:100AD00069460320FFF752FE00F0BAFC04F5B26845
:100AE0006946404603F09AFA0FF2A020FFF718FB80
:100AF00000F0D5FE0FF2A020FFF712FB02F07EF807
:100B00000FF2A020FFF70CFB01F0E8FD0FF2A02090
:100B1000FFF706FB4046FFF703FBFFF71AFE2066D0
:100B2000002818BF012805D00FF29020FFF763FFBF
:100B300000F01AFA05A8226E0FF2982103F044FA89
:100B400000F00FFAFFF707FE6066002818BF0128C3
:100B500005D00FF28C20FFF74EFF00F005FA05A834
:100B6000626E0FF2942103F02FFA00F0FAF9FFF70A
:100B7000F4FDA06600281EBF01280FF28820FFF7B1
:100B80003AFFA26E0FF29421DFF8405DDFF8406D6E
:100B900000F0E4F900F0E5F9FFF7E7FD41000A167F
:100BA00012F1010FE06601D1090207D1314603F0CD
:100BB00035FF03D3294603F045FF03D80FF26C201D
:100BC000FFF719FF02F05DF902460B460FF27021A4
:100BD00005A803F0F9F900F0C4F9FFF7C8FD0146D4
:100BE0004800021612F1010F216701D1000208D15D
:100BF0000846314603F012FF03D3294603F022FFD3
:100C000003D80FF25020FFF7F6FE02F037F9024644
:100C10000B460FF2582105A803F0D6F900F0A1F910
:100C2000FFF7A7FD208042F2117508B1A84205DB4D
:100C30000FF24C20FFF7DFFE00F096F905A822889E
:100C40000FF2502103F0C0F900F08BF9FFF793FD8C
:100C5000608008B1A84203DB0FF24C20FFF7CBFE07
:100C600062880FF2582100F079F900F07AF9FFF765
:100C700076FDA06700281EBF01280FF25420FFF761
:100C8000BAFEA26F0FF25C2100F068F900F069F97A
:100C9000FFF767FDE06700281EBF01280FF2542010
:100CA000FFF7A9FEE26F0FF2602100F057F900F0A4
:100CB00058F9FFF758FD60670428A4BF0FF25820C9
:100CC000FFF799FE626F0FF264211C4D00F046F9A8
:100CD00000F047F9206E012803D10122202101F004
:100CE0007FFD206E18B90022202101F079FD606E91
:100CF000012803D10122402101F072FD606E18B974
:100D00000022402101F06CFD0FF23020FFF708FABD
:100D10001EB0BDE8F0810000A0030020740A00208E
:100D200004000020002C01403C0B002000000020AB
:100D3000EC090020001001400008004000080140BC
:100D4000000C0140703F0008181002400C0C0140DC
:100D50003D3D3D3D3D20454550524F4D20434F4E7A
:100D60004649472044554D50203D3D3D3D3D000006
:100D7000496E76616C6964204465766963652049D3
:100D80004400000049443A20257300004E756D620E
:100D90006572313A000000004E756D626572323A3C
:100DA000000000004E756D626572333A000000006D
:100DB0004E756D626572343A0000000052656C61D8
:100DC000793120737461746520696E76616C696431
:100DD0000000000052656C6179313A202564000002
:100DE00052656C61793220737461746520696E7626
:100DF000616C69640000000052656C6179323A20D0
:100E00002564000053656375726974792073746199
:100E1000746520696E76616C696400005365637562
:100E2000726974793A202564000000004C6F7720C5
:100E300063757272656E7420696E76616C696400A8
:100E40004C6F7743757272656E743A20252E326648
:100E500020410000486967682063757272656E748E
:100E600020696E76616C69640000000048696768FB
:100E700043757272656E743A20252E3266204100E9
:100E800043757272656E7454696D6520696E766122
:100E90006C69640043757272656E7454696D653A6D
:100EA000202564207365630052656C656173655429
:100EB000696D6520696E76616C69640052656C6568
:100EC00061736554696D653A20256420736563001C
:100ED00052656D6F7465537461746520696E7661D7
:100EE0006C69640052656D6F746553746174653A22
:100EF00020256400416C61726D4D6F646520696EE0
:100F000076616C6964000000416C61726D4D6F64C4
:100F1000653A2025640000004465766963654D6F7D
:100F2000646520696E76616C696400004465766969
:100F300063654D6F64653A20256400003D3D3D3D8D
:100F40003D20454550524F4D20434845434B20449A
:100F50004F4E45203D3D3D3D3D00000005A803F0BE
:100F600033B805A8FFF7DCB80120C4F8800070474B
:100F7000F8B5044696B00021217006A8FFF7E5FBFE
:100F800000F09FF806AA0FF2D8010FF2DC06204409
:100F900003F01AF8002502A9E8B2FFF7EFFB00F012
:100FA00090F8EAB202AB521C3146204403F00CF830
:100FB0006D1CE8B20428EEDBFFF7CDFB05465020A0
:100FC000FFF7E8FA00F07CF82B4632460FF2A0015A
:100FD000204402F0F9FFFFF7C0FB054600F071F86E
:100FE0002A460FF29C01204402F0EEFFFFF7BFFB00
:100FF0000746FFF7BAFB00F063F80546384603F0F2
:1010000035FDCDE90001304603F030FD02460B46C8
:101010000FF27401601902F0D7FFFFF7ACFB054631
:10102000FFF7A7FB00F04CF82B4632460FF26C019D
:10103000204402F0C9FFFFF796FB0546FFF791FB3E
:101040000646FFF78CFB074600F03BF80095334659
:101050003A460FF25801204402F0B6FF17B0F0BD37
:1010600049443D25733B00004E25643D25733B00FC
:1010700052313D25643B52323D25643B0000000067
:10108000533D25643B0000004C433D252E32663B1A
:1010900048433D252E32663B0000000043543D2569
:1010A000643B52543D25643B0000000052533D25F3
:1010B000643B414D3D25643B444D3D25643B000070
:1010C0000646204602F0A0BF2DE9F84FA2A48AB040
:1010D000214603F0EFFC0FF2842B0FF2842A0FF26B
:1010E0008429A1A7A1A5A2A60FF2381817E0A1A1F3
:1010F00000F0A1F878B900F09BF8C1B26E2008E0CA
:101100009DA100F098F80028F1D100F091F8C1B24B
:101110006D20FFF725FA2146002003F0CBFC0028C4
:101120007BD002AB6A46414603F0EAFC314600F050
:1011300082F818B902A8FFF7EAFAECE7294600F0AE
:101140007AF818B902A9FFF7E6FAE4E7394600F0A1
:1011500072F810B902A90120F5E7494600F06BF8D2
:1011600010B902A90220EEE7514600F064F810B968
:1011700002A90320E7E7594600F05DF820B900F026
:1011800057F8C1B25020C4E7B7A100F054F820B915
:1011900000F04EF8C1B25120BBE7B4A100F04BF80B
:1011A00020B900F045F8C1B25220B2E7B0A100F07A
:1011B00042F838B902A803F037FE03F045FEFFF706
:1011C000AEFAA8E7ABA100F036F838B902A803F0F0
:1011D0002BFE03F039FEFFF7A4FA9CE7A6A100F06E
:1011E0002AF828B900F024F880B2FFF79CFA92E7B9
:1011F000A2A100F020F828B900F01AF880B2FFF799
:1012000094FA88E79EA100F016F800287FF478AFE2
:1012100000F00EF8C1B26C207BE70BB0BDE8F08F98
:10122000080C0140255B5E3D5D3D2573000000001C
:1012300002A803F0D6BE684603F0DEBE2DE9F84FE3
:10124000D1A2DFF8784C10680FF288060FF28C0BF1
:101250000FF290080FF294090FF2980A04F5A365B3
:1012600031462860284603F02BFB03214F1C3A46E9
:1012700004F2FC40FEF73AFF00F0D1FC03F0B1FEAF
:10128000092821D8DFE800F01C05080B0E11141600
:10129000181A0FF2680114E00FF2680111E00FF262
:1012A0006C010EE00FF26C010BE00FF2700108E030
:1012B000594606E0414604E0494602E0514600E056
:1012C0003146284603F0FCFA39460D29CEDBBDE84D
:1012D000F18F000030303330000000003030333602
:1012E0000000000030303337000000003030333869
:1012F000000000003030333900000000303033315E
:101300000000000030303332000000003030333352
:10131000000000003030333400000000303033353E
:101320000000000038B5DFF8941BDFF8944BDFF8BD
:10133000945B05208865002020616061A06101F058
:1013400036FA00F074FC01F032FA00F070FC012073
:1013500020620021E16031BD3B00000052310000FD
:101360004E3400004E3300004E3200004E3100007B
:1013700049440000444D0000414D00007FB500F09D
:101380001FF9DFF8384BA06D04F2FC4510B904F5E5
:101390009A610FE0062808BFDFF8381B0AD0012841
:1013A00008BF04F2545105D002280CBF04F5AD610A
:1013B00004F2E44100F0A2FB0D22002100F036FA15
:1013C00000F09AFB04F5D6760FF2E811304602F0F1
:1013D000FBFD01A9304603F073FA294603F070FAC9
:1013E00001A9304603F06CFA00F03BF801F006FC6E
:1013F00000F02EF8304602F007FE82B24FF0FF33C5
:101400003146201D02F052FE00F0E6F800F024F80C
:1014100000F0E6F81A208DF8000000F008FC00F05B
:10142000E6F800F0EDFC00F0E2F800F0E9FC00F076
:10143000DEF800F0E5FC00F0DAF800F0E1FC00F086
:10144000D6F84FF47A6003F089FAFFF76BFF7FBD9F
:1014500004F14C0003F0CDBA04F57575284602F08E
:10146000D3BDD0A103F02CBA5232000053000000CB
:101470004C43000048430000435400005254000015
:10148000525300003EB50FF20810DFF8304AFEF765
:101490005EFE4FF4967003F061FA0FF20410FEF74F
:1014A00056FE00F0C4FBFFF7D3FF00F089F8A16DF2
:1014B00004F2FC4011B904F59A6117E0062908BF4F
:1014C000DFF8101A12D0012908BF04F254510DD0D0
:1014D000022908BF04F5AD6108D0032908BF04F252
:1014E0007C5103D0042903D104F5B26102F096FDCA
:1014F000FFF7A4FE04F5D6750FF2B801284602F0F6
:1015000063FD01A9284603F0DBF904F5A36103F0AC
:10151000D7F901A9284603F0D3F9FFF7A2FF00F09D
:10152000BEF9FFF79BFF00F05BF800F055F8FFF7FE
:1015300093FF00F055F800F07AFB1A208DF80000B8
:1015400000F055F800F05CFC00F051F800F058FC99
:1015500000F04DF800F054FC00F049F800F050FCA9
:1015600041F2707003F0FAF9FFF772FF00F05FFBD1
:1015700000F0ACFF00F05BFB00F09CFF00F057FBBD
:10158000FFF7D0FE37BD000000000000000058410A
:1015900041542B435343533D2255435332220000C1
:1015A00041542B43534D503D34392C3136372C3078
:1015B0002C38000041542B434D47533D00000000A0
:1015C0002222E2A101A802F0FFBC00000000B0400E
:1015D000666606403333A3404FF47A7003F0BEB919
:1015E00082B24FF0FF332946201D02F05FBD4FF05D
:1015F000FF3301226946201D02F058BD2DE9F84F46
:10160000DFF8B84804F184050622022100F00EF943
:1016100004F5D67604F5687701F0F3FA162200F0A7
:1016200004F904F53678394600F095FEFEF778FDAA
:1016300004F5A969494600F05CFA00280FD0C7A15B
:1016400001F0E4FA00280AD014220C2100F0EEF890
:1016500001F0D7FA04F2A45103F0D7FC002800F0FF
:101660009E80222200F0E1F8394604F5B86002F0CD
:10167000D5FCFEF755FD0B22072100F0D7F801F04D
:10168000C0FA0146484602F0C9FC04F2545504F27F
:10169000E44100F033FA04F5AD660FF20C1A51463E
:1016A000304602F091FC04F27C575146384602F075
:1016B0008BFC04F5B2695146484602F085FC0120D6
:1016C000A06504F5757ADFF814B8594601F056FFA5
:1016D000FFF7D8FEFFF7BCFE0BF1400101F04EFF13
:1016E000FFF7D0FE2946FFF7F2F800F09BF8FFF76E
:1016F0007FF900F097F83946FFF7EFF800F092F81D
:101700004946FFF7E7F800F08DF8FFF7A1FE4046E5
:10171000FFF72EFC0FF2C030DFF8C457FEF700FDD4
:101720004046FEF7FDFC4146504602F077FC0020A3
:10173000A065FFF723FEDFF88C07FEF708FD00F039
:1017400076FA0020E065E86B01280DD10FF2680001
:10175000FEF7FDFC01F026F8FFF77AFE0FF27400A9
:10176000FEF7F5FC01F01EF8E86B02280FD10FF22E
:101770007C00FEF7ECFC40F6B83003F0EFF8FFF722
:1017800067FE0FF28000FEF7E2FC01F00BF8FFF7B6
:101790005FFEBDE8F24F0FF27C00FEF7C1BCBDE872
:1017A000F18F00000D0A00002B3938313131313111
:1017B000313131313100000041542B435553443D08
:1017C000312C222A3535352A342A332A322A32233B
:1017D0002200000041542B435553443D312C222A12
:1017E0003535352A332A342A3123220041542B43FC
:1017F0005553443D312C222A3130302A31313423A3
:101800002200000041542B435553443D312C2231DA
:1018100022000000726567697374657220646F6EE0
:10182000650000000A2003F099B815212846FEF74C
:101830005DBC10B5DFF884460FF220010022A265DE
:1018400004F5757002F0C0FBFFF798FDFFF747F84D
:1018500004F14C00BDE8104003F0CBB850554D509A
:1018600020434F4E464947204F4B00007CB5DFF8E0
:101870007006DFF84846466E026D009625210191FC
:1018800004F536752523DFF8D41B284602F09CFBAF
:1018900000F005F800F09BF8BDE873406EE52846BF
:1018A000FEF73EBC38B500F053F801202066C9B2FF
:1018B000FEF73DFF012200F003F8DFF8A41B16E05D
:1018C0002021DFF8A00B02F0D4BF00000100484245
:1018D000CDCCCC3D38B500F03BF800202066C9B235
:1018E000FEF725FF0022FFF7EBFFDFF8701904F584
:1018F000757002F069FB294601F096FD18B90120C8
:10190000A065FFF7BFFD294604F5AD6003F07DFB40
:1019100018B90220A065FFF7B5FD294604F27C50F6
:1019200003F073FB18B90320A065FFF7ABFD294650
:1019300001F075FD18B90420A065FFF7A3FDBDE80F
:1019400032404FF4FA7003F009B80000256300003C
:10195000DFF86845DFF8105B616E70472B00000010
:1019600038B5DFF85845DFF8005B012060660121DB
:10197000206EC0B2FEF7DBFE01224021FFF7A1FF7F
:10198000DFF8A41CB3E738B5DFF83045DFF8D85AE4
:10199000002060660021206EC0B2FEF7C8FE002263
:1019A0004021FFF78EFFDFF8841CA0E738B5DFF891
:1019B0000C4504F536752846FFF7DAFA0FF21810D1
:1019C000FEF7AEFBFFF76BFF00F001F8B3E129462D
:1019D00004F5757002F022BB2DE9FF41DFF8DC440D
:1019E00004F184070622022100F08CF804F5D67673
:1019F00004F5687800F078F80A2200F082F804F51F
:101A00003675414600F07AF804F5A96100F071F8E6
:101A100000285ED0AFA100F070FE002859D0162239
:101A200000F06FF800F060F8014604F2FC4600F0A8
:101A30005CF80822072100F065F84146684602F08C
:101A4000EDFAA5A103F0E1FA40B1314604F5AD602D
:101A500002F0E4FA01460120FEF75DFEB8A16846F7
:101A600003F0D3FA38B1314604F27C5002F0D6FAD2
:101A70000146FEF732FFB3A1684603F0C6FA38B15B
:101A8000314604F5B26002F0C9FA0146FEF722FFC2
:101A900004F57576DFF8D419304602F095FAFFF7B1
:101AA000F1FC00F0C4F82846FFF762FA0FF22800B4
:101AB000FEF736FBFFF7F3FE0120A065294600F094
:101AC00014F8FFF75BFCDFF8FC03FEF740FB00F0C7
:101AD000AEF8BDE8FF81000053656E64696E672053
:101AE000636F6E6669673A004146304602F096BA07
:101AF0004146304603F089BA04F56871284602F081
:101B00008DBA09213846FEF7F1BA10B5DFF8AC43BB
:101B100004F18400FFF7D8FA11220FF2140104F542
:101B2000757002F02FFFFFF729FC4FF47A6099E0FF
:101B3000454550524F4D20434F4E464947204F4B4D
:101B40000000000038B5DD4D0F22082105F18400AA
:101B5000FEF7CCFA00F042F803F066F903F074F9EE
:101B6000E86605F57574FEF7DAFDDFF8481C2046D7
:101B700002F02AFAFFF786FC00F059F8E86E02F04E
:101B800075FF00F0ABF8204602F01EFAD3E038B53E
:101B9000CA4D14220D2105F18400FEF7A7FA00F0CA
:101BA0001DF803F041F903F04FF9286705F5757446
:101BB000FEF7B7FDDFF8781B204602F005FAFFF7C5
:101BC00061FC00F034F8286F02F050FF02460B462B
:101BD000DFF8E41B204602F0F7F9ACE005F5687188
:101BE00005F5D67002F01ABA38B5B44C0A220521B0
:101BF00000F0B0F800F013F803F0F3F9208004F5DA
:101C000075752088FEF78FFDDFF8B01B284602F0BF
:101C1000DBF9FFF737FC00F00AF8228886E004F5CC
:101C2000687104F5D67002F0F9B90120A0654FF48F
:101C3000FA7002F093BE10B50FF23401DFF8800B9A
:101C4000DFF8204802F0C0F9FFF798FB00F0AAFD8A
:101C5000012200F013F800F0A5FD002200F00EF8BC
:101C60004FF4FA6002F07AFE9D490120086410BD2D
:101C700052657365742050756D7000004FF480716B
:101C8000204602F0F6BD80B5DFF8381BDFF8300BD8
:101C900002F09AF9FFF7F6FBFFF7C9FF8848012128
:101CA0000022416382630122BDE808402021DFF861
:101CB000180B02F0DEBD10B5894C01F0E2F800F01F
:101CC0000DF8DFF8FC0A02F07FF9BDE81040FFF7DD
:101CD00055BB00002B0000003200000002460B46FE
:101CE0000FF204017047000043757272656E743A1A
:101CF00020252E326620410038B5704C1422082170
:101D000000F028F8FFF78BFF03F06BF9608004F513
:101D100075756088FEF709FDDFF8B01A284602F0F5
:101D200053F9FFF7AFFBFFF782FF62880FF218014C
:101D3000284602F049F9BDE83140FFF71FBB00001B
:101D4000330000003400000054696D653A202564BA
:101D50002053000004F18400FEF7C8B938B5574C91
:101D60000FF22C00DFF8685A0121A166FEF7D8F9BE
:101D700000F049F800F0B8FB002200F045F800F050
:101D80003FF80120FEF7DEFCDFF8E81C27E000004A
:101D90005365637572697479204F6E0038B5474C8E
:101DA0000FF24C00DFF8285A0021A166FEF7B8F9BF
:101DB00000F029F800F098FB002200F025F800F070
:101DC00093FB00F020F800F08FFB002200F01CF8DD
:101DD00000F016F80020FEF7B5FCDFF8F81904F55E
:101DE000757002F0F1F8BDE83140FFF74BBB000021
:101DF0005365637572697479204F66660000000050
:101E0000642002F0ABBD01221021284602F031BD52
:101E100010B52A4C012262672BA100F028F800219E
:101E20006E20FEF79DFBDFF8581C0AE010B5234C2E
:101E30000222626725A100F01AF8FEF7D2FDDFF852
:101E4000981904F5757002F0BFF8BDE81040FFF76F
:101E500019BB10B5194C032262671DA100F007F8E9
:101E600002216E20FEF77CFBDFF8181CE9E704F581
:101E7000B76002F0A9B810B5104C0422626716A131
:101E8000FFF7F5FF03216E20FEF76AFBDFF8F81B72
:101E9000D7E710B5094C0122E26701216D20FEF75A
:101EA0005FFBDFF8E81BCCE710B5044C0022E267CB
:101EB000FEF794FDDFF8D81BC3E700000000002008
:101EC000EC0900204431000831000000320000001D
:101ED000330000005426000834000000E89E00088B
:101EE000600900202DE9F047DFF8A85B0FF27031A0
:101EF00005F1840400F026FA08B1FFF79AFCAAA1C4
:101F000000F020FA08B1FFF700FE0FF25C3100F09C
:101F100019FA08B1FFF74AFD00F017FA05F5D6786F
:101F200005F5687900F016FAA0A103F06EF808B183
:101F3000FFF764FB00F009FA00F00CFAB1A103F01E
:101F400064F808B1FFF748FDAFA100F0FBF918B93C
:101F5000AEA100F0F7F908B1FFF788FC00F0ECF94A
:101F600000F0F8F9AAA103F050F8DFF830AB80B91F
:101F7000A8A100F04BFE60B90FF2F42100F0E2F9E5
:101F800038B9514600F0DEF918B9A3A100F0DAF92A
:101F900008B1FFF787FC00F0CFF900F0DBF99FA153
:101FA00003F033F888B99EA100F030FE68B90FF253
:101FB000D42100F0C7F940B90AF1280100F0C2F9B4
:101FC00018B998A100F0BEF908B1FFF783FC02220E
:101FD00000F0B3F900F0BEF993A7394600F0B2F96A
:101FE00092A593A680B9314600F0ACF960B900F033
:101FF000A8F948B98FA100F009FE18B98EA100F028
:1020000005FE08B1FFF766FC00F096F900F0A2F9B2
:102010008AA102F0FAFF60B989A100F0F7FD40B98A
:102020000AF1540100F08EF918B986A100F08AF97E
:1020300008B1FFF795FC00F07FF900F08BF9394605
:1020400002F0E3FF58B9314600F0E0FD38B90AF17B
:10205000780100F077F910B900F073F908B1FFF7D3
:1020600092FC072200F069F900F074F90FF22C21BC
:1020700002F0CBFF20B90FF22C2100F0C7FD08B110
:10208000FFF760FD072200F058F900F063F96EA138
:1020900002F0BBFF38B96DA100F0B8FD18B96CA112
:1020A00000F0B4FD08B1FFF706FE0FF2002100F0CA
:1020B00049F920B90FF2042100F044F908B1FFF703
:1020C00066FD0FF2082100F03DF948B90FF2042136
:1020D00000F038F920B90FF2042100F033F908B10B
:1020E000FFF782FD0FF2FC1100F02CF908B1FFF7A9
:1020F00003FE0FF2F81100F025F920B90AF1A00152
:1021000000F020F908B1FFF7BEFD0FF2F01100F06A
:1021100019F948B90FF2EC1100F014F920B90FF2D7
:10212000EC1100F00FF908B1FFF785FD49A100F0AF
:1021300009F940B948A100F005F920B90AF1DC011C
:1021400000F000F908B1FFF709FEBAA100F0FAF8B3
:1021500040B9B9A100F0F6F820B90AF5867100F08F
:10216000F1F808B1FFF71AFEB4A100F0EBF818B9C6
:10217000B3A100F0E7F808B1FFF74AFEB1A100F003
:10218000E1F818B9B0A100F0DDF808B1FFF74EFE94
:10219000AEA100F0D7F818B9ADA100F0D3F808B19E
:1021A000FFF757FEABA103E049443D005200000099
:1021B00000F0C8F818B9A8A100F0C4F808B1FFF7FA
:1021C0005AFE0FF25C1100F0BDF820B90AF5A471B7
:1021D00000F0B8F808B1FFF75CFE0FF2501100F004
:1021E000B1F848B90AF5B87100F0ACF820B90AF5B1
:1021F000D47100F0A7F810B1BDE8F04754E6BDE88F
:10220000F08700BF4100000042540000427400000B
:102210004F4E31004F6E31006F6E31004F4631002E
:102220004F6631006F6631004F4632006F663200F4
:102230004F6632004F4600004F6600004F4E32009E
:102240004F6E32006F6E3200556300005543000040
:10225000756300005331000073310000A0A6000830
:10226000434F4E4649470000696E666F000000000C
:102270003036333130363438303633343036343625
:1022800000000000303632453036323730363435D3
:102290003036343830363334000000004375727203
:1022A000656E740063757272656E74006F76657228
:1022B0002063757272656E74000000004F7665725F
:1022C0002063757272656E740000000054696D655C
:1022D0000000000054494D450000000074696D6520
:1022E000000000005265616C697A65004175746F89
:1022F0002063757272656E7400000000726573650C
:10230000740000005265736574000000303633318C
:10231000303643433036333330363241000000002C
:10232000416C61726D206F6E00000000416C617243
:102330006D206F6666000000032200212046FDF735
:10234000D5BE2946204602F060BE0122002120466B
:10235000FDF7CCBE4946404601F060BE70B5DFF8DF
:10236000345D0FF67404696901290BDD0FF200106A
:10237000FDF7D6FEA869401C0021A86169612046CE
:10238000FDF7E5FEA869DFF8106D012827DDFFF7EE
:102390004EFC00F09BF800F0A7F800F08BF840F23C
:1023A000DC5002F0DBFADFF8F40CFDF7D0FE00F0B1
:1023B0009BF83046FDF7CBFE00F096F8DFF8E00C16
:1023C000FDF7C5FE00F090F83046FDF7C0FE002096
:1023D0006861A86128610FF2A800FDF7A1FE2869D5
:1023E000002804BFE86801280BD10FF2A800FDF710
:1023F00097FE00206861E860012028612046FDF713
:10240000A6FE286A012813D1E869042810DB0FF220
:102410009800FDF785FE3046FDF799FE0020286202
:10242000E86128614FF4FA70BDE8704002F096BA96
:1024300070BD0000533200007332000044310000D0
:102440006431000044320000643200004433000074
:102450006433000044340000643400002CA80008F9
:1024600020A6000800080140703F000898A400085A
:102470002A2A436865636B20534D532A2A000000C3
:102480002A2A44454C4C45544520416C6C20534D00
:10249000532A2A002A2A534D532046524F4D204595
:1024A0005854492A2A000000534D5320446F6E654A
:1024B000000000000FF20400FDF749BE41542B4319
:1024C0005343533D2247534D220000000FF20400B6
:1024D000FDF73DBE41542B43534D503D31372C3118
:1024E00036372C302C300000C82002F037BA2DE9E6
:1024F000F84FDFF8A04512220A21FFF72BFC04F564
:10250000D675FFF7F9FA0FF228110FF230160FF215
:1025100034170FF240180FF2501902F076FD002820
:1025200035D00FF25410FDF7FBFD22221521FFF7E5
:1025300011FCFFF7E1FAFDF7F3FD00F0DCF808B15C
:1025400000F0E2F800F0DCF808B100F0C5F804F2A1
:10255000545100F0D2F808B100F0C3F804F5AD61B1
:1025600000F0CBF808B100F0ADF804F27C5100F0B7
:10257000C4F808B100F09CF804F5B26100F0BDF8B1
:1025800008B100F08BF800F0B1F8FDF7C9FDDFF8F5
:10259000B0AC14220A215046FDF7A8FDDFF8A4BC18
:1025A0005946FFF7ABFA0FF2DC0102F02EFD0028CE
:1025B00037D00FF2DC00FDF7B3FD2422172150467F
:1025C000FDF794FD5946FFF799FAFDF7A9FD00F0D4
:1025D00092F808B100F098F800F092F808B100F015
:1025E0007BF804F2545100F088F808B100F079F853
:1025F00004F5AD6100F081F808B100F063F804F271
:102600007C5100F07AF808B100F052F804F5B2619C
:1026100000F073F808B100F041F800F067F800F03E
:102620001BBFBDE8F18F000048A70008D8A600082E
:102630005245432052454144000000004E554D4252
:1026400045523100534552564552204E554D424554
:10265000523200002B393839313134373634383082
:102660003600000000000000534552564552204EEF
:10267000554D4245523100007265616420534D53FF
:102680000000000052454320554E52454144000091
:10269000534D5320756E7265616400000420A0657F
:1026A0000FF20400FDF73CBD4E554D42455234003B
:1026B0000320A0650FF20400FDF732BD4E554D42D8
:1026C000455233000220A0650FF20400FDF728BD3B
:1026D0004E554D42455232000620A0653846FDF762
:1026E0001FBD0120A0653046FDF71ABD294604F242
:1026F000E44001F093BC04F59A61284602F085BCE1
:102700004146284602F081BC0020A0654846FDF7FE
:1027100007BD80B50FF21C00FDF702FDDFF8A40C29
:102720000121016441F28830BDE8024002F016B98F
:1027300028A200085245534554204D4943524F00AA
:1027400038B50FF25000DFF84C491F4DFDF7E8FC9B
:102750000020606000F026F8012200F03FF800F051
:1027600021F8002200F03AF800F01CF800F01EF802
:1027700000F022FD00F01BF8FFF742FB0020206074
:10278000A060E06A401C0628E06202DBBDE8314040
:10279000BFE731BD23235245534554204D433630C6
:1027A000232300004FF4FA6002F0D8B8B2A52846FF
:1027B000FDF7CDBC7CA300087837000844A40008CE
:1027C000D4030020F49D00080008014010A3000875
:1027D000000C0140E4A3000830A100084FF4807110
:1027E000284602F046B82DE9F84FDFF8A848DFF890
:1027F000A4A26268DFF8CC5B0FF2A4290FF2AC2B25
:10280000002A0AF184089DA659D12768314600F0B4
:10281000FDF920B1012F02D10220206027E1032F12
:102820002AD1594600F0F2F960B900F0EEF948B942
:102830000FF2243100F0EAF920B90FF2283100F04C
:10284000E5F928B10FF27020FDF76AFC0420206042
:1028500040460FF21C3102F0D8FB48B90FF21C3190
:1028600000F0D4F920B90FF2203100F0CFF930B3E5
:102870000FF25420FDF754FC206805281FD10FF2F9
:10288000942100F0C3F938B10FF25020FDF748FC55
:10289000062020600121E96340460FF2942102F0F6
:1028A000B4FB20B90FF29C2100F0B0F938B10FF25F
:1028B0003C20FDF735FC062020600221E9636068BA
:1028C0000128ABD1314600F0A1F920B1A86C012854
:1028D00004BF0221A9640FF2202100F097F90AF544
:1028E000D6760AF5687770B1082206214046FDF7D2
:1028F000FDFB00F086F902F074FB6865A86C032804
:1029000004BF0421A9640FF2F81100F07FF960B34D
:102910000A2208214046FDF7E9FB05F1800A394605
:10292000504601F07BFB02F05CFB2865504602F04C
:1029300058FB296D0A2904BF64222A650A2808BFAA
:102940006420286630460FF2C01101F03DFB51466D
:10295000304601F0B5FF50A101F0B2FF00F04EF992
:10296000A86C052804BF0621A9640FF2A81100F085
:102970004DF940B1A96C0120E863A865E865072915
:1029800004BF0820A8640FF2A81100F03FF920B995
:102990000FF2B01100F03AF948B10121A965E965DB
:1029A0000220A96CE863072904BF0820A8645946DF
:1029B00000F02CF960B900F028F948B90FF298112D
:1029C00000F024F920B90FF29C1100F01FF940B17A
:1029D0000120A8650021A86CE964092804BF0A2128
:1029E000A9640FF28C1100F011F948B90FF28C11A3
:1029F00000F00CF920B90FF2901100F007F928B19E
:102A00000FF29010FDF78CFB0020A86540460FF2F6
:102A10009C1102F0FAFA18B10FF29810FDF780FB42
:102A20000FF29C1100F0F2F878B10020A864606108
:102A30000FF29410FDF774FB012060620021A16188
:102A400020610FF29410FDF782FB0FF29C1100F051
:102A5000DDF840B10FF29810FDF762FB0020A8648A
:102A60006062FFF744FDBDE8F14FFFF73BBABDE8F8
:102A7000F18F0000E8A40008415400004F4B000013
:102A8000B4A00008ACA1000834A000087CA700088E
:102A9000D8A500080000002025000000C899000803
:102AA0002B435245473A20302C3100002B434752EC
:102AB00045473A20302C31004E6574776F726B2099
:102AC00072656164790000004E6574776F726B20E7
:102AD0006E6F7420726561647900000053494D3A4D
:102AE000204972616E43656C6C00000053494D3A99
:102AF000204D4349000000002B43535100000000CB
:102B00002B43424300000000426174746572793ABD
:102B1000000000002B434F50533A20302C302C2221
:102B20004D544E204972616E63656C6C220000004A
:102B30002B434F50533A20302C302C2254434922FF
:102B4000000000002B434F50533A20302C302C22F1
:102B500034333233352200002B435245473A20327A
:102B60002C3100002B435245473A20302C350000D1
:102B70002B43475245473A20302C32002B435245D5
:102B8000473A20302C3200002B435245473A20323E
:102B90002C3200002D2D2D4E6574776F726B206ED8
:102BA0006F742072656164792D2D2D002B434D4784
:102BB00053000000534D532053454E440000000085
:102BC0002B434D5449000000534D532046524F4D66
:102BD000205541525400000041542B434D474C3D79
:102BE00022414C4C220000002B434D474C0000007A
:102BF000496E70757420534D530000003046FDF748
:102C00008FBA3946304601F009BA4946404602F0CB
:102C1000FCB9F0B5DFF8585BDFF8A847E96DB1F50E
:102C2000C87F9BB007DBDFF84C0BFDF779FA012179
:102C30002164FEF7FCFFE06C782807DB0021E164EB
:102C40000FF27C10FDF76CFAFFF77AFDDFF84464B1
:102C5000B16AA06C3C2959A707DB40B900F0B3FA70
:102C60000120A0640021B1629EE003290ADB012853
:102C700008D10FF26010FDF753FA00F0F9F80121C6
:102C800000F002F9A16C0FF26010022907D1FDF7E4
:102C90005EFA00206064B0620320A0648BE0032928
:102CA00009D1B16A032917DB616C491C61640022F8
:102CB000B262FDF74CFAA06C0FF23417042806D16B
:102CC0000FF23410FDF72CFA052000F078FAA06C12
:102CD000052808D1B06A032866DB00F0C9F8002196
:102CE000B16200F070FAA06C0FF22447062806D1FA
:102CF0000721A1640020B062606400F064FAA06C57
:102D000007280BD1B06A03284EDB0FF2FC00FDF759
:102D100007FA00F0ADF8072100F0B6F8A06C0FF24A
:102D2000A437082806D10FF2F400FDF7F9F90920BD
:102D300000F045FAA06C09280BD1B06A032833DBF8
:102D40000FF2EC00FDF7ECF900F092F8092100F029
:102D50009BF8A06C0A2827D10021A164B1626164AC
:102D6000E1640121A16505F5D6760FF2D400FDF7E7
:102D7000D7F9636D226D0FF2E001304601F024F9BE
:102D8000FFF73CFF0020E8656420616D41431F228E
:102D900091FBF2F2626600F074F800F06DF800F05A
:102DA00066FC02A8FDF7BCF9606C032803DB002178
:102DB0006164FFF7C5FC1BB0F0BD0000415400008A
:102DC0002153696D2063617264204572726F7221B4
:102DD000000000004D43363020436865636B20459A
:102DE00072726F720000000041542B435351000077
:102DF00041542B43424300002A2A2A414E54454E57
:102E0000204F4B2A2A2A00002D53494D204341527E
:102E100044204552524F522D000000002A2A2A53C6
:102E2000696D2043617264204F4B2A2A2A000000FA
:102E30002D4E4554574F524B204552524F522D0064
:102E40002A2A2A4D43363020434845434B20444FDD
:102E50004E452A2A2A0000004D4336305F42415435
:102E60003D256420414E54454E3A25640000000043
:102E7000606C401C60647047CDE90001206F01F078
:102E8000F5BDE06E01F0F2BDA1640020B0623846ED
:102E9000FDF75DB9F8B57F4CDFF8886B20684FF41B
:102EA0009175B8B90FF2FC10FDF73AF90021716085
:102EB00006F10C00294602F0BFF800203080FFF731
:102EC00075FCFEF79DFFFFF772FC0020A06001215A
:102ED0002160F1BD012808D1A0680328F9DB0FF2B9
:102EE000D810FDF71DF9FFF72BFC20680FF2D4175F
:102EF000022818D10021E1620FF2D410FDF710F979
:102F00000020B0600321A06021600FF2CC10FDF71B
:102F10001EF900F051F90FF2CC10FDF718F900F08E
:102F20004BF900F050F92068032815D1A068032858
:102F300022DB0FF2BC10FDF7F3F800F044F9B068A3
:102F4000401C0F28B06005DB0FF2B410FDF7E8F865
:102F5000FFF7F6FB0020A06020680FF2B4170428EA
:102F60000BD10FF2B810FDF7DBF800F02CF90020C0
:102F70000521A0602160B060F1BD052811D1A068D5
:102F80000128F9DD0FF2A010FDF7CAF800F01BF9D7
:102F90000020A060B068401CB0600428C8BFFFF7E4
:102FA000CFFB2068062874D10FF28C100FF2941713
:102FB000FDF7B6F80FF29810FDF7C9F8FEF720FFFD
:102FC000FFF778FAFEF71CFFFFF780FAFEF718FF0D
:102FD0000FF28810FDF7BBF8FEF712FF00F0F3F8D0
:102FE000FEF70EFF0FF28C10FDF7B1F8FEF708FFA9
:102FF00000F0E9F8FEF704FF0FF29010DFF87077A9
:10300000FDF7A5F8FEF7FCFE0FF28810FDF79FF81C
:10301000FEF7F6FE002060620FF28010FDF780F8E8
:103020000020B0602060A060FEF7EAFE0020F86596
:103030000121616070602946DFF85C0A01F0FCFF45
:1030400040F2271107F1840001F0FAFF00203080E0
:103050003621A162FDF7A7FBFDF7F5FCD7F880004C
:1030600001280DD10021C7F88010B96507F57570EA
:103070000FF2381100F0A8FFFEF780F9FDF72FFCE2
:10308000BDE8F84001224FF40051DFF8140A01F0C6
:10309000F0BBF1BDEC090020443100085C310008B0
:1030A000743100084D4336302046697273742053E2
:1030B00074617274000000004E6F20526573706F6F
:1030C0006E73650041542B435245473F000000009A
:1030D0004D433630204F4B0041542B434F50533D0E
:1030E0003000000041542B4346554E3D3100000056
:1030F0004E6574776F726B204572726F72000000BC
:103100002D2D5265736574204D6336302D2D0000D2
:1031100041542B434F50533F0000000053696D2032
:10312000636172643F00000053696D204361726403
:10313000204572726F720000436F6E666967204DA2
:103140004336300041542B434D47443D312C34002D
:1031500041542B434D47463D3100000041542B4321
:10316000504D533D224D45222C224D45222C224DBF
:103170004522000041542B43504D533D22534D22D4
:103180002C22534D222C22534D2200004154453015
:103190000000000041542657000000002A4D43362D
:1031A000302072656164792A00000000434F4E466A
:1031B00049472050554D5000FA2001F0CFBBA06484
:1031C0000021B16261643846FCF7C1BF10B5DFF879
:1031D000D448606808B9FFF75DFE6068012805D132
:1031E000FFF717FDBDE81040FFF7B8B810BD38B5C0
:1031F000DFF8B448606A012810D1A069DFF8EC5C00
:1032000000210128616203D10121A965FEF7A6FD15
:10321000A06918B90121A965FEF7C0FD206A01283F
:103220000CD1E06900212162012808BFFEF73AFBBA
:10323000E06918B9BDE83140FEF74CBB31BD000074
:1032400084000020A00300202DE9F84FDFF85CA8DF
:1032500000F0FDF8DFF81845DFF85458DFF854980F
:10326000DFF854B8DFF85488DFF83868002804BF66
:10327000706D002835D10121F165306E012830DDF7
:10328000002131660020F06501217165B065E16FB4
:10329000012901D100F0D1F80FF22C10FCF740FF0A
:1032A00000F0C6F800F0BFF808B900F072F959460E
:1032B000484601F0AAFE08B900F067F9FEF7C8F821
:1032C0005946FFF71AFA08B900F05BF900F0A6F8C2
:1032D00008B900F04FF9FEF7BBF8FEF7A8FCFDF7C0
:1032E00042F800F0B4F80128DFF8BC7708D138685C
:1032F000401CB0F5FA7F02DB0020F06530663860D4
:10330000B06D3C2806DB0021B16571650FF2CC0081
:10331000FCF706FF00F096F8002804BF7868002844
:1033200037D138694CF25031401C8842386130DB6B
:10333000002038610021F96001207860B960E06FF9
:10334000012801D100F079F80FF2A400FCF7E8FEA3
:1033500000F06EF800F067F808B900F01AF9594665
:10336000484601F052FE08B900F00FF9FEF770F878
:103370005946FFF7C2F908B900F003F900F04EF81A
:1033800008B900F0F7F8FEF763F8FEF750FCFCF719
:10339000EAFF00F057F8012808D17869401CB0F521
:1033A000FA7F02DB0020F86038617861B8683C2859
:1033B00005DB0021B96079600FF24C004CE0BDE8FC
:1033C000F18F00006009002053656E736F7220500A
:1033D0004952205761726E696E67000053656E73C3
:1033E0006F7231205265616C697A65642E2E2E00F1
:1033F00053656E736F72204C61727A6573682057E3
:1034000061726E696E67000053656E736F72322071
:103410005265616C697A65642E2E2E00594604F55A
:10342000B26001F0F2BD594604F2545001F0EDBD16
:10343000414604F5757000F0C7BD012210215046C9
:1034400001F017BA4FF48051504601F00CBA4FF416
:103450000051504601F007BABDE8F24FFCF760BEDC
:103460002DE9F84FDFF8887ADFF8881A386FC04CFA
:10347000DFF8845ADFF83866DFF83C86DFF87C9A9C
:1034800001F0CCFA04F5757A33D2786F012830D187
:10349000DFF86CBA00F07BFA00F079FA0020786768
:1034A0000FF2B800FCF73CFE494600F067F8A06E4A
:1034B000012813D100F076F808B900F06AF800F09E
:1034C0006CF808B900F061F8FEF712FB08B900F0DB
:1034D00058F8FFF715F908B900F04CF8FEF7A7FB0C
:1034E0000020B8670121F967A06E012808BFFCF72A
:1034F0003AFF386FDFF80C1A01F0A4FA2CD8786F75
:10350000002829D1012179670FF25C00FCF708FE41
:1035100009F1480100F032F8F86F01281AD1A06EC5
:10352000012813D100F03EF808B900F032F800F09D
:1035300034F808B900F029F8FEF7DAFA08B900F013
:1035400020F8FFF7DDF808B900F014F8FEF744F8AA
:10355000012038640021B967BDE8F18F506F7765AD
:1035600072204F6666000000506F776572204F6EC4
:10357000000000000420A065FDF784BF504600F065
:1035800023BD0320A065FDF77DBF0220A065FDF7E8
:1035900079BF0120A065FDF775BF414604F5AD6018
:1035A00001F033BD414604F2545001F02EBD10B578
:1035B000DFF83C49608801F047FDDFF8501901F061
:1035C00051FDDFF84C1901F0B9FDDFF8481901F0A1
:1035D000B5FD01F04BFA4FF06632DFF83C3901F0EF
:1035E00039FE01F031FCE06610BD10B5DFF800498E
:1035F000208801F029FDDFF8141901F033FDDFF810
:10360000101901F09BFDDFF8141901F097FD2067F8
:1036100010BD18B5DFF8D848A06E01288FB024D1AE
:10362000606944F6206190FBF1F1218044F620614D
:10363000A069002290FBF1F162616180A261FFF755
:10364000D4FFFFF7B4FFDFF8D808016B05290ADBC8
:1036500000220263FFF715FCFFF70EFC00F007F8ED
:1036600002A8FCF75DFD0020A06610B010BD024668
:103670000B460FF20C0102A800F0A6BC00000000EF
:10368000566F6C746167653A20252E3266207C2067
:1036900043757272656E743A20252E326600000002
:1036A0002DE9F047DFF8FC73314CB86BDFF8509828
:1036B000DFF87058DFF87088DFF83468142804F5F4
:1036C000757A3ADBF06E414601F0BCF938D84FF01C
:1036D0003F4101F095FEE066FDF721F8F06E4FF0F6
:1036E000804101F08DFE2067FDF71BF80120A065E9
:1036F0002946FFF743FFFDF7C5FEFEF796FAFFF7F1
:10370000C0FBFEF7EBFA504600F05EFCFDF736FE1C
:10371000FEF78BFAFFF7B2FB02460B460FF2580199
:10372000504600F051FCFDF729FE0020B863786395
:1037300000222021484601F09CF8B86B142815DBC4
:10374000F06E414601F06AF910D20120A06505F142
:10375000B401FFF713FFFDF795FEFEF768FA484640
:10376000BDE8F0470022202101F083B8BDE8F087D2
:103770000000002050A800084F7665722043757243
:1037800072656E743A20252E3266204100000000DA
:103790002DE9F84FDFF85847DFF88C17E26EC14D7E
:1037A000DFF84867104601F04DF900F2BC80F06E7A
:1037B000114601F047F909D8E86BE96C084305D1D7
:1037C0000120E8630FF28410FCF7AAFCE16EF06EB2
:1037D00001F024F90CD20846316F01F01FF907D22D
:1037E000E86B012804D10021E963296400F0B4F8F2
:1037F000286C3188AF4FDFF834870FF27479DFF827
:1038000030A7DFF8FCB6884235DBE86C002832D1FF
:1038100000212964E8630121E96400F0B8F800F0B0
:10382000B1F8FFF7C9FC00F0A7F800F0B5F8514671
:1038300006F5757000F0C8FBFFF7E7F908B900F06E
:10384000B2F84946384601F0E0FB10B9022000F01A
:10385000ABF800F08CF810B9032000F0A5F800F0E8
:1038600081F810B9042000F09FF8FEF79BFFFCF7E9
:103870007AFD00202865E06E316FEA6C01F0E2F815
:1038800004D8686C104304BF01216964A86C042843
:1038900037DD002A35D100206864A864202101208A
:1038A000E864584600F0E5FF00F06CF8FFF784FC90
:1038B00000F062F800F070F80AF1780106F5757012
:1038C00000F082FBFFF7A1F908B900F06CF8494657
:1038D000384601F09AFB10B9022000F065F800F0BC
:1038E00046F810B9032000F05FF800F03BF810B97B
:1038F000042000F059F8FEF755FFFCF734FD0020D6
:103900002865E16EF06E01F089F80CD20846316F3F
:1039100001F084F807D2686C012804D100216964A1
:10392000A96400F019F8E86C01280CD1286D7188A1
:10393000884208DB0020E8642865BDE8F24F0FF2FA
:103940005860FCF7EDBBBDE8F18F0000486176617F
:10395000204B657368690000E96429650FF22060F7
:10396000FCF7DEBB494606F5B26001F04EBB4946A6
:1039700006F27C5001F049BB0020716E3066C9B27E
:10398000FCF7D5BE00224021584600F072BF00224D
:103990002021584600F06DBF002070660021306E77
:1039A000C0B2FCF7C4BE0120B065FDF76BBD10B519
:1039B000FFF72FFE3B4C606B012808BFFFF770FE3E
:1039C000606B50B9DFF82405016E01291CBF406E01
:1039D000012802D1BDE81040DAE610BD0068DFF82A
:1039E0005415884200D0704710B5DFF84C154A884E
:1039F00040F221108242A4BF00234B804A888242B9
:103A000009DA4888244B441C4C8001240A781A5453
:103A100000204865CC640122BDE81040DFF81C0599
:103A200000F096BB680600207CB501F09BFDDFF836
:103A300008150A6D821A642A03D30865486D401C74
:103A40004865486D022825DDC86C012822D1002276
:103A5000114C0FF254554A65009410A609E0034634
:103A60002A4640F22711DFF8D80401F081FDFEF765
:103A7000BAFE00986A46314601F09CFD0028EED15E
:103A8000DFF8B454E8644FF49171204601F0D4FAA1
:103A90000020688073BD0000980700200D0A000018
:103AA00000100140EC0900203C0B0020000C0140FC
:103AB0007C05002068050020703F0008B0A70008C2
:103AC0002DE9F04786B001F093FD00F0C1F968469A
:103AD00000F0FDF9DFF86C54DFF86C746868DFF80B
:103AE0002064DFF8684440F0100068604FF48059AB
:103AF000686800F0100004900498696841F02001A3
:103B00006960686800F0200004900498696841F0DA
:103B100004016960686800F0040004900498696812
:103B200041F0080169604FF40051686800F0080036
:103B300004900498384600F09CFE00224FF4B071C7
:103B4000304600F096FE0022F021FEF799F80121A0
:103B500001914FF4005000F06CF9384600F0B4FDCC
:103B6000012101914FF4B07000F063F9304600F08C
:103B7000ABFD0021019101220292CDF8009000F0EE
:103B800063F94FF46040002100900191022200F09F
:103B90005AF94FF4C0500021009001910222029284
:103BA0006946304600F090FD01210191102002216C
:103BB00000F046F9012101912020032100F040F995
:103BC000C0201121009001910321012200F03AF957
:103BD000286840F00100286000222968CA4D01F0E1
:103BE00001010091002100980B2001F02AFD0B201B
:103BF00001F044FD684600210022002380E80E0009
:103C0000D34929604FF480704FF46021E961A860C6
:103C1000012202212A732B756B602961284601F06D
:103C200055FD08B100F0A2F900200121009001919A
:103C3000072202926946284601F047FE08B100F0CB
:103C400095F901200221009001912846694601F072
:103C50003CFE08B100F08AF902A8002100220023EE
:103C6000002680E84E00CDE9001241F61F40B94E13
:103C7000B9497060316042F21070F060B260326138
:103C80007261B261304601F03FFF08B100F06EF999
:103C9000CDF8089002A9304602F028F808B100F0EB
:103CA00065F90020009001906946304602F0F4F872
:103CB00008B100F05BF98D4F9E4878600C21002020
:103CC000F86038617861F86138624FF4165AB9616A
:103CD000C7F808A0381D00F0ADF908B100F046F9AA
:103CE000DFF854829D48C8F8040000210C20C8F871
:103CF0001800C8F80C10C8F81010C8F81410C8F84C
:103D00001C10C8F82010C8F808A008F1040000F042
:103D100091F908B100F02AF99148F864052140F6BC
:103D2000FF707865396507F14C0000F037FE08B187
:103D300000F01CF906F190008A49016000224260FF
:103D40005F237F214FF400728360C160026102F043
:103D5000D5F808B100F00AF902A8002100220023DA
:103D60008C4680E80E10CDE9001264207E49F06494
:103D70007065B1643265B265326606F1480001F0E3
:103D8000C3FE08B100F0F2F8CDF8089002A906F1E0
:103D9000480001F0ABFF08B100F0E8F80020009007
:103DA0000190694606F1480002F076F808B100F08B
:103DB000DDF8012000F0D2FD022207F2D45128469E
:103DC00001F0FEFC304601F0ACFE06F1480001F0C7
:103DD000A8FE01224146381D00F0BAF90FF2D010BA
:103DE0004F4DFCF79DF901221021FDF749FFFEF729
:103DF0007BFB00221021FDF743FFFCF708FB3C4C46
:103E0000FFF712FEFFF7E2F9686801280CD1FFF70F
:103E100027FBFFF7CCFDB86E012802BF606F0128B9
:103E2000FFF712FAFFF7E3F907F14C0000F0E1FDAC
:103E3000E6E7022100900022039102926946704752
:103E400000900022039102926946204600F03CBC9B
:103E500018B593B0282109A801F0EEF8142168469E
:103E600001F0EAF805A800F032F8092109910123D0
:103E70004FF480310A910D930F93119102234FF467
:103E8000E0110B921093129109A802F05DF808B1AD
:103E900000F06CF8022101910F204FF48061009036
:103EA0000391029404940221684602F0CCF908B10F
:103EB00000F05CF8022005904FF40041079105A83E
:103EC00002F094FA08B100F051F814B010BD0021CE
:103ED00000220023002480E81E007047044A116C71
:103EE000002908BF02F01EB8704700000000002043
:103EF000600900200000E040900500209CA200081E
:103F0000000801400100E0400C0B00203333534017
:103F100000F07F457B14AE3D666606408195C33D4B
:103F2000EC090020A49B00089A99993E54050020B2
:103F3000F09C000800380140700A002004000020B6
:103F4000840000201410024000100140000C0140C9
:103F500000240140BC080020002C01400044004027
:103F600000300040002C00400008004072B6FEE720
:103F70002B393831313131313131313100000000EC
:103F800043757272656E74206F6B20616E6420528F
:103F900065616C697A65000054696D6520526561E0
:103FA0006C697A650000000025730D0A00000000AE
:103FB0002A2A2A2A53746172742050726F677261C0
:103FC0006D2A2A2A2A0000000CB430B583B00A46B4
:103FD00006A90291044600250194009502AB01A9AF
:103FE000084878441E3002F078FA019A15700028CB
:103FF0004EBF04460198041B204603B030BC5DF858
:104000000CFB00BFEB0F000000F1010310F8011BD7
:1040100011B110F8011BFBE7C01A70475FEA000CF2
:1040200011F8012B00F8012B12B111F8012BF9E75F
:104030006046704738B5040001D1012032BD04F15B
:104040004005687808B900F011F800F014F800F0A5
:1040500023F8FFE7416100F018F8686020216970DB
:104060002020A87000216163002032BD002129704A
:10407000204603F035BA242068702068C16821F416
:104080000051C160204600F0DEBA2068C16841F4EA
:104090000051C160002070472068016921F49041FF
:1040A00001612068416921F02A0170472DE9FC4136
:1040B00006460D4696F84100202814461F4640D17A
:1040C0000DB1200001D101203CE0002070642121CD
:1040D00086F8411001F046FAB4848046F48400F07A
:1040E00033F804BF306900281ABF2C46002500248D
:1040F00012E000228021304600F0C2F9E0B93068B9
:10410000002C12BF14F8011B35F8021BC1F3080183
:104110004160F08C411EF1844346F08C00970028EA
:10412000E7D100224021304600F0AAF920B9202032
:1041300086F84100002005E0202086F84100032099
:1041400000E00220BDE8F681B068B0F5805F7047FE
:1041500010B500F130039C7C202C0AD109B1140069
:1041600001D1012010BD00241C60BDE8104000F00A
:10417000C4B9022010BD216801F1140353E8001FE7
:10418000206800F1140221F0400142E800100028EC
:10419000704721F0100142E8001000287047F8B580
:1041A00004462268136811460846CD68466913F034
:1041B0000F0F03F0200105F0200007D1002918BFE0
:1041C00000285DD02046BDE8F240D5E1F70702D4D3
:1041D00015F4907F54D0DA0705D5ED0503D5626C50
:1041E00042F0010262645A0705D5F50703D5626CF7
:1041F00042F0020262649A0705D5F50703D5626CA6
:1042000042F0040262641A0706D508B9F20703D522
:10421000636C43F008036364626C002A2FD00029AA
:104220001EBF0028204600F0A7F920684069616C95
:104230000A0701D440061DD5204600F079F9206810
:104240004169480611D5FFF796FFFCD1E06B60B1DC
:104250000FF215314163E06B03F069FA00280ED0CC
:10426000E06B416BBDE8F44008472046BDE8F240F2
:1042700003F06BBB204603F068FB00206064F1BDD7
:10428000206B012804F1410140F09680D80600D54A
:10429000EE0640F19180002300931268009223689B
:1042A0005A680092009822685369580646D5E26B16
:1042B0001068406880B20028E1D0A38D9842DEDA11
:1042C000E0859069202831D0226802F10C0555E87C
:1042D000002F206800F10C0322F4807243E80020D4
:1042E0000028F1D100F0A8F8520800F114035200A0
:1042F00043E800200028F5D100F09EF800F11403F7
:1043000022F0400243E800200028F5D12020487028
:1043100000212163226802F10C0151E8001F0C32D8
:10432000FFF737FFF6D1E06B03F0DCF902206063A2
:10433000A18DE08D091A89B2204639E0A38DE28D66
:10434000E08D9B1A00281CBF98B2002873D022462B
:10435000146804F10C0656E8004F106800F10C05D3
:1043600024F4907445E800400028F1D1146804F169
:10437000140656E8004F1068640800F11405640044
:1043800045E800400028F1D1202048700021116349
:10439000146804F10C0151E8001F0C3421F01001E5
:1043A00044E800100028F3D10220506399B210466F
:1043B000BDE8F44003F0CABA18062BD52A0629D561
:1043C0000878212837D1A068B0F5805F04BF206944
:1043D000002809D1226A21681088C0F308004860CB
:1043E000206A811C216205E0206A411C216222684A
:1043F00000785060E08C401EE08480B2D8B920681C
:10440000C16821F08001C1602068C16841F04001AD
:10441000C160F1BD58060ED56A060CD52368D86870
:104420001A4620F04000D060202008702046BDE8E9
:10443000F24003F08CBAF1BD226802F1140555E890
:10444000002F20687047026802F10C0454E8002F26
:10445000016801F10C03704742F0010243E80021BA
:1044600000297047026802F1140454E8002F016823
:10447000520801F11403520043E80021002970475B
:104480002DE9FC41089C05460E4690461F462868CB
:1044900001683140B1420CBF0120002040452AD1C3
:1044A00014F1010FF3D001F05DF8C01B844200D37A
:1044B00014B90320BDE8F6812968C8684207E6D52B
:1044C000802E18BF402EE2D0084602681307DED5C2
:1044D000002000902B681A680092496800910098AB
:1044E000284600F025F805F140000821416000222F
:1044F00002700120DEE70020DCE781628285C28550
:1045000000214164222280F84220016921B1016822
:10451000CA6842F48072CA6001684A6942F00102C6
:104520004A610068C16841F02001C1600020704705
:1045300010B5FFF788FF22F49072FFF78FFFF8D1D4
:10454000FFF790FFFCD1016B012906D1FFF77BFF3C
:1045500022F01002FFF782FFF8D1202180F84210EC
:104560000022026310BD0000406A0021C1850022C4
:10457000C28403F0EAB900001CB590F84210222969
:1045800052D18168826AB1F5805F0AD1016969B947
:1045900003685968C1F308011180826A911C816225
:1045A0000FE0002904BF0169002902D1036859689E
:1045B00003E00168496801F07F011170816A4A1CBB
:1045C0008262C18D491EC18589B259BB0168CA6822
:1045D00022F02002CA600168CA6822F48072CA60B0
:1045E00001684A69520852004A61202180F842104D
:1045F00000224263016B012912D1026300F016F818
:1046000001680A68D30607D5002200920B68009360
:10461000046862680092009B818D03F097F901E0C5
:10462000FFF7DCF9002016BD022016BD036803F178
:104630000C0252E8002F0C3322F0100243E8002154
:104640000029F3D1704710B5044622681169E0686B
:1046500021F4405101431161D3681948A168034016
:1046600020690B43616903430B43D36015495369C8
:10467000A06923F4407303438A42536102D101F0DD
:1046800089FE01E001F07EFE626819214843920034
:10469000B0FBF2F16423B1FBF3F26FF0630000FBB7
:1046A000021109013231B1FBF3F000F0F00101EB2E
:1046B0000211226800F00F004018906010BD000049
:1046C000F3E9FFFF003801402DE9F84F00239E4633
:1046D0006E4CDFF8BC816F4EDFF8BCB14FF00F09B4
:1046E00002460CE025682840206007E0C4F804C0BA
:1046F0004F68FF03F6D52068054325605B1C0D68F5
:1047000035FA03F000F0AD80012000FA03FC0CEA5A
:1047100005056545F2D1486858B301281AD002282A
:104720001FD0032833D0112817D012281DD05B4F7B
:10473000B8421CBF5A4FB8421BD05A4FB8421CBF98
:10474000594FB84215D0594FB8421CBF584FB842C4
:104750000FD01EE0D1F80CE01BE0C86800F1040E99
:1047600017E0C86800F1080E13E0C86800F10C0EED
:104770000FE0886810B94FF0040E0AE001284FF0EE
:10478000080E14BFC2F814C0C2F810C001E04FF008
:10479000000EB5F5807F03D210464FEA830C04E08B
:1047A000A3F10807101D4FEA870CD0F800A009FA02
:1047B0000CF72AEA07070EFA0CFC4CEA070CC0F8C3
:1047C00000C04868C00099D5376847F001073760D6
:1047D0009F00306800F00100009007F00C0C00987A
:1047E000980858F820A009FA0CF72AEA070A5A454F
:1047F00008BF00270ED02F4FBA4208BF012709D0AB
:104800002D4FBA4208BF022704D02C4FBA420CBF2A
:104810000327042707FA0CF747EA0A0C48F820C0D8
:10482000E8434F68D4F808C0FF024CBF45EA0C0CBF
:1048300000EA0C0CC4F808C04F68D4F80CC0BF02E2
:104840004CBF45EA0C0C00EA0C0CC4F80CC04F68D5
:10485000D4F804C0BF034CBF45EA0C0C00EA0C0CB2
:1048600044E7BDE8F18F8068084018BF0120C0B25E
:10487000704702B9090401617047C26801EA020386
:10488000914341EA03410161704700000004014087
:1048900008000140181002400008014000001110FB
:1048A0000000121000002110000022100000311042
:1048B00000003210000C01400010014000140140C3
:1048C000034600E05B1C1A78002AFBD111F801CBEB
:1048D00083F800C013F8012B002AF7D17047F0B419
:1048E0000246106895681318506803EB5004C0071F
:1048F00048BF4D44A3422DD013F8016B16F00300BE
:1049000004BF13F8010BC01C31090F2907D113F89C
:10491000011B0F3103E013F8017B05F8017B401EFA
:10492000F9D10029E6D013F8010BC6F38106032E56
:1049300008BF13F8016B00EB062040422844002614
:10494000B71E8F421EBF10F8017B05F8017B761C55
:10495000F6D1CFE7F0BC02F10C00704738B5044641
:1049600000F000FE14F1010F054602D0044908785A
:10497000041900F0F7FD401BA042FAD331BD00BF7F
:10498000D80500204AB1000011F8013B521E00F882
:10499000013B1CBF11F8013BF8E7704738B5040034
:1049A00001D1012032BD20684CF6CC41016045F2B6
:1049B0005552026063684360A168816000F0D2FDD7
:1049C00005462068C16811F0030F0DD000F0CAFD44
:1049D000401B41F23D318842F3D32068C16811F099
:1049E000030FEED0032032BD4AF6AA210160002059
:1049F00032BD00684AF6AA210160002070470368B2
:104A00001AB95A1E026008467047197811B94FF05A
:104A1000FF307047591C01601878704740EA010C5C
:104A20001CEB0C0F4FF0807C07D305D01CEB400F24
:104A30009CBF1CEB410F814270471CEB410F98BF9C
:104A40008842704740EA010C1CEB0C0F4FF0807C51
:104A500007D305D01CEB400F9CBF1CEB410F8842D5
:104A600070471CEB400F98BF81427047C0F3C7519D
:104A700081B1FF2906D0C110400721F0E04101F1CA
:104A80006051704741020CBF40F4E0016FF00041FB
:104A90000020704700F0004100020AD0B0FA80FC0C
:104AA00000FA0CF001F16051A1EB0C5101EBD021A7
:104AB0004005704738B504000D460BD02946204606
:104AC00002F046FF0444207848B90C4800210160F8
:104AD000002032BD09490C68002CEFD132BD2946B7
:104AE000204602F046FF2118087810B1002201F894
:104AF000012B02480160204632BD00BF680B002038
:104B00000DB41EB506A801900A460024009401AB1E
:104B100005A9044878440C3002F064FF03B010BCCF
:104B20005DF810FBDBFEFFFF2DE9FC4D1600824611
:104B30008B461F4600F0D5803BF0004108BF00289F
:104B400000F0CF804FEA4B02521512F1010F08BF5F
:104B50005FEA0B3000F0C5800020002EA94954D533
:104B60007642624D7D4405F5C275082408E0F207DF
:104B700044BFD5E9002300F06DFB76080835641EBC
:104B8000002E18BF002CF2D104460D466A4650464E
:104B9000594603F0BDFDDDF8008022462B4603F0A8
:104BA000EFFD424603F010FF82468B462AF00002DA
:104BB0003BF0004308BF002A7CD04FEA4B01491567
:104BC00011F1010F0CBF5FEA0B30002E72D050467E
:104BD00059466A4603F09CFD009C8B4A8B4B00F0C3
:104BE00039FB224603F0F0FE20F0000431F00045CE
:104BF00008BF002C5CD04B005B1513F1010F01D1F5
:104C00000A0355D0761EE4D152E053DD374D7D4482
:104C100005F1DA050824F20744BFD5E9002300F0C6
:104C200019FB76100835641E002E01DD002CF2D130
:104C300004460D466A465046594603F069FDDDF8C4
:104C4000008022462B4600F005FB424603F0BCFEE6
:104C50008B4682463BF0004108BF00282AD04FEA2D
:104C60004B02521512F1010F08BF5FEA0B3021D041
:104C7000002E1FDD504659466A4603F049FD009C50
:104C8000634A644B00F0E6FA224603F09DFE20F0F2
:104C9000000431F0004508BF002C09D04B005B1523
:104CA00013F1010F01D10A0302D0761E002EE3DCBE
:104CB00082468B462AF000003BF0004108BF0028E6
:104CC00008D04FEA4B02521512F1010F08BF5FEAFC
:104CD0000B3006D1AFF300801FB1386840F00100FF
:104CE000386050465946BDE8FC8D00BF6C59000045
:104CF0002DE9F84909B486B00C4615460BB10021E0
:104D000019602146069E06A803F0FBFEC71020F09E
:104D10000800012807F0010704952FD10220009018
:104D200001AB06992246304603F07CFF040002D115
:104D3000002000211DE0029804F050F8022C18DB3E
:104D40000DF10C08661EDFF8D0B002460B460020BD
:104D5000594600F07FFA044658F8040B0D4604F05B
:104D60003DF822462B4604F04BF8761E02460B46D1
:104D7000EDD1049A019C079BA2182CE002282DD1AA
:104D8000009001AB06992246304604F069F9040010
:104D900002D10020002119E0029804F01FF8022C33
:104DA00014DB0DF10C08661EDFF870B000225B46C4
:104DB00000F050FA044658F8040B0D4604F00EF8C3
:104DC00022462B4604F01CF8761EEFD1019A03F020
:104DD000FBFD079B049AFFF7A7FE0CE0032802D116
:104DE00000200F4907E0042807BF4FF0FF306FF0A5
:104DF0000041002000210FB181F0004109B0BDE861
:104E0000F08900000000F03F436FAC642806C80A38
:104E10003CBF737FDD4F157565CDCD410000B041BE
:104E20000000F07F002363E700220021FAE7826898
:104E3000521C8260426832B10268531C03601170D8
:104E40004168491E4160704701F000428B1AA3F18E
:104E50006051B1F5801F0ADBB1F17F6F1FD242EACA
:104E6000C102C10071F1004142EB507070470B1557
:104E7000C3F10903212B10D2890241EA905180022B
:104E80000128494141F0004121FA03F0C3F1200318
:104E9000994071F1004150417047100070476FF028
:104EA000000013EB103F5CBF000E42EAC050704799
:104EB0002DE9F84F84B0894615460BB100221A60DF
:104EC0000446274600E07F1C387804F0CFF900281C
:104ED000F9D138782D2816BF2B2817F8018B4FF001
:104EE0002B08002DCDF8049003D4012D01D0252DE1
:104EF00005DBB9F1000F4DD0C9F800404AE0002DA4
:104F00000ADD102D04BF3878302802BF787840F0D1
:104F1000200078280ED10AE03878302818BF0A25FA
:104F200008D1787840F02000782802D11025BF1CE5
:104F300000E00825039700E07F1C38783028FBD07C
:104F4000DFF818B0FB440BF1140B4FF000090BF124
:104F500028000297CA468DF800000AE0DC550000E0
:104F600006469DF80000361ACA46F6B205FB0969E6
:104F70007F1C387804F084F901462A460BF128009A
:104F800004F088F90028EBD10399B94204D10198C3
:104F900000B10460002020E002991BF80500791A96
:104FA000091A002910D406DCB9EB060603D3B6FBB8
:104FB000F5F0504508D0AFF30080049808B1012106
:104FC00001604FF0FF3904E0B8F12D0F08BFC9F1BF
:104FD0000009019800B10760484605B0BDE8F08FB0
:104FE00003E0FFE70A220021FAE7002360E70268F6
:104FF000531C03601170704710F8012B11F8013B2E
:105000000AB19A42F8D0D01A704770B50D462C7884
:1050100034B970BD11F8013F1678B34206D0401C78
:10502000214604F063F928B101462A4612F8013FEF
:10503000002BEFD170BD2E00002204F063B94300B5
:10504000002204F079B9000050B1B0FA80F1884034
:10505000C1F19D01C905020672F1004241EB102029
:1050600070470000FF2212EAD05C1DBF12EAD15344
:10507000944593422BE09C44D30780EA010243EA23
:10508000002043EA01211A40A1FB0030C04238BF92
:1050900000187CF17F010BDBFE294ADA5B0842EA4B
:1050A000C15153EA006373F1004C51EB102070477B
:1050B000D1F1080CDCF120012FDB5B0810FA01F1C3
:1050C0000B4320FA0CF073F10041504170479445B6
:1050D0001CBF02EAD153934280EA010202F000426F
:1050E0001DD0400019D0490017D05BB9634514D0DA
:1050F0000902B1FA81F39940BCEB030CC00140F006
:105100000040C1E70002B0FA80FC10FA0CF0B3EBEB
:105110000C0CC90141F00041B6E710007047400097
:105120000AD0490008D010F1807F94BF11F1807F30
:1051300002E042F0FF407047D04370474FF0FF0C51
:105140001CEAD0531DBF1CEAD1526345624543E0BF
:105150009B1A5FEACC7280EA010C42EA01211CEA48
:10516000020C42EA0020421A38BF01EB420253F11E
:105170007E034FEA1121B2FBF1F001FB102260F334
:10518000D63C4FEA0222B2FBF1F001FB102260F3A1
:10519000CE1C4FEA0222B2FBF1F006DDFF2B29DA2A
:1051A0005CEA500040EBC3507047C3F1020301FBBF
:1051B0001022192B40EA4C010CF0004C41F0807198
:1051C00021DC21FA03F0C3F120039940114371F16E
:1051D000004250EB0C00704763451ABF0CEAD152F5
:1051E000624512E080EA010C00180CF0004C06D079
:1051F00049181AD10CF0004C4CF0FF407047C942DE
:1052000008BF6FEA020C60467047634506D1B2EBF7
:105210000C02F5D001F00041484070474A0212BF2D
:105220000846484000F0004070474AB90902B1FA08
:1052300081F2914043B19B18C00140F0004092E7D9
:10524000C90141F0004152420002B0FA80F3984097
:10525000D31A88E730B540F2FF7C1CEA11541DBF19
:105260001CEA1355644565453FE0641981EA030C67
:105270006FF35F530CF0004C43F48013C90241F00C
:10528000004141EA505EC5021100A5FB0202002860
:105290004FF00000EEFB01204FF00001E3FB052181
:1052A00018BF42F00102401800214941E3FB0E0102
:1052B000A4F580640D0302D292184041494154F193
:1052C000010470DD450872F1004250F1000051EB1D
:1052D0000451A1F5801102D441EA0C0130BD40F225
:1052E000FF7E4CEA0E51002030BD0CEA1355644598
:1052F00018BF654581EA030C0CF0004C41D050EA20
:10530000410E1CBF52EA430E02E06146002030BD50
:1053100024422C441BD15FEA050EF6D0090302BFDC
:1053200001460020AEF1140EB1FA81F5AEEB050492
:1053300001FA05FE0C35C5F1200100FA05F5C8405B
:105340004EEA000E6FF35F5343F480139CE733F093
:105350000043B3FA83F504BFB2FA82FE75440B3DF5
:10536000641BB5F1200E2FBF02FA0EF3AB40C5F15E
:10537000200E22FA0EFE38BF43EA0E03AA40641C38
:105380007CE750EA410E14BF52EA430E6FF0000171
:105390004FF4001515EB430F8EBF194615EB410F67
:1053A0009DE7B4D830BDD4F10104B4F120050FDA83
:1053B000C4F12005520828BF42F0010210FA05FE90
:1053C00001FA05F57244E2BFE0402843E1400FE0F6
:1053D000352C9ADCC5F1200452EA400220FA05F28D
:1053E00018BF42F0010231FA05F0A1400A43002142
:1053F00072F1004250F1000051EB0C0130BD000091
:1054000090EA010F40F16C8081F00041431A4FF0A7
:1054100000423EBF5340C01AC918D3095FEAD05CAE
:1054200013EB400F34BFB3EB410F40E07CEBD153A3
:105430000CD342EA012122D8D1EB402009D3400A03
:1054400028BF5FEA500140EBCC507047401A15D09E
:105450004002B0FA80F2521C9040400A4FEA3C23CE
:10546000B3EB026384BF00EB730007E040F400007D
:105470001A16DB07C2F10102D04018437047182BFF
:10548000FCDC31FA03F202FA03F3591A38BF42F096
:105490000102D2EB40203CBF0018ACF1010C5FEAE6
:1054A000CC5CC20572F100414CEB5020704713EB0D
:1054B000400F0FD2C94209D0ACEBD153022B03DB12
:1054C0004902172BDDDD70479143401AC042D5D108
:1054D0000020704713EB410FD0D36FF000007047EE
:1054E000421A3CBF801A8918C0F3C752FF2A4FF0F6
:1054F000004C22D0C1F3C7534BB3D21AD2F11903D7
:105500002EDD4CEA01214CFA03F321EA0303D140DA
:105510004CEA00226FF3160052180FD353EAC2531D
:105520004CEA520273EB0C0C50EB1220420012F1C9
:10553000807F38BF70476FF31600704753EA0263ED
:1055400022EA0C0273EB0C0C50EB1220704749025C
:1055500012BF9A4200EB5120EFE7D2F11703D2D5E8
:105560007047000001484068704700BFD805002020
:1055700008B410B585B007AB002404930394002948
:105580000EBF01940190491E0291009404AB01A941
:10559000074878441A3000F0A0FF019901B10C705F
:1055A000002858BF039805B010BC5DF808FB00BF89
:1055B0007FF8FFFF70B504000E46154608BF2C6843
:1055C000204602F0C5F90444207810B907A12960EB
:1055D00070BD3146204602F0CCF92118087810B190
:1055E000002201F8012B2960204670BD0000000058
:1055F00080B50748016841F010010160032000F008
:1056000016F80F2003F0A2FE01F0CCFE002002BD30
:10561000002002400901020002D42648815470474C
:10562000254B02F00F021A4402F8041C704723496C
:105630000A6860F30A2240F2FA5060F31F420A60DF
:10564000704770B51D4B1C68C4F302230124C3F1DD
:105650000705052D2EBF0F2504FA05F56D1E1E1D2D
:10566000072E34BF0023DB1E2940994004FA03F3C0
:10567000BDE870405B1E1A401143CBE7010007D420
:10568000012200F01F010E4B8A40400943F8202000
:105690007047401EB0F1807F01D301207047094957
:1056A000094A48600023F02010708B6007200860D2
:1056B0000020704700E400E018ED00E00CED00E091
:1056C00000E100E010E000E023ED00E0F8B5044662
:1056D00000270026002C71D004F12405686828B941
:1056E0000021A9602870204601F078FE204600F0D5
:1056F000AFF96968CA065DD401005BD1696821F41D
:10570000885141F0020169606368E269217B1A43B4
:10571000A36842EA4102B3F5807F14BF012B4FF426
:105720008077237D012B0FD131B9A169491E47EA4A
:10573000413747F4006707E0696841F0200169607C
:10574000A96841F00101A96021684B6823F469430D
:105750001F434F602368DFF8D4129F680F40174340
:105760009F60A168B1F5807F18BF012902D1266929
:10577000761E36052168CB6A23F470031E43CE6281
:105780002468DFF8AC12A3680B40934207D10022D3
:10579000AA6001216A6861F301026A60F2BD68686B
:1057A00020F0020040F010006860A86840F001009E
:1057B000A86003E0686840F0100068600120F2BD56
:1057C0002DE9F04706460C463068DFF87812DFF81E
:1057D0007052DFF868A29146884218BF504503D145
:1057E000286810F4702F65D106F124073878012855
:1057F00008BF022061D001203870304600F0DDF88B
:105800000028804653D17968DFF82C02014041F42A
:105810008071796001213068504516D12A6812F4F0
:10582000702F12D0786840F4801078602A68500594
:1058300003D5786861F30D3078607868C10446BF9D
:10584000B86820F00600002006E07A6822F4801292
:105850007A6040684205EBE7B86000212246397063
:105860004B46346A0FF23920A062316A0FF2792078
:10587000C862316A0FF2792008636FF00200346861
:1058800020603068816841F480718160306800F187
:105890004C01306A01F0E2FE306800F010F88168D7
:1058A0000CBF41F4A00141F48011816004E00020AC
:1058B000387001E04FF001084046BDE8F08781688C
:1058C00001F46021B1F5602F7047F8B50023009313
:1058D000002200F124031C78012C01D10220F2BD2A
:1058E00001241C701F264F680C680568072F08D21A
:1058F0007F1E07EB8707D5F834C000F058F86C63BB
:1059000012E00D2F08D2FF1F07EB8707D5F830C034
:1059100000F04DF82C6307E00D3F07EB8707D5F843
:105920002CC000F044F8EC6207260F688C6805680C
:105930000A2F08D30A3F07EB4707D5F80CC000F041
:1059400036F8EC6006E007EB4707D5F810C000F02A
:105950002EF82C610C68102C18BF112C23D1006874
:10596000384CA0421AD1384805682C021BD405686F
:1059700045F4000505600868102814D12D4D334901
:105980002C68B4FBF1F10A204143009100980028F3
:105990001EBF0098401E0090F8D104E00122586814
:1059A00040F020005860002018701046F2BDBE4044
:1059B0002CEA0606BC403443704738B50446002044
:1059C000009020688168CA072CD48168194A41F088
:1059D0000101816010681D49B0FBF1F1009102E006
:1059E0000098401E009000980028F9D1FFF7BAFDFA
:1059F000054600F051F815D4FFF7B4FD401B03280D
:105A0000F7D300F049F8F4D404F1240000224168EF
:105A100041F010014160816841F001018160027034
:105A2000012032BD002032BD00000000FDF7E1FF83
:105A3000FE0E1FFFE4050020FEF1FFFF00280140DD
:105A400004240140002401400824014040420F008A
:105A500038B5044620688168CA071BD581684908A3
:105A600049008160FFF77EFD054600F015F811D56D
:105A7000FFF778FD401B0328F7D300F00DF8F4D5AD
:105A8000A16A41F01001A162E06A40F00100E06209
:105A9000012032BD002032BD20688168C8077047F0
:105AA000416A8A6A12F0500F1BD1886A40F4007074
:105AB00088620A68906800F46020B0F5602F04BF27
:105AC000087B00280AD1886A20F480708862886A7E
:105AD000C20403D4886A40F001008862084603F0DB
