:020000040800F2
:10000000280F0020B55C0008355B0008375B00084E
:10001000395B00083B5B00083D5B00080000000006
:100020000000000000000000000000003F5B00082E
:10003000415B000800000000435B0008455B0008CE
:10004000CD5C0008D15C0008D55C0008D95C0008D4
:10005000DD5C0008E15C0008E55C0008E95C000884
:10006000ED5C0008F15C0008F55C0008495B0008E5
:10007000F95C0008FD5C0008015D0008055D0008F2
:10008000095D00080D5D0008115D0008155D0008A0
:10009000195D00081D5D0008215D0008255D000850
:1000A0004F5B0008515B0008595B0008295D0008A0
:1000B0002D5D0008315D0008355D0008395D0008E0
:1000C0003D5D0008415D0008455D0008495D000890
:1000D0004D5D00085B5B0008515D0008555D000840
:1000E000595D00085D5D0008615D000878B592A467
:1000F0008DB0DFF8943B25681D60521A002404E09F
:100100006618865D0DF80460641C9442F8DB0024D8
:100110000DF802406946184601F0B4FE0EB070BDFD
:1001200080B5B2B000F01CF884A101F0CBFE6846A7
:1001300001F016FF00F00DF826E000B5CBB000F09E
:100140000FF801F00DFF00F004F801F04FFF4BB085
:1001500000BD82B24FF0FF336946DFF8380C7047BC
:100160000146684602F050BA80B5B2B0FFF7F8FF1A
:1001700072A101F0A7FE684601F0F2FE82B24FF0D4
:10018000FF336946DFF8100C01F030FF33B000BDDB
:1001900010B5DFF8084CE06940B9206A401C2062C5
:1001A0004FF40051DFF8F80B02F00DFBE06D401C3E
:1001B000E065A06D401CA065606B012802D1A06BBA
:1001C000401CA063606C012802D1206C401C20649C
:1001D00010BD4FF4FA51484300E0C0000146481EEC
:1001E0000029FBD1704781B08DF800008DF8011017
:1001F0008DF802208DF80330009801B0704718B5D3
:10020000DFF8A40BDFF8A44B85B0026842F00402CB
:100210000260016801F0040100910099026842F057
:10022000040202601121006800F0040000908020A8
:10023000009A019000F007F840220192112100F08D
:1002400002F806B010BD02910222049201A92046D4
:1002500002F0E6B910B54FF47A70FFF7BEFFDFF891
:10026000504B206840F0800000F02AF800F025F89C
:10027000206820F0800000F023F8206820F0400083
:100280002060642016E010B500F05EF8DFF8204B27
:10029000206820F0400000F013F8206820F0800073
:1002A00000F00EF800F009F8206840F080002060AF
:1002B0004FF47A70BDE810408FE7206840F04000AE
:1002C0002060642089E72DE9F843DFF8505C804620
:1002D000686820F04000894600276860802608246E
:1002E00006EA080000286868CCBF40F0800020F0D3
:1002F000800000F028F800F023F8686820F0400043
:1003000068602968080648BF37437608641EE7D14D
:10031000686820F08000B9F1010F686006D100F034
:100320000FF8686820F0400000F00DF800F00CF8BD
:100330003846BDE8F2830000000000000D0A00000E
:10034000686840F040006860642046E738B50446BD
:100350000D46FFF77FFF200A400040F0A00000F0AC
:1003600046F80121E0B2FFF7AEFF01212846FFF772
:10037000AAFFFFF788FF0F20FFF72BFF002032BDF9
:100380007FB50546000A0024460000200DF8040051
:100390000DF80460FFF75EFF46F0A00000F027F8BC
:1003A0000121E8B2FFF78FFFFFF754FF46F0A100ED
:1003B00000F01DF80021FF20FFF785FF0DF8040075
:1003C000FFF761FF0120FFF704FF3CB10DEB0401D3
:1003D0001DF8040011F8012C824203D0641C092C82
:1003E000D3DB01E004B070BD9DF80000FAE7012105
:1003F000C0B268E738B500F007F86D1C210AA8B252
:10040000FFF7A4FF002032BD04460D46E1B22846A6
:100410009CE77CB504460D460026009470191DF833
:10042000061000F02BF8761C042EF6DB002076BDBB
:1004300038B50446601C00F05AF805462046FFF720
:100440009FFF00EB052032BDF8B50446FFF798FF8B
:1004500000F010F8064600F049F80746E41CA0B288
:10046000FFF78EFF03463A463146284601B0BDE805
:10047000F040B8E60546601C80B281E780B265E7CF
:1004800010B50024FF21A0B2FFF760FF641CA2B2E8
:10049000B2F5007FF6DB10BDF8B504460D461646F2
:1004A000002702E0FFF7EAFF7F1C3819711E8F4218
:1004B00002DAE95D0029F5D1BDE8F440002180B2FF
:1004C00044E7F8B504460D461646002700E07F1CB9
:1004D000701E874205DA381900F009F8E85500283F
:1004E000F5D1AA19002102F8011CF1BDA01C80B2AF
:1004F00046E7000110221030CEE710B50C46014649
:100500005020FFF723FF2146BDE8104051201DE792
:1005100003280FD8DFE800F00205080B1022102096
:1005200007E01022202004E01022302001E01022F9
:100530004020C6E7002008707047000010B500207A
:10054000FFF71EFF5A2846D0DFF8B41A22A4012074
:100550000860FFF795FF5A210020FFF7F7FE0922F8
:1005600021A10120FFF798FF21460020FFF7C1FFDE
:1005700021460120FFF7BDFF21460220FFF7B9FF0A
:1005800021460320FFF7B5FF00210020FFF7B5FF4C
:1005900000215220FFF7DAFE60214FF07F50FFF775
:1005A00038FF6421DFF8100DFFF733FF68210A20C0
:1005B000FFF720FF6A213C20FFF71CFF00216C2081
:1005C000FFF7C4FE00216D20FFF7C0FEBDE810401C
:1005D00001216E20BAE610BD2B3938393131313165
:1005E0003131313131000000313233343536373872
:1005F0000000000010B5044603A0FFF791FD20465F
:10060000BDE810408CE500003F20454550524F4D5D
:10061000205741524E494E473A0000000178FF29C9
:1006200018BF00290BD00022815C31B120395F292D
:1006300005D2521C142AF7DB01E00120704700208C
:100640007047F8B59EB00FF22420FFF769FD09222C
:1006500069460120FFF735FF6846FFF7DFFF18B94D
:100660000FF22820FFF7C6FF6A460FF234210FF27F
:1006700038250FF2402600F0F7F900F0F8F90024D1
:100680006946E0B2FFF744FF6846E7B2FFF7C6FFEE
:100690007F1C30B93A46314600F0E6F905A8FFF76D
:1006A000A9FF6B463A46294605A801F0EBFB00F08E
:1006B000DEF9641CE0B20428E2DB5020FFF760FEA4
:1006C00004001EBF012C0FF20020FFF793FF22460B
:1006D0000FF20C2100F0C8F900F0C9F95120FFF722
:1006E0004FFE04001EBF012C0FF20020FFF782FF17
:1006F00022460FF2102100F0B7F900F0B8F95220AD
:10070000FFF73EFE04001EBF012C0FF20420FFF78E
:1007100071FF22460FF21021DFF8A44BDFF87C5D59
:1007200000F0A2F900F0A3F96020FFF78DFE00F0C1
:10073000A1F901D1000208D13046294602F066F83D
:1007400003D3214602F076F803D80FF2EC10FFF73E
:1007500051FF304602F082F802460B460FF2EC11D0
:1007600005A801F08FFB00F082F96420FFF76CFE12
:1007700000F080F901D1000208D13046294602F08C
:1007800045F803D3214602F055F803D80FF2D010F4
:10079000FFF730FF304602F061F802460B460FF2D9
:1007A000D81105A801F06EFB00F061F96820FFF791
:1007B0003FFE040042F2117501D0AC4203DB0FF2A0
:1007C000CC10FFF717FF22460FF2D41100F04CF9BE
:1007D00000F04DF96A20FFF72BFE040001D0AC4277
:1007E00003DB0FF2D010FFF705FF22460FF2D811FE
:1007F00000F03AF900F03BF96C20FFF7C1FD04006E
:100800001EBF012C0FF2D410FFF7F4FE22460FF2A8
:10081000E01100F029F900F02AF96D20FFF7B0FD92
:1008200004001EBF012C0FF2D810FFF7E3FE224692
:100830000FF2E01100F018F900F019F96E20FFF73F
:100840009FFD0446042CA4BF0FF2D810FFF7D2FE80
:1008500022460FF2E41100F007F900F008F90FF258
:10086000E810FFF75DFC1FB0F0BD00003D3D3D3DD1
:100870003D20454550524F4D20434F4E464947205D
:1008800044554D50203D3D3D3D3D0000496E766153
:100890006C69642044657669636520494400000002
:1008A00049443A202573000050686F6E6525643A0C
:1008B0002025730050686F6E6520256420696E7670
:1008C000616C69640000000052656C6179312073CD
:1008D0007461746520696E76616C69640000000063
:1008E00052656C6179313A202564000052656C6173
:1008F000793220737461746520696E76616C696405
:100900000000000052656C6179323A2025640000D5
:1009100053656375726974792073746174652069B5
:100920006E76616C696400005365637572697479F1
:100930003A202564000000004C6F772063757272C6
:10094000656E7420696E76616C6964004C6F7743E4
:10095000757272656E743A20252E32662041000051
:10096000486967682063757272656E7420696E7677
:10097000616C6964000000004869676843757272C1
:10098000656E743A20252E326620410043757272DE
:10099000656E7454696D6520696E76616C6964007A
:1009A00043757272656E7454696D653A20256420D2
:1009B0007365630052656C6561736554696D65208C
:1009C000696E76616C69640052656C65617365542B
:1009D000696D653A202564207365630052656D6F0B
:1009E0007465537461746520696E76616C69640026
:1009F00052656D6F746553746174653A20256400A7
:100A0000416C61726D4D6F646520696E76616C69D1
:100A100064000000416C61726D4D6F64653A202581
:100A2000640000004465766963654D6F6465206904
:100A30006E76616C696400004465766963654D6F2C
:100A400064653A20256400003D3D3D3D3D2045451F
:100A500050524F4D20434845434B20444F4E452074
:100A60003D3D3D3D3D00000005A801F00BBA05A845
:100A7000FFF756BB06467000011611F1010F7047D3
:100A800038B5C64CDFF8E45C0520E0640021616302
:100A9000A163E16300F010FD00F0B1F900F00CFD7E
:100AA00000F0ADF9012060640021216331BD000038
:100AB0007FB52222B6A101A801F0E4F9B74CE06CA1
:100AC00004F5B16510B904F25C510FE0062808BFC7
:100AD0000FF270410AD0012808BF04F5B66105D0B5
:100AE00002280CBF04F2C45104F5AE6100F05EFAB6
:100AF0000D2200214FEA0500FFF7F8FA00F054FA42
:100B000004F5337626A1304601F0BCF901A9304640
:100B100001F0D8F9294601F0D5F901A9304601F0D4
:100B2000D1F9A0A101F0CEF93046FFF7F9FA30462D
:100B300001F016FA984D82B24FF0FF333146284645
:100B400001F054FA4FF47A7001F0ACFE04F58C64B5
:100B5000204601F005FA82B24FF0FF3321462846C5
:100B600001F044FA1A208DF8000000F048F900F076
:100B70001DF800F058FA00F019F800F054FA00F0EF
:100B800015F800F050FA00F011F800F04CFA00F0FF
:100B90000DF84FF47A6001F085FEFFF771FF7FBD1D
:100BA00041542B434D47533D000000004FF0FF33AD
:100BB00001226946284601F019BA3EB52520774C36
:100BC000A16F0190009104F57E75626EDFF8181C2C
:100BD0002523284601F056F92846FFF7A1FA2946B1
:100BE00004F58C6001F010FDBDE8374060E70000BF
:100BF00080B5012200F01EF85FF00B0200A10CE0AE
:100C00004F757431206973206F6E000080B500222B
:100C100000F010F85FF00C0203A1DFF8D00B01F038
:100C200055FEBDE8014043E74F75743120697320DC
:100C30006F6666002021DFF8B80B01F0C0BD000030
:100C400010B5DFF8B04BB3A100F034F818B9B2A179
:100C500000F030F808B1FFF7B0FF00BF0BA100F0C3
:100C600029F818B90BA100F025F808B1FFF7C0FF6B
:100C70000AA100F01FF818B90BA100F01BF810B181
:100C8000BDE81040C2E710BD2C0400206F75743120
:100C9000206F6E004F757431206F6E006F75743168
:100CA000206F6666000000004F757431206F666625
:100CB00000000000204601F015BE000070B5374D61
:100CC0000FF23064A96B01290BDD00BF39A0FFF7DB
:100CD00027FAE86B401C0021E863A9632046FFF770
:100CE00043FAE86BDFF8846A012828DD00F087F812
:100CF0000FF6C410FFF738FA00F07EF80FF6A810D0
:100D0000FFF732FA40F2DC5001F0CCFD0FF6BC10D8
:100D1000FFF72AFA00F070F800F0F0FC00F06CF831
:100D20000FF6C010FFF720FA00F066F800F0E6FCBE
:100D30000020A863E863686322A0FFF7F1F9686BFD
:100D4000002804BF286B01280BD100BF22A0FFF7A9
:100D5000E7F90020A8632863012068632046FFF7B5
:100D600003FA686C012812D1286C04280FDB00BF3D
:100D70001EA0FFF7D5F900F0C1FC002068642864CC
:100D800068634FF4FA70BDE8704001F08BBD70BD30
:100D900025630000940800204C080020000000207B
:100DA000001001400D0A000018100240000C014024
:100DB0000C0C01402A2A436865636B20534D532A6B
:100DC0002A0000002A2A44454C4C45544520416CD9
:100DD0006C20534D532A2A002A2A534D5320465241
:100DE0004F4D20455854492A2A000000534D5320A6
:100DF000446F6E6500000000C82001F053BD4FF441
:100E0000FA7001F04FBD00002DE9F84FDFF8E84916
:100E1000122200F0BFF804F5337500F0C5F800BFEA
:100E20003FA1DFF8B46CDFF8B47C0FF200180FF2CA
:100E300004190FF2101A0FF2201B01F053FD0028C5
:100E400031D000BF48A0FFF76BF92222152100F036
:100E5000A2F800F0A9F8FFF763F9394600F053FA59
:100E600018B10020E064584617E000F04BFA18B1C2
:100E70000620E064484610E0314600F044FA18B11C
:100E80000120E064404608E004F2C45100F03BFA5F
:100E900028B10220E06400BF36A0FFF741F900F05E
:100EA0007EF8FFF73DF9142200F074F800F07CF8AA
:100EB00032A101F017FD002829D000BF32A0FFF7B2
:100EC0002FF92422172100F066F800F06DF8FFF7E3
:100ED00027F9394600F017FA18B10020E0645846A7
:100EE0000DE000F00FFA18B10620E064484606E075
:100EF000314600F008FA20B10120E0644046FFF7D7
:100F00000FF900F04CF8BDE8F24FFFF709B9BDE862
:100F1000F18F00004254000042740000080C0140B0
:100F20005245432052454144000000004E554D4279
:100F300045523100534552564552204E554D42457B
:100F4000523200002B3938393131343736343830A9
:100F50003600000000000000534552564552204E16
:100F6000554D4245523100007265616420534D5326
:100F7000000000004E554D4245523200524543207C
:100F8000554E524541440000534D5320756E7265D5
:100F9000616400000A2104F5D270FFF7A7B8294662
:100FA00004F5AE6001F030BB04F22C41284601F09C
:100FB0002BBB000038B500BF12A0DFF83C48DFF8BB
:100FC0003058FFF7ADF80020E06100F028F801226A
:100FD00000F020F800F023F8002200F01BF800F0E9
:100FE0001EF8B4A500F068FAFA2001F05BFC00F0EE
:100FF00063FA00F018F80020A061206231BD000003
:101000002009002023235245534554204D433630B8
:10101000232300004FF48071284601F0D0BB4FF429
:10102000FA6001F03FBC642001F03CBC2DE9F84FB0
:10103000DFF8C4470FF28C2AE0690FF2942B0FF20D
:101040009C280FF2A429002804F5D2759BA657D13D
:10105000A769314600F057F920B1012F02D10220D3
:10106000A06125E1032F28D1494600F04CF950B981
:10107000414600F048F930B9594600F044F910B93A
:1010800000F040F928B10FF64C30FFF749F8042082
:10109000A06128460FF64C3101F024FC48B90FF648
:1010A000503100F030F920B90FF6503100F02BF933
:1010B00030B30FF65430FFF733F8A06905281FD17D
:1010C0000FF6583100F01FF938B10FF66C30FFF70A
:1010D00027F806200121A061A16228460FF6683199
:1010E00001F000FC20B90FF6743100F00CF938B1B2
:1010F0000FF67C30FFF714F806200221A061A162F0
:10110000E0690128ADD1314600F0FDF820B1606DF5
:10111000012804BF022161650FF66031DFF8C07954
:1011200000F0F1F804F5337680B108220621284654
:10113000FEF7DCFF3946304601F066FA01F081FC2B
:10114000A066606D032804BF042161650FF6343189
:1011500000F0D9F870B30A2208212846FEF7C6FF2E
:10116000394604F2A45001F04FFA01F06AFC6066BF
:1011700004F2A45001F065FC616E0A2904BF6422E8
:1011800062660A2808BF6420606730460FF6FC21BB
:1011900000F078FE04F2A451304600F093FEC0A1A6
:1011A00000F090FE3046FEF7BBFF606D052804BFDF
:1011B000062161650FF6642100F0A5F840B1616D6C
:1011C0000120A062E0662067072904BF082060654F
:1011D0000FF6742100F097F820B90FF6802100F087
:1011E00092F848B10121E16621670220616DA06299
:1011F000072904BF08206065494600F084F850B90B
:10120000414600F080F830B9594600F07CF810B93A
:1012100000F078F840B10120E0660021606D2166A1
:10122000092804BF0A2161650FF6B81100F06BF8B8
:1012300048B90FF6BC1100F066F820B90FF6BC11E2
:1012400000F061F828B10FF65020FEF769FF00208A
:10125000E06628460FF6582101F044FB18B10FF65E
:101260005820FEF75DFF0FF65C2100F04CF870B1DE
:1012700000206065A0630FF65420FEF751FF0120A7
:10128000A06400216063E1631AA0FEF76DFF0FF612
:101290004C2100F038F840B10FF64820FEF740FF2F
:1012A00000206065A064FFF7AFFDBDE8F14FC7E423
:1012B000BDE8F18F41540000000058414F4B000041
:1012C000010048422B435245473A20302C3500005C
:1012D0002B435245473A20322C3100002B435245D4
:1012E000473A20302C3100002B43475245473A20E3
:1012F000302C310041542B434D474C3D22414C4C46
:10130000220000005146284601F0ECBA38B5DFF85B
:10131000E844E16DB1F5C87F07DBDFF8C807FEF7E9
:10132000FFFE0121E162FFF76AFD206E782807DBEE
:10133000002121660FF6B810FEF7F2FEFFF73AFE25
:10134000A16D606D3C2957A507DB40B900F0B4F8EA
:10135000012000216065A16596E003290ADB0128D0
:1013600008D10FF6A010FEF7DBFE00F09DF801217A
:1013700000F0A5F8616D0FF6A010022907D1FEF765
:10138000F3FE00202065A0650320606531BD0329C0
:1013900009D1A16D032977DB216D491C002221654C
:1013A000A265FEF7E1FE606D0FF68415042806D1F4
:1013B0000FF66C10FEF7B4FE052000F079F8606DB2
:1013C000052808D1A06D03285EDB00F06DF8002130
:1013D000A16500F071F8606D0FF65C15062806D166
:1013E00000200721A0652065616500F065F8606D4B
:1013F00007280BD1A06D032846DB0FF64810FEF737
:101400008FFE00F051F8072100F059F8606D0FF6DB
:101410005C15082806D10FF64010FEF781FE092062
:1014200000F046F8606D09280BD1A06D03282BDB76
:101430000FF64410FEF774FE00F036F8092100F0B4
:101440003EF8606D0A281FD100216165A165216504
:1014500021660121E16604F533750FF62C10FEF7C5
:101460005FFEA36E626E0FF63811284600F00AFD8B
:101470002846FEF755FE0020E0656420A16E41433A
:101480001F2291FBF2F2A267206D032804DB0021EA
:101490002165BDE831408DE531BD0000CDCCCC3DAE
:1014A0002500000041540000206D401C206570475D
:1014B00060650021A16521652846FEF755BE002024
:1014C000A06561652846FEF74FBE000070B5CA4CA6
:1014D000A0694FF49175C0B90FF6DC00FEF720FE4D
:1014E0000021A16004F18000294601F0BDFA00202E
:1014F0006080BCA5FFF7E0FFFFF795FDFFF7DCFF7D
:10150000002001212062A16170BD012808D1206A5C
:101510000328F9DB0FF6B400FEF702FEFFF74AFDE1
:10152000A0690FF6480602281AD10021E1670FF6DC
:10153000A800FEF7F5FD0020606203212062A16192
:101540000FF69C00FEF710FEFA2001F0ABF90FF643
:101550009C00FEF709FEFA2001F0A4F900F0CEF895
:10156000A069032815D1206A032822DB0FF6880022
:10157000FEF7D6FD00F0C2F8606A401C0F286062DA
:1015800005DB0FF68400FEF7CBFDFFF713FD00200F
:101590002062A0690FF2A07604280BD10FF6780024
:1015A000FEF7BEFD00F0AAF8002005212062A1612F
:1015B000606270BD052811D1206A012872DD0FF626
:1015C0006400FEF7ADFD00F099F800202062606A2B
:1015D000401C60620528A8BFFFF7ECFCA069062844
:1015E00060D10FF650000FF2E056FEF799FD0FF6AE
:1015F0005000FEF7B9FDFFF716FD00BF2AA0FEF769
:10160000B3FDFFF710FD00BF2BA0FEF7ADFDFFF708
:101610000AFD00BF2DA0FEF7A7FDFFF704FD00F0B7
:101620006DF8FFF700FD00BF2EA0FEF79DFDFFF750
:10163000FAFC00F063F8FFF7F6FC0FF61000FEF777
:1016400093FDFFF7F0FC0FF60C00FEF78DFDFFF7A2
:10165000EAFC0020A0640FF60400FEF761FD002004
:101660006062A0612062FFF7DEFC00200121E065DE
:10167000E161A0602946DFF8700401F0FDF940F255
:10168000271104F5D27001F0EFF9002060803621B7
:10169000A1650122BDE870404FF40051DFF84C0411
:1016A00001F08DB870BD000041542B435343533DAE
:1016B0002247534D2200000041542B43534D503DCF
:1016C00031372C3136372C302C30000041542B432D
:1016D000504D533D224D45222C224D45222C224D6A
:1016E0004522000041542B43504D533D22534D227F
:1016F0002C22534D222C22534D2200003046FEF75F
:1017000033BD10B53C4CE06908B9FFF7DFFEE06976
:10171000012805D1FFF7FAFDBDE81040FFF7CEBA6A
:1017200010BD0068DFF8C813884200D0704710B5BC
:1017300031498A8840F221108242A4BF00238B8065
:101740008A8882420ADA8888DFF89C33441C8C80BD
:1017500001240A781A5400204861CC600122BDE8B7
:101760001040DFF8900300F093BC0000C81B000895
:101770002DE9FC4101F084F91F4C2169411A6429CB
:1017800003D320616069401C60616069012827DD26
:10179000E068012824D10021D34D0FF2D0686161A7
:1017A000009504F5D276CBA70BE00346424640F203
:1017B0002711304601F06AF93046FEF7BEFCFFF70C
:1017C00035FC00986A46394601F082F90028ECD1D0
:1017D000E0604FF49171284601F04EF90020A0809E
:1017E000BDE8F38141540000DC5B00086004002088
:1017F00000080140A401002000000020F0B589B0DD
:1018000001F084F900F099F9684600F0D4F9BA4D76
:10181000B64C6868B94EBA4F40F01000686068680E
:1018200000F0100004900498696841F0200169609C
:10183000686800F0200004900498696841F0040191
:101840006960686800F0040004900498696841F0D9
:10185000080169604FF40051686800F008000490C6
:101860000498204600F0ABFF00224FF4B0713046E0
:1018700000F0A5FF0022E021384600F0A0FF012182
:1018800001914FF4005000F04BF9204600F0C8FEE3
:10189000012101914FF4B07000F042F9304600F0A0
:1018A000BFFE0021019101224FF480540292009466
:1018B00000F03FF94FF460400021009001910222B6
:1018C00000F036F94FF4C05000210090019102223F
:1018D00002926946304600F0A3FE012101912020CA
:1018E00003210090002200F022F911210191C02073
:1018F00003210090012200F01AF9286840F001004D
:10190000286029687F4D01F00101009100220098B4
:1019100000210B2001F023F90B2001F03DF968466E
:1019200000210022002380E80E00774929604FF44F
:1019300080704FF46021E961A860012202212A73BE
:101940002B756B602961284601F04EF908B100F053
:1019500039F9002001210090019107220292694685
:10196000284601F0BBF908B100F02CF90120022152
:10197000009001912846694601F0B0F908B100F0E5
:1019800021F902A8002100220023002680E84E0051
:10199000CDE9001241F61F40686342F210705B49C6
:1019A000E8632963AA632A646A64AA6405F13000C3
:1019B00001F040FA08B100F005F9029402A905F11E
:1019C000300001F09EFB08B100F0FCF80096019693
:1019D000694605F1300001F003FD08B100F0F2F8AE
:1019E000444C434921600020A060E06020610C214C
:1019F000A061E0614FF4165661616660204600F018
:101A0000B9FA08B100F0DEF841484249016000220D
:101A10000C218260C260026141618261C2614660E4
:101A200000F0A8FA08B100F0CDF80021CDE90011CE
:101A300002A81C2101F020F83748A8676421002083
:101A4000C5F88000E96705F18400C8210022016023
:101A50004260C26005F1780001F038FA08B100F088
:101A6000B1F8002000900190694605F1780001F07E
:101A7000B7FC08B100F0A6F86020002102900391A5
:101A800000220691049202A905F1780001F0D7FA2C
:101A900008B100F097F805F1780001F068FD012029
:101AA00000F000FF05F1300001F0D1F901221B49DF
:101AB000204600F0EDFA0FF2BC30FEF731FBFEF7E6
:101AC0009EFBFEF73BFDFEF7BCFDFFF751FEFFF767
:101AD00018FEFAE70D0A0000B00500205C050020A2
:101AE0002C040020005C0008680600200010014063
:101AF000003801404C08002014100240000801404A
:101B0000000C01408C07002000240140002C014003
:101B10009408002000440040000400400000002021
:101B200002210090002203910292694670470391BE
:101B300002926946384600F073BD18B593B028216B
:101B400009A800F099FF1421684600F095FF05A848
:101B500000F031F8012109910B924FF480310A9184
:101B60001191012302224FF4E0110D931092129172
:101B700009A801F099FD08B100F024F802210191B3
:101B80000F204FF48061009003910294049402218D
:101B9000684601F008FF08B100F014F80220059033
:101BA0004FF40041079105A801F0D0FF08B100F003
:101BB00009F814B010BD002100220023002480E8A1
:101BC0001E00704772B6FEE741542B434D47443D1B
:101BD000312C34004E6574776F726B2072656164CE
:101BE000790000002B43475245473A20302C320001
:101BF0002B435245473A20302C3200002B435245AC
:101C0000473A20322C3200004E6574776F726B2099
:101C10006E6F742072656164790000002B434F5031
:101C2000533A20302C302C224D544E204972616E94
:101C300063656C6C2200000053494D3A2049726183
:101C40006E43656C6C0000002B434F50533A2030BC
:101C50002C302C2254434922000000002B434F50CB
:101C6000533A20302C302C223433323335220000CA
:101C700053494D3A204D4349000000002B43535136
:101C8000000000002B4342430000000042617474D6
:101C90006572793A000000002D2D2D4E6574776F26
:101CA000726B206E6F742072656164792D2D2D002A
:101CB0002B434D4753000000534D532053454E4492
:101CC000000000002B434D5449000000534D5320A9
:101CD00046524F4D20554152540000002B434D4772
:101CE0004C000000496E70757420534D5300000085
:101CF0002153696D2063617264204572726F722195
:101D0000000000004D43363020436865636B20457A
:101D100072726F720000000041542B435351000057
:101D20002A2A2A414E54454E204F4B2A2A2A000087
:101D300041542B434243000041542B434F50533FE7
:101D4000000000002D53494D20434152442045528C
:101D5000524F522D000000002A2A2A53696D204359
:101D6000617264204F4B2A2A2A00000041542B4301
:101D70005245473F000000002D4E4554574F524BEF
:101D8000204552524F522D002A2A2A4D43363020E8
:101D9000434845434B20444F4E452A2A2A00000021
:101DA0004D4336305F4241543D256420414E5445F9
:101DB0004E3A2564000000004D43363020466972DB
:101DC0007374205374617274000000004E6F2052CF
:101DD0006573706F6E7365004D433630204F4B0056
:101DE00041542B434F50533D3000000041542B438E
:101DF00046554E3D310000004E6574776F726B2082
:101E00004572726F720000002D2D5265736574204B
:101E10004D6336302D2D000053696D20636172646F
:101E20003F00000053696D20436172642045727267
:101E30006F720000436F6E666967204D4336300055
:101E400041542B434D47463D31000000415445303D
:101E50000000000041542657000000002A4D433680
:101E6000302072656164792A0000000025730D0A34
:101E70000000000053746172742050726F677261C9
:101E80006D0000000CB430B583B00A4606A902917B
:101E9000044600250194009502AB01A90848784446
:101EA0001E3001F0CAFE019A157000284EBF04468C
:101EB0000198041B204603B030BC5DF80CFB00BF4A
:101EC000AF0B0000034600E05B1C1A78002AFBD130
:101ED00011F801CB83F800C013F8012B002AF7D1C9
:101EE0007047F0B40246106895681318506803EB09
:101EF0005004C00748BF4D44A3422DD013F8016BD6
:101F000016F0030004BF13F8010BC01C31090F29A0
:101F100007D113F8011B0F3103E013F8017B05F81B
:101F2000017B401EF9D10029E6D013F8010BC6F35E
:101F30008106032E08BF13F8016B00EB0620404218
:101F400028440026B71E8F421EBF10F8017B05F8FB
:101F5000017B761CF6D1CFE7F0BC02F10C00704794
:101F600000F1010310F8011B11B110F8011BFBE790
:101F7000C01A704738B5040001D1012032BD04F108
:101F80004005687808B900F011F800F014F800F086
:101F900023F8FFE7416100F018F8686020216970BC
:101FA0002020A87000216163002032BD002129702B
:101FB000204601F008BB242068702068C16821F425
:101FC0000051C160204600F0DEBA2068C16841F4CB
:101FD0000051C160002070472068016921F49041E0
:101FE00001612068416921F02A0170472DE9FC4117
:101FF00006460D4696F84100202814461F4640D15B
:102000000DB1200001D101203CE0002070642121AD
:1020100086F8411000F034FDB4848046F48400F06A
:1020200033F804BF306900281ABF2C46002500246D
:1020300012E000228021304600F0C2F9E0B9306899
:10204000002C12BF14F8011B35F8021BC1F3080164
:102050004160F08C411EF1844346F08C00970028CB
:10206000E7D100224021304600F0AAF920B9202013
:1020700086F84100002005E0202086F8410003207A
:1020800000E00220BDE8F681B068B0F5805F7047DF
:1020900010B500F130039C7C202C0AD109B114004A
:1020A00001D1012010BD00241C60BDE8104000F0EB
:1020B000C4B9022010BD216801F1140353E8001FC8
:1020C000206800F1140221F0400142E800100028CD
:1020D000704721F0100142E8001000287047F8B561
:1020E00004462268136811460846CD68466913F015
:1020F0000F0F03F0200105F0200007D1002918BFC1
:1021000000285DD02046BDE8F240D5E1F70702D4B3
:1021100015F4907F54D0DA0705D5ED0503D5626C30
:1021200042F0010262645A0705D5F50703D5626CD7
:1021300042F0020262649A0705D5F50703D5626C86
:1021400042F0040262641A0706D508B9F20703D503
:10215000636C43F008036364626C002A2FD000298B
:102160001EBF0028204600F0A7F920684069616C76
:102170000A0701D440061DD5204600F079F92068F1
:102180004169480611D5FFF796FFFCD1E06B60B1BD
:102190000FF215314163E06B02F00BFD00280ED009
:1021A000E06B416BBDE8F44008472046BDE8F240D3
:1021B00002F0FCBD204602F0F9FD00206064F1BD94
:1021C000206B012804F1410140F09680D80600D52B
:1021D000EE0640F19180002300931268009223687C
:1021E0005A680092009822685369580646D5E26BF7
:1021F0001068406880B20028E1D0A38D9842DEDAF2
:10220000E0859069202831D0226802F10C0555E85C
:10221000002F206800F10C0322F4807243E80020B4
:102220000028F1D100F0A8F8520800F11403520080
:1022300043E800200028F5D100F09EF800F11403D7
:1022400022F0400243E800200028F5D12020487009
:1022500000212163226802F10C0151E8001F0C32B9
:10226000FFF737FFF6D1E06B02F07EFC02206063DF
:10227000A18DE08D091A89B2204639E0A38DE28D47
:10228000E08D9B1A00281CBF98B2002873D022460C
:10229000146804F10C0656E8004F106800F10C05B4
:1022A00024F4907445E800400028F1D1146804F14A
:1022B000140656E8004F1068640800F11405640025
:1022C00045E800400028F1D120204870002111632A
:1022D000146804F10C0151E8001F0C3421F01001C6
:1022E00044E800100028F3D10220506399B2104650
:1022F000BDE8F44002F05BBD18062BD52A0629D5AF
:102300000878212837D1A068B0F5805F04BF206924
:10231000002809D1226A21681088C0F308004860AB
:10232000206A811C216205E0206A411C216222682A
:1023300000785060E08C401EE08480B2D8B92068FC
:10234000C16821F08001C1602068C16841F040018E
:10235000C160F1BD58060ED56A060CD52368D86851
:102360001A4620F04000D060202008702046BDE8CA
:10237000F24002F01DBDF1BD226802F1140555E8DE
:10238000002F20687047026802F10C0454E8002F07
:10239000016801F10C03704742F0010243E800219B
:1023A00000297047026802F1140454E8002F016804
:1023B000520801F11403520043E80021002970473C
:1023C0002DE9FC41089C05460E4690461F462868AC
:1023D00001683140B1420CBF0120002040452AD1A4
:1023E00014F1010FF3D000F04BFBC01B844200D36B
:1023F00014B90320BDE8F6812968C8684207E6D50C
:10240000802E18BF402EE2D0084602681307DED5A2
:10241000002000902B681A6800924968009100988B
:10242000284600F025F805F140000821416000220F
:1024300002700120DEE70020DCE781628285C28530
:1024400000214164222280F84220016921B1016803
:10245000CA6842F48072CA6001684A6942F00102A7
:102460004A610068C16841F02001C16000207047E6
:1024700010B5FFF788FF22F49072FFF78FFFF8D1B5
:10248000FFF790FFFCD1016B012906D1FFF77BFF1D
:1024900022F01002FFF782FFF8D1202180F84210CD
:1024A0000022026310BD0000406A0021C1850022A5
:1024B000C28402F07BBC00001CB590F842102229B7
:1024C00052D18168826AB1F5805F0AD1016969B928
:1024D00003685968C1F308011180826A911C816206
:1024E0000FE0002904BF0169002902D1036859687F
:1024F00003E00168496801F07F011170816A4A1C9C
:102500008262C18D491EC18589B259BB0168CA6802
:1025100022F02002CA600168CA6822F48072CA6090
:1025200001684A69520852004A61202180F842102D
:1025300000224263016B012912D1026300F016F8F8
:1025400001680A68D30607D5002200920B68009341
:10255000046862680092009B818D02F028FC01E013
:10256000FFF7DFF8002016BD022016BD036803F157
:102570000C0252E8002F0C3322F0100243E8002135
:102580000029F3D1704710B5044622681169E0684C
:1025900021F4405101431161D3681948A1680340F7
:1025A00020690B43616903430B43D36015495369A9
:1025B000A06923F4407303438A42536102D101F0BE
:1025C00099FA01E001F08EFA6268192148439200FD
:1025D000B0FBF2F16423B1FBF3F26FF0630000FB98
:1025E000021109013231B1FBF3F000F0F00101EB0F
:1025F0000211226800F00F004018906010BD00002A
:10260000F3E9FFFF003801405FEA000C11F8012BED
:1026100000F8012B12B111F8012BF9E76046704761
:102620002DE9F84F00239E466B4CDFF8B0816C4ECD
:10263000DFF8B0B14FF00F0902460CE025682840E2
:10264000206007E0C4F804C04F68FF03F6D5206897
:10265000054325605B1C0D6835FA03F000F0AD8082
:10266000012000FA03FC0CEA05056545F2D1486833
:1026700058B301281AD002281FD0032833D01128BC
:1026800017D012281DD0584FB8421CBF574FB84220
:102690001BD0574FB8421CBF564FB84215D0564FAB
:1026A000B8421CBF554FB8420FD01EE0D1F80CE025
:1026B0001BE0C86800F1040E17E0C86800F1080EBE
:1026C00013E0C86800F10C0E0FE0886810B94FF0F5
:1026D000040E0AE001284FF0080E14BFC2F814C01F
:1026E000C2F810C001E04FF0000EB5F5807F03D2B4
:1026F00010464FEA830C04E0A3F10807101D4FEACF
:10270000870CD0F800A009FA0CF72AEA07070EFA9E
:102710000CFC4CEA070CC0F800C04868C00099D512
:10272000376847F0010737609F00306800F001000C
:10273000009007F00C0C0098980858F820A009FAAF
:102740000CF72AEA070A5A4508BF00270ED02C4F7B
:10275000BA4208BF012709D02A4FBA4208BF022750
:1027600004D0294FBA420CBF0327042707FA0CF7FD
:1027700047EA0A0C48F820C0E8434F68D4F808C07C
:10278000FF024CBF45EA0C0C00EA0C0CC4F808C070
:102790004F68D4F80CC0BF024CBF45EA0C0C00EAED
:1027A0000C0CC4F80CC04F68D4F804C0BF034CBF75
:1027B00045EA0C0C00EA0C0C44E7BDE8F18F02B9C5
:1027C000090401617047C26801EA0203914341EACA
:1027D000034101617047000000040140080001400E
:1027E00018100240000801400000111000001210F3
:1027F00000002110000022100000311000003210F3
:10280000000C0140001001400014014040EA010C9E
:102810001CEB0C0F4FF0807C07D305D01CEB400F56
:102820009CBF1CEB410F814270471CEB410F98BFCE
:102830008842704740EA010C1CEB0C0F4FF0807C83
:1028400007D305D01CEB400F9CBF1CEB410F884207
:1028500070471CEB400F98BF81427047C0F3C751CF
:1028600081B1FF2906D0C110400721F0E04101F1FC
:102870006051704741020CBF40F4E0016FF000412D
:102880000020704700F0004100020AD0B0FA80FC3E
:1028900000FA0CF001F16051A1EB0C5101EBD021D9
:1028A0004005704738B5044600F0EAF814F1010F0E
:1028B000054602D004490878041900F0E1F8401BED
:1028C000A042FAD331BD00BFD80500204AB10000B4
:1028D00011F8013B521E00F8013B1CBF11F8013BEF
:1028E000F8E7704770B50D462C7834B970BD11F813
:1028F000013F1678B34206D0401C214602F05AFA36
:1029000028B101462A4612F8013F002BEFD170BDD5
:102910002DE9F84F84B0894615460BB100221A60A4
:102920000446274600E07F1C387802F04EFA002863
:10293000F9D138782D2816BF2B2817F8018B4FF0C6
:102940002B08002DCDF8049003D4012D01D0252DA6
:1029500005DBB9F1000F4DD0C9F800404AE0002D69
:102960000ADD102D04BF3878302802BF787840F097
:10297000200078280ED10AE03878302818BF0A25C0
:1029800008D1787840F02000782802D11025BF1CAB
:1029900000E00825039700E07F1C38783028FBD042
:1029A000DFF818B0FB440BF1140B4FF000090BF1EA
:1029B00028000297CA468DF800000AE0283100007E
:1029C00006469DF80000361ACA46F6B205FB0969AC
:1029D0007F1C387802F003FA01462A460BF12800E2
:1029E00002F008FA0028EBD10399B94204D101980A
:1029F00000B10460002020E002991BF80500791A5C
:102A0000091A002910D406DCB9EB060603D3B6FB7D
:102A1000F5F0504508D0AFF30080049808B10121CB
:102A200001604FF0FF3904E0B8F12D0F08BFC9F184
:102A30000009019800B10760484605B0BDE8F08F75
:102A400003E0FFE70A220021FAE7002360E782683B
:102A5000521C8260426832B10268531C03601170DC
:102A60004168491E41607047002202F0EFB90268D8
:102A7000531C036011707047002202F0F1B92E0060
:102A800001484068704700BFD805002008B410B561
:102A900085B007AB00240493039400290EBF019472
:102AA0000190491E0291009404AB01A907487844A3
:102AB0001A3001F0C2F8019901B10C70002858BF1A
:102AC000039805B010BC5DF808FB00BF83FFFFFF53
:102AD00070B504000E46154608BF2C68204602F06B
:102AE000D8F90444207810B907A1296070BD314697
:102AF000204602F0DFF92118087810B1002201F811
:102B0000012B2960204670BD0000430080B50748B6
:102B1000016841F010010160032000F016F80F2059
:102B200002F0DAF900F08EFC002002BD0020024025
:102B30000901020002D4264881547047254B02F057
:102B40000F021A4402F8041C704723490A6860F314
:102B50000A2240F2FA5060F31F420A60704770B5D3
:102B60001D4B1C68C4F302230124C3F10705052D86
:102B70002EBF0F2504FA05F56D1E1E1D072E34BF4E
:102B80000023DB1E2940994004FA03F3BDE870409E
:102B90005B1E1A401143CBE7010007D4012200F06D
:102BA0001F010E4B8A40400943F820207047401E09
:102BB000B0F1807F01D3012070470949094A48607C
:102BC0000023F02010708B60072008600020704701
:102BD00000E400E018ED00E00CED00E000E100E0B2
:102BE00010E000E023ED00E0F8B5044600270026E1
:102BF000002C71D004F12405686828B90021A9606F
:102C00002870204600F03AFC204600F0EBF8696896
:102C1000CA065DD401005BD1696821F4885141F096
:102C2000020169606368E269217B1A43A36842EA92
:102C30004102B3F5807F14BF012B4FF48077237DD1
:102C4000012B0FD131B9A169491E47EA413747F439
:102C5000006707E0696841F020016960A96841F0F8
:102C60000101A96021684B6823F469431F434F6049
:102C70002368DFF858119F680F4017439F60A168D1
:102C8000B1F5807F18BF012902D12669761E36056D
:102C90002168CB6A23F470031E43CE622468DFF8F8
:102CA0003011A3680B40934207D10022AA60012192
:102CB0006A6861F301026A60F2BD686820F0020090
:102CC00040F010006860A86840F00100A86003E0D0
:102CD000686840F0100068600120F2BDF8B500237C
:102CE0000093002200F124031C78012C01D1022062
:102CF000F2BD01241C701F264F680C680568072F61
:102D000008D27F1E07EB8707D5F834C000F058F8CB
:102D10006C6312E00D2F08D2FF1F07EB8707D5F871
:102D200030C000F04DF82C6307E00D3F07EB87073C
:102D3000D5F82CC000F044F8EC6207260F688C68C8
:102D400005680A2F08D30A3F07EB4707D5F80CC0E0
:102D500000F036F8EC6006E007EB4707D5F810C046
:102D600000F02EF82C610C68102C18BF112C23D108
:102D70000068194CA0421AD1184805682C021BD4CF
:102D8000056845F4000505600868102814D1114D48
:102D900013492C68B4FBF1F10A20414300910098DB
:102DA00000281EBF0098401E0090F8D104E00122C8
:102DB000586840F020005860002018701046F2BD9E
:102DC000BE402CEA0606BC4034437047FDF7E1FFE5
:102DD000FE0E1FFFE40500200024014008240140EE
:102DE00040420F0038B5044620688168CA071BD5E9
:102DF0008168490849008160FFF742FE054600F0FE
:102E000015F811D5FFF73CFE401B0328F7D300F05F
:102E10000DF8F4D5A16A41F01001A162E06A40F01A
:102E20000100E062012032BD002032BD20688168CF
:102E3000C807704738B5040001D1012032BD00F049
:102E400056F818B900F04FF800F056FB2AE090F859
:102E50003D10012901D001207047022180F83D106A
:102E60000168CA6842F00102CA600168DFF8882080
:102E7000914218BFB1F1804F07D0DFF88020914216
:102E80001CBFDFF87C30994205D1896801F0070149
:102E9000062905D001680A68084642F0010202606E
:102EA0000020704702206870211D206800F088F91A
:102EB0000120A8720121A970E87029716871A971B7
:102EC000E871297268726970002032BD38B504005B
:102ED00001D1012032BD00F00AF818B900F003F862
:102EE00000F034FBDEE7002129702046704704F132
:102EF0003C05687870470000002C01400004004049
:102F00000008004070B504462068C5680669B1072E
:102F100014D5AA0712D56FF00201016101222277B0
:102F2000806910F0030F204602D001F0F5FF03E0A6
:102F300001F0F3FF00F07BF800202077700715D533
:102F40006A0713D520686FF004010161022222771D
:102F5000806910F4407F204602D001F0DDFF03E0DD
:102F600001F0DBFF00F063F800202077300715D573
:102F70002A0713D520686FF0080101610422227727
:102F8000C06910F0030F204602D001F0C5FF03E036
:102F900001F0C3FF00F04BF800202077F00615D5B4
:102FA000EA0613D520686FF010010161082222772C
:102FB000C06910F4407F204602D001F0ADFF03E06D
:102FC00001F0ABFF00F033F80020207706F001029B
:102FD00005F001010A4206D021686FF001020A6182
:102FE0002046FDF7D5F8300608D52A0606D5216813
:102FF0006FF080000861204601F090FF700608D550
:103000006A0606D521686FF040000861204601F08D
:1030100086FFB0060AD5AA0608D521686FF0200001
:1030200008612046BDE8704001F07ABF70BD2046BF
:1030300001F077BF002084F83C002846704770B547
:1030400000F058F801D1022070BD012084F83C0046
:1030500032B1042A15D0082A25D00C2A34D045E0F4
:10306000206800F0E3F82168886940F00800886172
:10307000886920F0040088618A69306902438A61A6
:1030800035E0206800F0F4F82068816941F40061BF
:103090008161816921F4806181618169326941EADC
:1030A0000221816123E0206800F00BF92168C869E2
:1030B00040F00800C861C86920F00400C861CA690E
:1030C00030690243CA6112E0206800F022F92068EA
:1030D000C16941F40061C161C16921F48061C161CC
:1030E000C169326941EA0221C16100E00125FFF7AF
:1030F000A1FF70BD0446002594F83C0001280E464F
:10310000704770B5044604F13C060025307801286C
:1031100001D1022070BD0120307002227270DFF8F0
:10312000400222689368034093600868020018BF59
:10313000102830D0202818BF30282CD0402826D086
:10314000502819D060281BD0702806D0B0F5805FB9
:1031500027D0B0F5005F07D022E000F02CF82068FF
:10316000816841F0770105E000F025F8206881686A
:1031700041F48041816014E000F019F850210BE027
:10318000CA684968206800F004F9602104E000F092
:103190000EF8402100E00146206800F00CF900E044
:1031A00001250120707000213170284670BDCA6869
:1031B00049682068DEE0CB684A688968206802E1D7
:1031C00070B50368674C684A684DA04218BFB0F1FB
:1031D000804F03D0A84218BF904209D123F0700657
:1031E0004B683343A0421CBFB0F1804FA84201D0CE
:1031F000904203D123F44072CB6813434A6923F011
:10320000800313430360A0428B68C3620A68826232
:1032100002D10969564A1160012343610169CA0755
:1032200003D5016949084900016170BD30B500F05E
:1032300090F822F00202436885690C6825F0730556
:103240002C438D681543474A90420BD123F44073B9
:10325000CA6825F0080515434A691A438B6925F0A9
:10326000040513434360846149684163056230BDCE
:1032700070B5056A026A3B4E22F01002026225F028
:103280002005436884690A6824F4E64444EA022479
:103290008A68B04245EA02150DD1CA684E6925F028
:1032A000800545EA02158A6923F44063164325F038
:1032B000400543EA8603436084614968816305628F
:1032C00070BD70B5056A026A264E22F480720262F1
:1032D00025F400754368C2690C6822F07302144338
:1032E0008A68B04245EA02250DD1CA684E6925F4C4
:1032F000006545EA02258A6923F44053164325F404
:10330000806543EA06134360C4614968C16305628E
:1033100070BD70B5046A026A124E22F480520262D5
:1033200024F400544268C3690D6823F4E64343EA79
:1033300005238D68B04244EA053404D14D6922F476
:10334000804242EA85124260C361496801640462B6
:1033500070BD026A036A5B085B000362704700008D
:103360008800FFFF002C01400008004000040040DE
:10337000302C014010B5036A046A640864000462DA
:1033800023F00A03846924F0F00444EA02148461FF
:1033900023E010B5036A046A24F01004046223F0E9
:1033A000A003846924F4704444EA0234846143EA4B
:1033B0000113036210BD826822F07002114341F0D4
:1033C00007018160704710B5846824F47F4421436D
:1033D000114341EA0321816010BD1943016210BD10
:1033E00070B500F13C031A78012A01D1022070BDAA
:1033F00001221A7002245C7005686E68AC680A6865
:1034000026F0700616436E6002680B48824218BFB1
:10341000B2F1804F05D0094882421CBF084DAA4234
:1034200004D1486824F08004044394600121597059
:103430000020187070BD0000002C01400004004006
:10344000000800408C4881B0026842F0010202602E
:10345000016801F0010100910099426842F0805238
:1034600042600222406800F080500090009883483B
:10347000016862F31A61016001B0704730B585B030
:1034800000F09BF821687E4A914233D17A487D4D05
:10349000036843F400730360016801F40071009154
:1034A0000099026842F00402026001A9006800F07D
:1034B000040000900320009A019002907248FFF7E8
:1034C000AFF872482860002169608020E8604FF4FE
:1034D000807129614FF48060002268612021AA6018
:1034E000A961EA61284601F00DFB08B1FEF76AFB0D
:1034F00025626C6205B030BD00686549884200D025
:10350000704780B55C48026842F4006202600022A5
:10351000006800F4006000900021009B1820FFF775
:103520001EFB1820FFF738FB002200211920FFF7AF
:1035300016FB1920FFF730FB002200211A20FFF7AD
:103540000EFBBDE802401A20FFF726BB81B00068E1
:103550005049884209D15048026842F00202026094
:10356000006800F002000090009801B0704718B5A4
:1035700085B000F022F82168464A91421BD13E48AE
:10358000016841F0080101600221006800F00800B4
:1035900000901020009A01900291049101A93F48E7
:1035A000FFF73EF83548016821F4406141F0E061E1
:1035B00041F40061016006B010BD044610210022F4
:1035C00001A801F043BC18B585B0044610210022C3
:1035D000684601F03BFC2168314A2B4C2648914259
:1035E00019D1036843F480430360016801F480410A
:1035F00000F036F84FF4007000F029F84FF48060C6
:1036000000F01DF8002200212520FFF7A8FA252050
:10361000FFF7C2FA11E0234A91420ED1416841F40A
:1036200000314160416801F4003100F019F80420D4
:1036300000F00DF8082000F002F806B010BD0021DF
:1036400000900191029120466946FEF7E9BF049A75
:10365000009001910322039269462046FEF7E0BFE5
:1036600004910499026842F0040202600221006899
:1036700000F004000490704718100240040001405C
:1036800000240140DC08002000080140080002403E
:10369000002C0140000400401C100240000C0140BE
:1036A00000380140004400402DE9F843040016D0E2
:1036B0002078DFF85464C10713D5706800F00C005F
:1036C000042807D0706800F00C00082840D170680A
:1036D000C1033DD53068810303D56068002800F040
:1036E00058812078DFF83094810719D5706810F080
:1036F0000C0F07D0706800F00C00082860D17068CB
:10370000C1035DD43068810703D52269012A40F0E6
:1037100040813068616920F0F80040EAC100306003
:10372000207801077BD5A069DFF8F013002800F0AE
:103730009D8001220A60FFF7A3F90546706A8107A0
:103740005ED4FFF79DF9401B0228F7D9032023E13F
:103750006068B0F5803F04D1306840F4803030605C
:1037600014E008B930680AE0B0F5A02F306806D13F
:1037700040F480203060316841F4803105E020F46D
:1037800080303060316821F480213160606858B148
:10379000FFF776F9054630688103A2D4FFF770F988
:1037A000401B6528F7D3D1E7FFF76AF90546306873
:1037B000810396D5FFF764F9401B6528F7D3C5E769
:1037C000206970B10121C9F80010FFF759F90546C9
:1037D000306881079DD4FFF753F9401B0228F7D9C1
:1037E000B4E70022C9F80020FFF74AF9054630681F
:1037F000810795D5FFF744F9401B0228F7D9A5E7C3
:10380000DFF808231068C0084FF47A71B0FBF1F1BB
:10381000009100BF0098411E00280091F9D1207846
:10382000410768D5F0690025C10009D4F06940F06E
:103830008050F0610125F06900F080500090009800
:10384000DFF8DC723868C1051DD4386840F4807038
:103850003860FFF715F980463868C10513D4FFF7C3
:103860000FF9A0EB08006528F6D36FE70860FFF7B3
:1038700007F90546706A8107D1D5FFF701F9401BAA
:103880000228F7D962E7E068012808D008B9306A51
:1038900009E00528306A06D140F004003062306A41
:1038A00040F0010005E0400840003062306A20F03E
:1038B0000400306241F28938E06858B1FFF7E0F85F
:1038C0000746306A810711D4FFF7DAF8C01B40457C
:1038D000F7D33BE7FFF7D4F80746306A810705D5F1
:1038E000FFF7CEF8C01B4045F7D32FE71DB1F069B5
:1038F00020F08050F061E06900284CD0716801F040
:103900000C01082938D002282AD100F047F80546D2
:103910003068810105D5FFF7B3F8401B0228F7D9BD
:1039200014E7206AB0F5803F05D17168A06821F4E2
:103930000031014371607268206A616A22F4741276
:1039400002430A437260012000F029F804463068FF
:10395000810120D4FFF794F8001B0228F7D9F5E67F
:1039600000F01CF804463068810114D5FFF788F890
:10397000001B0228F7D9E9E601280AD07068226AFC
:1039800000F48031914202BF00F47010616A8842F5
:1039900001D0012000E00020BDE8F2830020C9F83A
:1039A0006000FFF76DB82DE9F041040088464ED065
:1039B0005C4F00F077F802D200F06FF847D1206832
:1039C000514D810712D5400703D5696841F4E06184
:1039D00069602078010703D5686840F4605068602A
:1039E0006968A06821F0F001014369602178C80787
:1039F00025D56068012802D129688A0303E00228DE
:103A0000296802D18A0102D421E08A071FD569689A
:103A1000890840EA81006860FFF732F80646686866
:103A2000616800F00C00B0EB810F08D0FFF728F8B8
:103A3000801B41F289318842F1D303202BE03868A2
:103A400000F00700804504D200F027F801D00120E3
:103A500021E02078420705D56968E06821F4E0613B
:103A6000014369602178080706D56968206921F457
:103A7000605141EAC001696000F01AF86A682A4999
:103A8000224BC2F30312895CC840186021480068C9
:103A900001F022FA0020BDE8F0813968C90848EA3F
:103AA000C1013960386800F00700404570470000E8
:103AB00010B51E4916480A6802F00C04082C10D1F3
:103AC0001DA3C2F38344D2031B5D08D50968584384
:103AD0001DA3C1F34041595CB0FBF1F010BD144887
:103AE000584310BD0948114A006813681149C3F3CF
:103AF000022206E005480D4A006813680D49C3F329
:103B0000C222895CC840704700100240E4050020D2
:103B100000127A00E0050020000042428004424288
:103B20000070004000200240A45C00080410024025
:103B300000093D00C45C00080203040506070809EB
:103B40000A0B0C0D0E0F1010010200002DE9FC41B4
:103B50000646354D3078C10750D5A8690024C1000C
:103B600009D4A86940F08050A8610124A86900F038
:103B70008050009000982D4F3868C10511D43868E6
:103B800040F480703860FEF77BFF80463868C105DE
:103B900007D4FEF775FFA0EB08006528F6D30320D5
:103BA0003FE0E86910F440701EBF716801F4407195
:103BB000884218D01E49E86901220A60002320F4D7
:103BC00040700B60E861C0070DD5FEF759FF07464E
:103BD000E869810707D4FEF753FFC01B41F2893122
:103BE0008842F5D3DBE7EA69706822F44072024349
:103BF000EA611CB1A86920F08050A8613078820782
:103C000005D52968B06821F4404101432960317825
:103C1000C80605D52968F06821F4800101432960B0
:103C20000020BDE8F6810000041002400070004052
:103C30004004424240F0200070472DE9F14FB0B0FF
:103C4000924604910DF142013A9A2B9199464A709D
:103C500000200AE01AF8011B0498309A90470028C7
:103C6000049000F044860D98401C0D909AF80000D6
:103C700058B12528EED1002000210022079008919C
:103C800009920A910B920C9104E00D9800F031BE5C
:103C900041F001011AF8010F2028F9D023280CD097
:103CA0002B2804D02D2805D0302809D00BE041F076
:103CB0000201EFE741F00401ECE741F00801E9E718
:103CC00041F01001E6E72A280FD1D9F8002052F878
:103CD000040BC9F8002000280F9003D540420F9034
:103CE00041F004010AF1010A14E00F92DFF8082CF8
:103CF0000AE00F9B934205DA03EB830400EB4400D8
:103D000030380F900AF1010A9AF80000A0F1300350
:103D10000A2BEED39AF800202E2A03D04FF0FF3062
:103D20000E9029E01AF8010F2A2809D1D9F80020AD
:103D300052F8040BC9F800200E900AF1010A1BE0AA
:103D40002D280CBF0AF1010A002000220E92DFF894
:103D5000A84B0BE040B90E9BA34205DA03EB8305A9
:103D600002EB4502303A0E920AF1010A9AF800205D
:103D7000A2F130030A2BEDD3ADF840100FF67C30E2
:103D80009AF8001001F016F808B11AF8010B8DF836
:103D900042009DF84200682805D19AF80010682971
:103DA0000CD1622006E06C2804BF9AF800106C2940
:103DB00004D171208DF842000AF1010A12AA06927C
:103DC0001AF801BBBBF125002CD01C3800F09781FC
:103DD000001F022840F29381133800F0BA8409389A
:103DE00000F08D81801E00F04F85401E00F0FC84A5
:103DF000401E022840F28381001F00F0F584401F1E
:103E000000F0F280401E00F0A484401E00F0DA8032
:103E1000C01E0ED0801E00F09C84C01E00F099844D
:103E200000F03DBD0122252107928DF8481000F0D9
:103E300042BDD9F8000050F8044BC9F80000002C2E
:103E4000059440F0AB802B994878002800F0A180C1
:103E50004FF0FF340FF6AC2001F064F8241A40F064
:103E6000468500F028BD01236A4602A9304600F0CD
:103E70000DFE002840F03B85641EF4D13096079C6F
:103E800012AF74B1309E17F8011B0498B047002898
:103E9000049000F02C850D98401C641E0D90F2D10A
:103EA00030960A9C3021002C8DF800100CDD309EDD
:103EB00001236A4602A9304600F0E8FD002840F0E0
:103EC0001685641EF4D13096059F089C74B1309E0F
:103ED00017F8011B0498B0470028049000F00785EC
:103EE0000D98401C641E0D90F2D130960B9C302131
:103EF000002C8DF800100CDD309E01236A4602A9CB
:103F0000304600F0C3FD002840F0F184641EF4D177
:103F1000309605980899099C471874B1309E17F897
:103F2000011B0498B0470028049000F0E0840D982D
:103F3000401C641E0D90F2D130960C9C3021002C58
:103F40008DF800100CDD309E01236A4602A9304630
:103F500000F09CFD002840F0CA84641EF4D1309625
:103F60009DF8400041077FF581AE2020002D8DF89F
:103F700000007FF77BAE309C01236A4602A92046F1
:103F800000F084FD002840F0B2846D1EF4D130941E
:103F90006CE60FF65830059000F08DBC0E9D002D9C
:103FA00004D52046FDF7DCFF044608E02A46002140
:103FB000204600F01FFF002814BF041B2C46089465
:103FC00000F079BCD9F8001051F8040BC9F80010C2
:103FD00020F00002002121F0FF33CDE9022312ACD2
:103FE0000594782100F04CBC2B99487820B14FF013
:103FF000FF340FF6C8202FE79DF84200622860D0FA
:10400000682817D06A283FD06C2806D0712847D07E
:1040100074282CD07A281DD062E0D9F8001051F80D
:10402000040BC9F80010002866D14FF0FF340FF6DA
:10403000A42011E7D9F8001051F8040BC9F80010BA
:1040400020B94FF0FF340FF68C2005E70D99018061
:1040500000F031BCD9F8001051F8040BC9F8001079
:10406000002849D14FF0FF340FF66820F4E6D9F864
:10407000001051F8040BC9F8001000283CD14FF093
:10408000FF340FF65020E7E6D9F8001051F8040B82
:10409000C9F8001080B94FF0FF340FF63820DBE686
:1040A000D9F8001051F8040BC9F8001020B94FF0EE
:1040B000FF340FF62020CFE60D9AD317C0E9002376
:1040C000F9E3D9F8001051F8040BC9F8001020B931
:1040D0004FF0FF340FF6FC10BEE60D990170EAE3D5
:1040E000D9F8001051F8040BC9F8001020B94FF0AE
:1040F000FF340FF6E010AFE60D990160DBE39DF8A9
:1041000042004C2807BFD9F80010CA1DD9F800009A
:10411000C21D22F00702C9F80020D2E900010832CE
:10412000C9F80020CDE90201C80F02D007982D215F
:104130000AE0BDF84000810702D507982B2103E073
:10414000C00705D50798202112AA1154401C0790DA
:1041500012A807994BF0200300EB010CDDE90201E6
:10416000CDE92C01612BCDF814C021AC0BD00E98F9
:10417000002848BF062105D404BF4BF02000672863
:1041800001D101210E91DDE902014F0047EAD0770C
:104190007E15FF174FF0FF32974208BF964210D1AD
:1041A000090341EA10510003002908BF002808D084
:1041B000ABF1610503211A2D089118D30FF63411C4
:1041C00010E0DDE902014A00521512F1010F11D190
:1041D00008030FD1ABF1610503211A2D08911FD3FC
:1041E0000FF6181103226046FEF770FB63E30FF62B
:1041F0000011F7E7DDE902016A4600F0B3FECDE900
:1042000002014BF02000612811D105983022027084
:10421000811C0591BBF1610F0CBF7821582102E090
:104220000FF6D401DEE741700798801C0790DDE9A6
:10423000020120F0000231F0004308BF002A02D141
:104240000026002542E14BF02008B8F1610F40F054
:1042500092800E99002947BF21200190491C0191AD
:10426000019FDDE92C017F1C00220023DDE90245CE
:1042700000F0B0FE38BF85F0004500988DF884202E
:10428000001F002F00900DF1850632DD20462946E3
:104290000022002300F0B8FE2BD21C2200F0CEFE3C
:1042A00004460D4600F068FFFF1F002F804609DD21
:1042B00000F07EFF02460B462046294601F040F8FA
:1042C00004460D46F01D0721B8F1000F0CDD491E14
:1042D0005EBF08F00F0200F8012D4FEA2818F3D551
:1042E00002E0002200F8012D491EFAD5C61D002F5C
:1042F000CCDC0DF18500361A01980DF1850486425B
:10430000D8BF304600282FD4B04206DA0DF185011F
:104310000A5C082AA8BF0F2100DA0021024621AB5F
:10432000134400E0401E13F80159521E8D42F9D08B
:104330000F2904D10DF185018B5C5B1C8B54002A85
:1043400004D50099091D21AC401C0091411E0BD4DD
:10435000621813783033DDB23A2DA4BF5B443A3B88
:10436000491E02F80139F4D50E9A002A40F1AC80BA
:10437000411E0E91A8E00099DFF8002747F2975000
:10438000414391FBF2F20092DDE92C45C2F10702B4
:10439000002A25F0004504DD2046294600F04AFBAE
:1043A0000BE052420020DFF8D81600F043FB024633
:1043B0000B462046294601F035F804460D46B8F173
:1043C000660F06BF009F0A3706270E983F18142F66
:1043D000C8BF142730208DF884000DF18506002F0A
:1043E00034DD2046294601F041F901460A4606F12E
:1043F000080304200A26B2FBF6F606EB860EA2EBB3
:104400004E02303203F8012C0A22B6FBF2F202EB24
:10441000820EA6EB4E063036401E03F8026DE9D13F
:10442000083F002F03F10806D9DD084601F030F9F6
:1044300002460B462046294600F082FF0022DFF8A4
:10444000443601F033F904460D46CAE70DF1850004
:10445000361A0DF1850404E00098401E761E009087
:10446000641C20783028F7D0B8F1660F02D100988C
:10447000401C04E0B8F1650F0CBF012000200E992C
:1044800040188642B8BF701E00281DD4B04204DA1E
:10449000215C3429C8BF392100DC30210246631E6B
:1044A0009D1800E0401E15F80169521E8E42F9D099
:1044B000392902D1A15C491CA154002A04D50099D4
:1044C000491C1C46401C00910646009D01F0DCF989
:1044D000406A0778DDF8388030B2002802DC012617
:1044E0000FF21C644BF02000662808BF6D1C16D02C
:1044F000672845D128B210F1040F47DB404545DA63
:104500009DF840006D1C010703D430B24045D8BF70
:10451000804628B2B8EB000848BF4FF000080FFAF9
:1045200085FBBBF1000F00F3B3800898411C089194
:10453000302205990A54B8F1000F03DC9DF84000C1
:10454000010704D50898411C089105990F5418EBF0
:104550000B0FB8BFC8F100052DB26842454432B216
:104560000B909542B8BF2E46059B089836B2099627
:10457000324621461844FEF7A9F9AD1B0C95D1E04F
:10458000BBF1610F17D14FF0700B19E030B240450D
:1045900004DA9DF840100A0758BF8046B8F10108B8
:1045A00048BF4FF00008BBF1670F14BF4FF0450B39
:1045B0004FF0650B04E0BBF1410F08BF4FF0500B0B
:1045C0000898411C0891B8F1000F059914F8012BC7
:1045D0000A5403DC9DF8400001071AD50898411CD5
:1045E0000891B8F1000F05990F5412DD761E30B214
:1045F0008045B8BF46460598089B32B2214618440C
:10460000FEF764F9089836B230180890A8EB060057
:104610000B9005980899014428B2002881F800B051
:1046200003D42B204870891C04E02D224A700546D3
:10463000891C6D4200202CAA0AE02B460A2593FB18
:10464000F5F505EB8504A3EB440302F8013B401CA0
:104650002DB2002DF1DC012806DC4BF02002652A8A
:1046600004BF302201F8012B00282CAA08D13020E9
:1046700001F8010B06E0401E135C303301F8013BEA
:104680000028F8DC059A08981044091A099149E0B5
:1046900030B229B288421CDA0598089B32B2214612
:1046A0001844FEF713F9089936B271180891ABEB6C
:1046B0000600B8F1000F0B9003DC9DF840000207E4
:1046C00004D5059847540999491C0991CDF83080C3
:1046D00028E00598089B2AB221461844FEF7F6F810
:1046E0000898761B5844B8F1000F089003DC9DF839
:1046F00040100A0703D5411C089105990F5430B2A8
:104700008045B8BF46460598089B32B204EB0B01C2
:104710001844FEF7DBF8089836B230180890A8EB7A
:1047200006000B909DF8400000F01400102840F0A7
:10473000C280079A08980B99821809988A188218DB
:104740000C980F998018884280F2B580081A0A9058
:10475000B1E09DF84200622808D068280ED06A288F
:1047600014D06C281FD0712810D01CE0D9F800108C
:1047700051F8040BC9F80010C0B21AE0D9F80010C3
:1047800051F8040BC9F8001080B212E0D9F800000B
:10479000C21D22F00702C9F80020D2E90001083248
:1047A000C9F8002006E0D9F8001051F8040BC9F848
:1047B00000100021CDE902019DF8400002075AD502
:1047C000DDE90201002908BF002854D04BF0200287
:1047D000782A50D1079812A930230B54401C421C50
:1047E000079201F800B046E09DF84200622808D028
:1047F00068280ED06A2814D06C281FD0712810D0D9
:104800001CE0D9F8001051F8040BC9F8001040B2B0
:104810001AE0D9F8001051F8040BC9F8001000B2E2
:1048200012E0D9F80000C21D22F00702C9F80020EA
:10483000D2E900010832C9F8002006E0D9F80010DA
:1048400051F8040BC9F80010C117CDE90201002985
:1048500002D507982D210AE0BDF84000810702D556
:1048600007982B2103E0C00705D50798202112AA3D
:104870001154401C079012A807990144059159460C
:1048800002A800F04DF816E001200790D9F80010BA
:1048900051F8040BC9F800108DF848000BE0012016
:1048A0002521BBF1000F07908DF8481003D002219D
:1048B00007918DF849B00F9D07980A992D1A08980D
:1048C0006D1A0B992D1A09986D1A0C992D1A9DF8CD
:1048D00040006D1A41073FF5D2AA2020002D8DF827
:1048E00000007FF7CCAA309E2C46FFF7BCBA4FF0F1
:1048F000FF3031B0BDE8F08FCBCCCC0C686A6C7463
:104900007A4C00007072696E74665F733A2062615F
:104910006420257320617267756D656E74000000F8
:104920002DE9FC4D06468846376940466F2808BF8A
:10493000082405D0FFF77EF9782814BF0A24102434
:10494000D6E900013C2582468B46B8F1640F18BFBA
:10495000B8F1690F05D1002903D5DAF1000A6BEB34
:104960004B0BBBF1000F08BFBAF1000F0CD1306B3D
:1049700050B9082C3AD196F83800010736D53022C4
:104980003B2587F83B2031E08DF8008050465946A2
:104990002246002300F07EFF3032D0B26D1E3A284E
:1049A00001950EDA7A55504659462246002300F00A
:1049B00071FF82465FEA010B08BFBAF1000F05D113
:1049C00008E09DF800001218513AEBE7F0687919F9
:1049D0008842DBD3082C09D196F83800010705D5A9
:1049E000785D302802D06D1E30207855C5F13C022C
:1049F000306BB26179198242F16008DA318F821A24
:104A00004FF6EF70014031873262BDE8F38D002828
:104A10000ED596F8380000F01400102808D1736BFA
:104A20007069316A1B1A5B1A9B1A002BC8BF33626C
:104A3000BDE8F38D2DE9D04306460F4614464FF0EE
:104A40000008DFF8449012E0E00707D542464B46E5
:104A50003046394600F02AFE06460F464046494693
:104A600042464B4600F022FE641080468946002CE8
:104A7000EAD130463946BDE8D0830000A086010067
:104A80000000F03F84D7974100002440F8B5054668
:104A90000E4617461C4600205CB117F8011BB06893
:104AA000A847B06030B1F06A401CF0620020641E7C
:104AB000F3D1F2BD4FF0FF30F2BD00007072696EAD
:104AC00074665F733A20256E20646973616C6C6F45
:104AD000776564007072696E74663A206261642062
:104AE000256E20617267756D656E740000000000B0
:104AF0006E616E004E414E00696E6600494E460082
:104B00003000000030B508B9012030BD0268DFF880
:104B100078128A18142400F13803B2FBF4F4A400CC
:104B2000DFF868129C605960022280F82120016839
:104B30000C684168826805686FF30D140C43C16806
:104B4000144302690C434169144382690C43C169EF
:104B500014430C432C6000221A60012380F821309A
:104B600080F82020002030BD10B590F821100229D7
:104B700000F1380206D004231360002180F82010D1
:104B8000012010BD01680B6823F00E030B600123A8
:104B900001680C68640864000C60916852688B407E
:104BA0005360012180F82110002280F8202000208D
:104BB00010BD38B590F821200024022A00F13401FC
:104BC00003D00420486001243EE00268136823F00B
:104BD0000E0313600268DFF8B83115686D086D00C8
:104BE000156002689A4208BF012222D0DFF8A43182
:104BF0009A4208BF10221CD0DFF89C319A4208BFAD
:104C00004FF4807215D0DFF894319A4208BF4FF408
:104C100080520ED0DFF888319A4208BF4FF48032BC
:104C200007D0DFF880319A420CBF4FF480124FF06A
:104C30008072DFF874311A60012280F8212080F838
:104C40002040096801B18847204632BD2DE9F84F60
:104C500000F1280204275169534E09680368DFF800
:104C600044B11C689569DFF838C1DFF830E1DFF83E
:104C70002881DFF82091DFF818A1AF4039422DD00C
:104C800067072BD519688C0603D4196821F0040135
:104C900019600168514508BF042118D0494508BF73
:104CA000402114D0414508BF4FF480610FD07145B9
:104CB00008BF4FF480410AD0614508BF4FF48021FE
:104CC00005D059450CBF4FF480014FF08061316031
:104CD0005168002956D0BDE8F44F08470227AF407D
:104CE000394232D0A70730D519688C0606D4196826
:104CF00021F00A011960012380F821300168514533
:104D000008BF022118D0494508BF202114D04145D1
:104D100008BF4FF400710FD0714508BF4FF4005128
:104D20000AD0614508BF4FF4003105D059450CBF8A
:104D30004FF400114FF000713160002180F8201015
:104D40001168F9B1BDE8F44F0847082606FA05F5E1
:104D5000294217D0210715D51C6824F00E041C60C9
:104D60000123916954698B40636001211161012322
:104D700080F82130002180F82010916811B1BDE841
:104D8000F44F0847BDE8F18FF8FFFDBF0000024077
:104D9000080002401C000240300002404400024073
:104DA000580002406C000240040002407047704707
:104DB00070470000C9B202788A421AB11CBF10F8CD
:104DC000012FF9E718BF0020704710B5044600F026
:104DD00059FD01462046096ABDE81040084710B554
:104DE000044600F04FFD01462046896ABDE81040A8
:104DF00008470000C9B2830706D0521E22D310F81C
:104E0000013B9942F7D11FE0083A13D302F10402A3
:104E100041EA012141EA014150F8043B121F21BF40
:104E20004B40A3F1013C2CEA030C1CF0803FF3D073
:104E3000C9B2001F0832521E24BF10F8013B91EA8C
:104E4000030FF8D818BF0120401E70474018491CB6
:104E50001CBFB1F1010100F8012DF9D1704700002C
:104E600000B500BF130096469446103928BFA0E84D
:104E70000C50FAD85FEA417C28BF0CC048BF40F80C
:104E8000042BC90728BF20F8022B48BF00F8012BCC
:104E900000BD70B4044600E0641C23783BB10D46AD
:104EA0002A7822B115F8016BB342F9D1F4E7201A40
:104EB00070BC704770B4044600E0641C23783BB1BA
:104EC0000D462A78002AF8D015F8016BB342F8D1C4
:104ED000201A70BC7047000038B50D4D0D4B2A7874
:104EE00004464FF47A711868B1FBF2F2B0FBF2F0AD
:104EF000FDF75DFE50B9102C08D2002221464FF07C
:104F0000FF30FDF72CFEAC60002032BD012032BD29
:104F1000D8050020E40500207047704770477047AF
:104F20007047704780B500B906A005490B681BB1F2
:104F300022220021984701E000F0C4FD222002BD9A
:104F400024090020636F6E73747261696E74206847
:104F5000616E646C65723A20626164206D65737382
:104F60006167650010B5144600F002F8226010BDBC
:104F7000C1F30A5343B14A0012F5001F28D2A3F22D
:104F8000FE32A1EB0251704750EA410C20D001F0F3
:104F9000004C31EA0C01B1FA81F204BFB0FA80F39F
:104FA000D2180B3AB2F120032CBF00FA03F1914062
:104FB00041EA0C013EBFC2F1200C20FA0CF3194368
:104FC0009040524240F2FD33D21A01EB0351704738
:104FD0000022704741EA030C50EA4C0C52EA0C0CD8
:104FE0004FF4001C09D307D01CEB410F9CBF1CEBF6
:104FF000430F8B4208BF824270471CEB430FFBD824
:10500000994208BF9042704741EA030C50EA4C0CA9
:1050100052EA0C0C4FF4001C09D307D01CEB410FD3
:105020009CBF1CEB430F994208BF904270471CEB9A
:10503000410FFBD88B4208BF82427047124254D4C2
:1050400040F2FF7C1CEA11530FD0634531D09B180E
:1050500063453CBF01EB0251704701F0004141EA5A
:105060000C510020AFF30080704750EA410320D07C
:1050700001F0004C91EA0C011CD0B1FA81F30B3B1A
:105080009A420DD9D21A994051EA0C01C3F1200C71
:1050900020FA0CFC61449840531C40F2FF7CD7E797
:1050A000914041EA0C01C2F1200C20FA0CF31943A3
:1050B00090407047B0FA80F31533202BE0D3202ABC
:1050C000EED3203A203B9A4209D9D21A00FA03F1D2
:1050D00041EA0C010020531C40F2FF7CB8E700FAC3
:1050E00002F141EA0C0100207047524240F2FF7C7D
:1050F0001CEA11530DD06345DBD0B2EB030C3CBF6F
:10510000A1EB025170470CF1010221EA035141F475
:10511000801150EA410CCCD001F0004C352A27DC3C
:1051200030B481EA0C01B2F1200309DAC2F12003A4
:10513000044601FA03F5D0402843D1409C400CE0DE
:10514000C3F12002450020FA03F418BF44F0010423
:1051500021FA03F091400C43002174F1004550F115
:10516000000051EB0C01244230BC7FF47BAF704750
:105170006146002076E70000C1F30A5340F21E4268
:10518000D31A0CDDCA0283F3070342EA505242F0FD
:105190000042DA4002EBE17282EAE17070476FEAA6
:1051A000E17203F2E13008B182F000407047000084
:1051B00010F0004160B148BF4042B0FA80F2904028
:1051C000D21CC2F5846241EA025202EBD0214005B2
:1051D00070470000841A71EB030604D26E40001B76
:1051E000B141121973414FF4001C1CEB410F34BF45
:1051F0007CEB430683E00C0DA4EB1356362E00F334
:105200007C80012E45EAC32341DC43EA525312BF9E
:10521000D20292025B08240545EAC12141EA5051BD
:10522000D2EBC020994125D407D1B0FA80F610FA0C
:1052300006F162D00020203608E0B1FA81F6B140D4
:10524000C6F1200220FA02F21143B0404FEAF47492
:10525000B4EB465434F001064FEA74040AD8D6F58C
:105260000016760D04F00044F04061FA06F250405A
:10527000F1404840C00A40EA415021F0004128BFB7
:105280005FEA500550F1000044EBD12135E0DB0A24
:1052900045EAC121C90AB6F120050EDD42EA024203
:1052A000120CC5F1200603FA06F6EB4042EA0605A9
:1052B0006D42984161F100010DE062FA06F5F2409D
:1052C000554063FA06FC82EA0C02F3405A406D42F4
:1052D000904161EB030111F4801F05D1641E62054A
:1052E00002D06D004041494121F48011430875F11D
:1052F000004350F1000041EB045170BC70471CEBBF
:10530000410F15D223F0004352EA43060BD04FEA77
:105310004C0CBCEB410F04D80C0D661E342EB7DDCF
:10532000EBE7801A994150EA410608BF0021E4E703
:1053300008BF1CEB430F28BF6FF00001DDE7000042
:1053400070B491EA030F4FF000457FF543AF6B4017
:10535000841A71EB030603D2001BB1411219734189
:105360004FF4001C1CEB410F34BF7CEB430442E0C4
:105370000C0DA4EB1356352E4FDC45EAC323DB0A94
:1053800045EAC121C912B6F120050DDD63FA05F623
:10539000EB4086EA0305124218BF45F00105C0182C
:1053A00051F100010CD213E062FA06F5F2405540CB
:1053B000F3415A40B340F3405A408018594107D353
:1053C00049085FEA30005FEA350528BF45F001056E
:1053D00001F58011420875F1004250F1000041EBE7
:1053E00004514E0016F5001F70BC38BF70470020F6
:1053F000090D090570471CEB410F10D252EA430614
:105400000BD0BCEB410F05D80C0DAB43661E342E00
:10541000B6DD02E0AB438018594170BC704770BCE8
:1054200070470000F0B540F2FF7581EA030C0CF004
:10543000004C15EA11541DBF15EA1357AC42AF4298
:10544000E5E0BC41C1F31301C3F31303801A994192
:1054500043F4801304D2641E001849418018594156
:10546000C90241EA5051B1FBF3F603FB1611A2FB4E
:105470000675D7EBC020A94102D2761E801859418B
:10548000C90241EA5051B1FBF3FE03FB1E11A2FB1E
:105490000E75D7EBC020A94103D2AEF1010E8018E2
:1054A0005941890241EA9051760546EA8E2EB1FBB8
:1054B000F3F603FB1611A2FB0675D7EB8020A9417A
:1054C00002D2761E80185941C90241EA50514EEA73
:1054D000060EB1FBF3F603FB1611A2FB0675D7EB24
:1054E000C020A94102D2761E80185941C90241EA62
:1054F0005051B1FBF3F703FB1711A2FB0735D3EBB8
:10550000C020A94167F100070CBF004247F0010726
:1055100066F3D5274FEA1E31B80814F5806412DD12
:10552000BD0775F1004250EB0E5051EB045111F5DF
:10553000801F5CBF41EA0C01F0BD4CF07F6141F07F
:10554000E0410020F0BDBD076D0840EA0E5041F477
:105550008011D4F10104B4F120060ADAC4F1200666
:105560000200E04001FA06F3E1401843B24015435F
:105570000EE0342C13DCC6F1200445EA40056D082A
:1055800020FA06F2154321FA06F0A1400D4300214E
:1055900075F1004250F1000051EB0C01F0BD00200C
:1055A0005FEA0C01F0BDCFB992185B41B3FA83F703
:1055B00004BFB2FA82F6BF190B3FB7F120062FBF26
:1055C00002FA06F3BB40C7F1200622FA06F638BFFE
:1055D0003343BA401CB1E419641E33E77F4231F013
:1055E0000041B1FA81F404BFB0FA80F6A4190B3C73
:1055F000B4F120062FBF00FA06F1A140C4F1200645
:1056000020FA06F638BF3143A0403C1B1AE7AC42F3
:105610001ABF05EA1357AF4212E050EA41061CBF19
:1056200052EA4306BFE750EA4107304661461CBFD5
:1056300041EA0551F0BD52EA430C08BFC143F0BD39
:1056400000204FF4001616EB410F98BF16EB430FE6
:1056500008BF16EB410F24BFC14305E016EB430F13
:105660000CBF61464CEA0551F0BD0000400D40F210
:105670001E4C40EAC120BCEB115C40F0004003D45A
:105680008CF30701C84070476FEAE1707047000073
:1056900050B1B0FA80F18840C91CC1F58461090598
:1056A00001EBD021400570470146704730B540F20C
:1056B000FF7C1CEA11541DBF1CEA13556445654567
:1056C0003FE0641981EA030C6FF35F530CF0004C68
:1056D00043F48013C90241F0004141EA505EC50223
:1056E0001100A5FB020200284FF00000EEFB012094
:1056F0004FF00001E3FB052118BF42F00102401802
:1057000000214941E3FB0E01A4F580640D0302D2A0
:1057100092184041494154F1010470DD450872F18D
:10572000004250F1000051EB0451A1F5801102D468
:1057300041EA0C0130BD40F2FF7E4CEA0E510020E0
:1057400030BD0CEA1355644518BF654581EA030C6A
:105750000CF0004C41D050EA410E1CBF52EA430EFF
:1057600002E06146002030BD24422C441BD15FEA98
:10577000050EF6D0090302BF01460020AEF1140E5B
:10578000B1FA81F5AEEB050401FA05FE0C35C5F161
:10579000200100FA05F5C8404EEA000E6FF35F5392
:1057A00043F480139CE733F00043B3FA83F504BF5E
:1057B000B2FA82FE75440B3D641BB5F1200E2FBF7B
:1057C00002FA0EF3AB40C5F1200E22FA0EFE38BFEE
:1057D00043EA0E03AA40641C7CE750EA410E14BF62
:1057E00052EA430E6FF000014FF4001515EB430F22
:1057F0008EBF194615EB410F9DE7B4D830BDD4F1EB
:105800000104B4F120050FDAC4F12005520828BFC5
:1058100042F0010210FA05FE01FA05F57244E2BFFA
:10582000E0402843E1400FE0352C9ADCC5F120042C
:1058300052EA400220FA05F218BF42F0010231FAA2
:1058400005F0A1400A43002172F1004250F100002E
:1058500051EB0C0130BD0000FFE741381A288041B0
:10586000C00F7047A0F10901052901D3202801D1FB
:105870000120704700207047A0F141011A2938BF6C
:1058800020307047014870470148704720060020CB
:10589000E8050020BBBBE1B1B2F5803F80F07E801F
:1058A000022A1ED98C46B1FBF2F102FB11C31B0484
:1058B00043EA1043B3FBF2FC02FB1C3380B240EA24
:1058C0000343B3FBF2F002FB103240EA0C4000232A
:1058D0007047022A05D98446B0FBF2F002FB10C2E1
:1058E00070474AB105D100F0010249085FEA300073
:1058F000704700220023704700F0E8B80B00020058
:10590000002100207047904271EB030CF6D3B3F5F1
:10591000803F2FD2F0B5B3FA83F7B1FA81F4A7F143
:105920000F0E3D1B5340CEF1200602FA0EF2F3415A
:105930005340B5F10F0746D80F3C2C444140C4F109
:105940002006A040F1414140B1FBF3F603FB1611E4
:10595000A2FB0645001BA94102D2761E80185941C0
:1059600080EA010221FA0EF362FA0EF200215A4097
:105970003046F0BD30B4B1FBF3FC03FB1C11A2FBBD
:105980000C45001BA94103D2ACF1010C8018594110
:1059900030BC02460B46604600217047B2F1807F62
:1059A00065D3F0B5B2FA82F7B1FA81F4C7F10F0608
:1059B0003D1B22FA06F307F1110EF24120355A4041
:1059C000B5F10F07B8D94140C4F12006A040F1411C
:1059D0004140B1FBF3FC03FB1C11A2FB0C45001B77
:1059E000A94103D2BCF1010C801859410F2F12D3E9
:1059F0000F3FC90341EA5041B1FBF3F603FB161117
:105A0000A2FB0645D4EBC030A94102D2761E801815
:105A1000594146EACC3C07B34140C7F12006B840A3
:105A2000F1414140B1FBF3F603FB1611A2FB064521
:105A3000001BA94102D2761E8018594180EA01025A
:105A400021FA0EF3C7F1200462FA0EF20CFA07F005
:105A50005A402CFA04F13043F0BD80EA010221FAE9
:105A60000EF3002162FA0EF260465A40F0BD8C46F9
:105A7000B1FBF2F102FB11C31B0243EA1063B3FB5B
:105A8000F2FC02FB1C331B024CEA002043EA1063C9
:105A9000B3FBF2FC02FB1C331B024CEA002043EA7E
:105AA0001063B3FBF2FC02FB1C331B024CEA002028
:105AB00043EA1063B3FBF2FC02FB1C324CEA002009
:105AC00000237047012000F003B800007047000079
:105AD00080B5AFF30080024A11001820ABBEFBE78F
